:1000000040920020951202008576030069120200DA
:100010006912020069120200691202000000000069
:10002000000000000000000000000000810C020041
:1000300069120200000000001D0C0200691202009B
:100040003D0D0200F7A303003D0D02003D0D02002F
:100050003D0D0200FBA503003D0D02003D0D020019
:10006000C7A303003D0D02003D0D0200E1A3030004
:100070003D0D02003D0D02003D0D02003D0D020050
:100080003D0D02003D0D02003D0D02003D0D020040
:100090003D0D0200A5D602003D0D02003D0D0200FF
:1000A0003D0D02003D0D02003D0D02003D0D020020
:1000B0003D0D02003D0D02003D0D02003D0D020010
:1000C0003D0D02003D0D02003D0D02003D0D020000
:1000D0003D0D02003D0D02003D0D02003D0D0200F0
:1000E0003D0D02003D0D02003D0D02003D0D0200E0
:1000F0003D0D02003D0D02003D0D02003D0D0200D0
:1001000053B94AB9002908BF00281CBF4FF0FF317E
:100110004FF0FF3000F00CB8ADF1080C6DE904CEE3
:1001200018F0A8F9DDF804E0DDE9022304B0704717
:10013000704700BF2DE9F00791E8F807B2E8021018
:100140005B1854EB0C04B2E802104D4156EB0C0660
:10015000B2E802104F4158EB0C08B2E8021059EB1C
:1001600001095AEB0C0A80E8F80780410130BDE82C
:10017000F00770472DE9F00791E8F807B2E80210A0
:100180005B1A74EB0C04B2E802108D4176EB0C069E
:10019000B2E802108F4178EB0C08B2E8021079EB5C
:1001A00001097AEB0C0A80E8F80780414042BDE87B
:1001B000F00770472DE9F007524290E87800B1E867
:1001C00080071740DB1918EA020854EB080419EA03
:1001D000020955EB09051AEA020A56EB0A0678C02D
:1001E00090E87800B1E8800717407B4118EA0208E0
:1001F00054EB080419EA020955EB09051AEA020A48
:1002000056EB0A0678C080410130BDE8F007704720
:100210002DE9F007524290E87800B1E880071740D6
:10022000DB1B18EA020874EB080419EA020975EBF3
:1002300009051AEA020A76EB0A0678C090E8780007
:10024000B1E880071740BB4118EA020874EB0804C4
:1002500019EA020975EB09051AEA020A76EB0A06A1
:1002600078C080414042BDE8F00770472DE9F001B9
:1002700052424FF0040890E8300091E8C000A31B00
:100280001340E41AF618EB1B1340ED1AFF1830C0A8
:10029000C0C1B8F10108EED1BDE8F001704700BF60
:1002A00000B592E8DC072DE9DC07B1E8805702B41D
:1002B000A7FB02510A95A8FB020BE7FB6310E9FBC1
:1002C00062B00B91A8FB0351EAFB6201E7FB64B546
:1002D000E7FB6605E8FB6615CDF830B0A9FB03B671
:1002E000EAFB6316ECFB6356E8FB640BE9FB641B5B
:1002F000EAFB645BECFB646B0D90ACFB0230059C8D
:10030000EEFB6250E9FB6460EAFB64B0E7FB64313A
:10031000E8FB6451069CE8FB6461E9FB64B1EAFB1D
:1003200064010E93A7FB0432079CE7FB6462E8FBC1
:1003300064B2E9FB6402EAFB6412049CE9FB6453C7
:10034000EAFB6463089CE7FB64B3E8FB6403E9FB36
:100350006413EAFB64230F955DF8049B99E800069B
:10036000DDF80080A9FB0854EAFB68B4DDF81080D2
:10037000ECFB6804EEFB6814E9FB6824EAFB6834D4
:10038000DDF80480EEFB6865E9FB68B5EAFB68050B
:10039000DDF81480ECFB6815EEFB6825E9FB683599
:1003A000EAFB68450F96DDF80880AEFB0876E9FBAE
:1003B0006806EAFB6816DDF81880ECFB6826EEFBA1
:1003C0006836E9FB6846EAFB6856DDF80C80ECFB12
:1003D00068B7EEFB6807E9FB6817EAFB6827DDF8FA
:1003E0001C80ECFB6837EEFB6847E9FB6857EAFBCB
:1003F000686708B000BD00BF2DE9F14F87B0FFF777
:100400004FFFDDF81C8008F1200888E8FF00FFBCE2
:1004100087E87F08BDE8F08F00B591E89857A3FB07
:1004200003520195A3FB0401E3FB6420E3FB671087
:100430000292A3FB0752E3FB6802E4FB6415E3FBB3
:100440006805E3FB69250391A4FB07B6E3FB692676
:10045000E3FB6A56E4FB670BE4FB682BE3FB6A5B98
:10046000E3FB6C6B0490A4FB0810E4FB6950E3FB16
:100470006C60E3FB6EB0E7FB6721E4FB6951E4FBD2
:100480006A61E3FB6EB1E4FB6E010592A7FB0832E3
:10049000E4FB6A62E4FB6CB2E4FB6E02E7FB6E1203
:1004A000E7FB6853E7FB6963E4FB6CB3E7FB6C03B2
:1004B000E7FB6E13E8FB6E230695A7FB0954E7FBE9
:1004C0006AB4E7FB6C04E8FB6C14E8FB6E24E9FB00
:1004D0006E34E8FB6865E7FB6AB5E8FB6A05E8FB94
:1004E0006C15E9FB6C25E9FB6E35EAFB6E4507965A
:1004F000A8FB0976E8FB6A06E9FB6A16E9FB6C26AD
:10050000EAFB6C36EAFB6E46ECFB6E56E8FB69B71D
:10051000E9FB6907E9FB6A17EAFB6A27EAFB6C3724
:10052000ECFB6C47ECFB6E57EEFB6E6700BD00BF4B
:100530002DE9F14F87B0FFF76FFFDDF81C8008F160
:10054000200888E8FF00FFBC87E87F08BDE8F08F3F
:1005500030B44FF0000310F8014B11F8015B013A81
:1005600084EA050443EA0403F5D1A3F101034FEA49
:10057000D37030BC704700BF4FF0000310F8012B60
:10058000013943EA0203F9D1A3F101034FEAD37021
:10059000704700BF30B411F8014B12F8015B6C409A
:1005A00000F8014B013BF6D130BC70472DE9F00754
:1005B00091E8F807B2E802105B1854EB0C04B2E8BB
:1005C00002104D4156EB0C06B2E802104F4158EBB9
:1005D0000C08B2E8021059EB01095AEB0C0A8941E8
:1005E000B3F1FF3374F1FF3475F1FF3576F1000696
:1005F00077F1000778F1000879F101097AF1FF3A03
:1006000051F100015B184C414D4156F1000657F184
:10061000000758F1000859EBD1795AEB010A80E83C
:10062000F807BDE8F00770472DE9F00791E8F807F3
:10063000B2E802105B1A74EB0C04B2E802108D41B0
:1006400076EB0C06B2E802108F4178EB0C08B2E8AA
:10065000021079EB01097AEB0C0A89415B184C41D5
:100660004D4156F1000657F1000758F1000859EBCB
:10067000D1795AEB010A80E8F807BDE8F007704726
:1006800018EB040859EB05095AEB060A5BEB070B5C
:100690005FF0000C4CF1000C18EB050859EB060953
:1006A0005AEB070A5BEB070B50EB0C005FF0000CFA
:1006B00051EB0C0152EB0C0263414CF1000CB8EB16
:1006C000070879F100097AF1000A7BEB040BA841D5
:1006D000B141A241B3416CF1000CBBEB050BB04141
:1006E000B941AA41BB416CF1000C4CF001068CF001
:1006F000020718EB060859EB6C095AEB6C0A7BEB06
:100700006C0B70EB6C0471EB6C0572EB670653EBD2
:100710006C076CEB6C0C18EB0C0059EB0C015AEBF2
:100720000C025BF1000354F1000455F1000556EB97
:10073000DC7657EB0C0770472DE9F14F87B0FFF7D8
:10074000AFFDDDF81080DDF81490DDF818A0FFF79C
:1007500097FFBDE8000FFFF793FF03B05DF8048B30
:1007600088E8FF00BDE8F08F2DE9F14F87B0FFF773
:1007700053FEDDF81080DDF81490DDF818A0FFF7C7
:100780007FFFBDE8000FFFF77BFF03B05DF8048B30
:1007900088E8FF00BDE8F08F3EB5164C207A8DF852
:1007A0000100E0798DF80000A079ADF804006079CF
:1007B000ADF80200684610F081FD08B1B32114E0E5
:1007C0000D480068029002A81CF0F6F908B1B721A4
:1007D0000BE0A07C10F0BAFD08B1BA2105E0607C06
:1007E00010F0AEFD002803D0BB21032000F0A0FADA
:1007F0003EBD00004C1B0020A40E00003EB5044688
:100800000068C01D20F007002060002000900190CB
:10081000029008788DF8010048788DF802008878F9
:100820008DF80300C8788DF8040008798DF805006C
:10083000C87B8DF80600487D8DF80800887D8DF80E
:100840000900C87D8DF80A00087E8DF80B00084865
:10085000407910B108798DF807000AB1002000E056
:100860002068694600F048FF2168084420603EBDCA
:10087000200000202DE9F8430446887816460D46EE
:1008800088B12068C01C20F003002060E97BEA7872
:100890006B891144CAB2A97806B1002001F0BCFAF4
:1008A000216808442060814FF87898B1687A88B14F
:1008B000387908B1FF2200E025222068C01C20F012
:1008C00003002060697A06B1002001F039FB21683D
:1008D00008442060287B90B1A87818B9F87870B1E6
:1008E000687A60B12068C01D20F007002060297B75
:1008F00006B1002004F03CFD2168084420606C48EB
:10090000036873B1287960B12068C01C20F003002F
:1009100020606A7B297906B1002098472168084445
:100920002060644802686AB1A87B58B12068C01C86
:1009300020F003002060A97B06B1002090472168C9
:10094000084420605C48D0F800C0BCF1000F11D012
:10095000E87B78B12068C01C20F003002060A97CEF
:1009600000916B7C2A7CE97B06B10020E04721687E
:10097000084420607879B94678B1287968B1206850
:10098000C01C20F0030020602A7D297906B10020D8
:1009900001F0FCFA216808442060687E80B120687C
:1009A000C01D20F007002060697E804606B100204F
:1009B0004FF4877218F020FC21680844206001E0A1
:1009C0004FF00008A87E78B12068C01D20F0070015
:1009D0002060A97E074606B10020FB2218F00CFC1F
:1009E00021680844206000E0002726B9FB22394630
:1009F000404613F099FBE87E68B3287F58B320681F
:100A0000C01D20F007002060E97E06B100204FF4F1
:100A1000827218F0F1FB2768334638442060C01C0E
:100A200020F0030095F81CC040F004022260A87D6D
:100A3000297E0844C1B2604601F0DAFA2168084410
:100A4000206066B9384613F08FFBE87E4FF4807162
:100A500013F0A2FB03E016B9002013F085FBD9F8D0
:100A60000C1031B116B92168C9F80C102068283073
:100A70002060687F002817D0206842F21077C01DE0
:100A800020F007002060697F06B100203A4618F088
:100A9000B3FB01462068002E0144216004D1394691
:100AA000BDE8F84313F0ACBBBDE8F883200000209C
:100AB00030000020380000203400002010B528B19C
:100AC000142204491EF00BF8002010BD6FF0150031
:100AD00010BD0000C40E00002DE9F0416FF02C069F
:100AE000002871D1534C607810B1B011BDE8F0818D
:100AF000002917D06FF01500002AF7D04E4B1729A8
:100B00009D7861D2DFE801F0900C0F12224A526901
:100B1000285558642D323F456E71808376797C006C
:100B20001078187075E01078587072E0917800298C
:100B3000DCD0D1780029D9D011781B29D6D35178AF
:100B40001B29D3D31068C3F8050062E01178DA7866
:100B50009142CBD399705CE01178A942C6D8D97084
:100B600057E01178A942C1D8D97352E01178002911
:100B7000BCD05178F929B9D80029B7D0108818828B
:100B80009078987445E01078D874107811F0D2FA03
:100B90003FE011780029A9D019753AE0E17811B148
:100BA00011780229A2D31078587232E01088588147
:100BB0002FE0107818712CE061790029117804D0A9
:100BC000002993D0597324E02EE002298ED3F9E74F
:100BD000117808298AD899731BE01188FF2985D8D4
:100BE000197316E01078587513E011780E29B5D8EE
:100BF00099750EE0107858760BE01078987608E03A
:100C00001088A3F81B0004E01078D87501E0107874
:100C1000187601220849002017F07CFDB0F5803FCE
:100C200004DB6FF00B0061E730465FE70121A17044
:100C30005CE70000200000204C1B002010B5064C93
:100C4000607820B111F036F8207817F0C5FA01F07D
:100C500023FA0020607010BD2000002070B50C4603
:100C6000050002D00CB1600702D06FF0150070BD16
:100C700000F03EF9A8B1284617F074FA0A4D002298
:100C80000A492870204617F045FD1DF071FB2878B1
:100C9000E96810F0EBFFFFF77FFD0120687000208E
:100CA00070BD4FF0FF3070BD200000204C1B0020B5
:100CB00030B589B005000CD017F0FCF94FF0FF34C7
:100CC00020B116F081FBB0F5FA7F05D9204609B0B6
:100CD00030BD6FF01500FAE7114C1248A56000F026
:100CE000EBFB00206070A070E0702071E06060712C
:100CF00001461E2268461DF06CFF1E220A49684606
:100D00001DF0EDFE1E22694608481DF0E8FEEFF3D7
:100D1000108472B601F0CEF904B962B60020D6E7AD
:100D20002000002099070000A60E00004C1B0020A8
:100D30000EB572B6154A9568DDB1002203466E46BF
:100D40000A2403E0B0FBF4F0521CD2B20028F9D11F
:100D5000B0540AE0D8B2B0FBF4F7B3FBF4F304FBF1
:100D60001700521ED2B23030B054002AF2D13046B1
:100D7000A847BFF34F8F06480168064A01F4E061B7
:100D800011430160BFF34F8F00BFFDE7200000203B
:100D90000CED00E00400FA05064810B581784078B3
:100DA000014302D04FF0FF3010BD10F0AFFF002024
:100DB00010BD00002000002010B5094CA07861781B
:100DC000084302D04FF0FF3010BD207910B110F071
:100DD00083FF01E010F0ACFF0120E070002010BDA7
:100DE00020000020064810B581784078014302D0E9
:100DF0004FF0FF3010BD10F073FB002010BD00005D
:100E000020000020064810B581784078014302D0C8
:100E10004FF0FF3010BD10F0D1FB002010BD0000DE
:100E200020000020064810B581784078014302D0A8
:100E30004FF0FF3010BD1CF00FF9002010BD000076
:100E400020000020064810B581784078014302D088
:100E50004FF0FF3010BD10F085FF002010BD0000E6
:100E600020000020064810B581784078014302D068
:100E70004FF0FF3010BD1CF013F9002010BD000032
:100E800020000020064810B581784078014302D048
:100E90004FF0FF3010BD1CF01BF9002010BD00000A
:100EA00020000020010001010100001B1B030203C0
:100EB0001F000802000001490000010000000000BE
:100EC000000000008DDC02CB4926C6471A6A3D4E61
:100ED0002FD1A4F22E381B75014A5268104700002A
:100EE00050190020014A9268104700005019002054
:100EF0000448416819B1806808B10120704700209A
:100F0000704700005019002002490DC881E80D000B
:100F100000207047501900207CB52C4D0646001D5E
:100F200028602A4803F05AF90446022804D0042C09
:100F300007D0082C44D047E02449304617F06BFC1A
:100F400042E02878092802D0252816D110E0052192
:100F50003E2017F036FC80B9B5F80300ADF800006C
:100F600001A9684617F0BAFD0028DAD053210CE039
:100F70001A213E2017F025FC50B11449304600F0EC
:100F80002BF8B0F5817F12D372210820FFF7D0FE35
:100F90000F4801A900680090B5F80500ADF8000001
:100FA000684617F0B9FD0028BBD06521EDE70028A1
:100FB000B7D0B178307817F004FC0028B1D003E046
:100FC0000249304617F055FC20467CBD5C190020D4
:100FD000D40F0000000011002DE9F84F0C46054623
:100FE00091F800C00D22042103233E260520FF278F
:100FF0004FF00C094FF0080B4FF0070E4FF0010AAD
:10100000BCF1330F77D2DFE80CF076292E33BF76B0
:10101000777B8085888A8EB6BB1A7636763B92B00F
:10102000FDFCFB76FA76F9F8F7F676F5F4F3F2F1D3
:10103000F0EFEEEDECEBEAEAE9E8E7E6E5000E209A
:101040002070B4F803008338B0F5005F03D031217D
:10105000C720FFF76DFE06206070BBE184F80090AA
:1010600084F801B0B6E11A20207084F801A0B1E143
:1010700026700220ADE12670122060700B20A8E1DE
:10108000292000F0D1F920B126702220607029209B
:101090009FE10A2000F0C8F920B12146284617F048
:1010A0001FFC53E12E7085F802A0E078E8702079EB
:1010B0002871A088000A6871A079A871E07900F011
:1010C0000100E871A068A860A089A881A07EA8732B
:1010D000608B000AE873207F2874A08B000A687474
:1010E000A07FA874E08B000AE87494F820002875AB
:1010F000132068702BE182E126706170142068E192
:10110000267084F80190A17064E126700A20607056
:10111000A3705FE1267062705BE1207001E084F8EB
:1011200000B0617056E130202070637052E12E7083
:1011300085F802E0A078E8706088000A28712079BC
:101140006871A088000AA871A079E871E088000A97
:101150002872207A68722089000AA872A07AE87240
:101160006089000A28730B20F1E026700620607069
:1011700084F802902EE1A11C284617F0E5FBE5E07B
:1011800057202070022067E72E70AA70E278EA707C
:10119000B4F80D20AA802279AA71D4F80520C5F8E8
:1011A0000720B4F80920A5F80B20E27B28466A73D3
:1011B000E11C227C82738A7BC2738A7E02744A7A23
:1011C0004274B1F81120ADF800204282CA7C027549
:1011D0004A6918E0FAE007E1F0E0EAE0F2E0C4E092
:1011E000D2E0C9E0DCE0D3E0C1E0DDE0B8E0B2E0AD
:1011F00083E07EE070E06AE065E060E036E024E0F5
:1012000014E01DE017E0C0F815200A8BA0F81920A3
:101210000A7AC2760E7AE52E00D3E52632461C30D5
:101220001C311DF05CFC1A36F0B28FE0267084F899
:1012300001A01120CDE02670062060701220C8E0C9
:101240002670092060701320C3E02E70242000F067
:10125000EBF808B1242049E00E20A8700F26324692
:10126000A11CE81C1DF03BFC701C6FE02E702520BB
:1012700000F0DAF840B12520A8700A263246A11CF9
:10128000E81C1DF02CFC0FE00F20A8706188A5F869
:101290000310217969716179A971A179E971A17A44
:1012A0002972E17A69720726A819E27A04F10C0121
:1012B000C01C1DF014FCE07A761C304446E0267019
:1012C0006370102085E026706070202081E0267019
:1012D0000920607021207CE02E70262000F0A4F808
:1012E00018B12620A8701726B9E71820A870132671
:1012F000B5E72670617027206BE02E702820A8705B
:10130000D4F80210002605F10308C5F80310304692
:1013100015E000BF08EB0600A119071D51F8060FE4
:1013200038608888B8807A79B81D891D1DF0D7FB90
:101330007879B61D304486B209F10100C0B298F840
:10134000031081464945E5D8761DB0B280B3687078
:10135000801C86B245E026701D206070192038E0A0
:10136000267084F801E01A2033E0267032E02670FF
:101370001420607022202CE02670217C0F2000EBCE
:10138000410060701D2024E0267063701E2020E064
:101390002670207D132101EB400060701B2018E0B7
:1013A000267063701C2014E0267060701F2010E00F
:1013B00010E027700B206070A2200AE02770607098
:1013C000A32006E027706070A42002E027706270FE
:1013D0008020A07066782146B61C324628461DF053
:1013E0007EFB3046BDE8F88F2F708120A870E81C86
:1013F000D4F8031028221DF072FB2920A7E740F241
:10140000872125E6402803D2401EC1B2054805E0E9
:10141000FF2805D04038C1B20248083017F0C3BADF
:10142000012070473C000020401EC1B2014817F067
:10143000BABA00004C000020024902680A61406804
:10144000486170473C000020054902680A60406816
:1014500042F48C220A60034A10434860704700003F
:101460003C000020F8074002024902688A60406898
:10147000C86070473C00002007484FF0FF31002251
:101480000160C90C416000F108011F200A604A6038
:101490000831C1E9000270473C00002010B5FFF799
:1014A000EBFF1BF03AFD04460248006800B180479C
:1014B000204610BD5400002001490860704700001C
:1014C000540000202DE9F04104464FF08050D0F840
:1014D000A0701F4D1E4E103D1022002120461DF011
:1014E00078FB1022002104F110001DF072FB286827
:1014F000401C08D16868401C05D1A868401C02D176
:10150000E868401C07D028686A68A968EB68206111
:101510006261A161E361002000F032FF8743F807B8
:1015200013D13068401C08D17068401C05D1B068E8
:10153000401C02D1F068401C07D032687068B16866
:10154000F36822606060A160E3600020BDE8F08184
:101550009000001038B54FF0805104462248D1F871
:10156000A010214D0268143D521C04D14268D243A0
:101570001204120C35D0C90733D001684068ADF8A9
:101580000000C4F80110BDF80000A4F80500A0791F
:1015900040F0C000A0712868401C0CD06868401C56
:1015A00009D0A868401C06D0E868401C03D0002081
:1015B00000F0E6FE40B110220021E01D1DF009FB05
:1015C00001202070002038BD2A686968A868EB688F
:1015D000C4F80720C4F80B10C4F80F00C4F8133087
:1015E000EEE70020EDE70000A400001002210180DA
:1015F0004180002101718D2141714FF43771C1800B
:101600000149816000207047CB4926C62DE9F04191
:10161000114D0A2255F82230CBB11E79FF2E12D07F
:101620000021501E12D455F8204024B12779B7422A
:1016300001D1A4782144401EF5D5FF2906D9FA210D
:101640001720FFF775FB0020187100E01971521E7A
:10165000E0D5BDE8F0810000601A002070B50546B5
:10166000194850F8214064B3B5F5706F04D340F2C7
:101670007E211720FFF75CFB2946204617F017FD57
:101680000146FF2804D02046BDE8704017F036BD63
:10169000A078B5FBF0F100FB1150C6B232464FF610
:1016A000F071204617F017FD0246FF2809D0B2421C
:1016B00001D00020E07029462046BDE8704017F0B8
:1016C000F0BC002070BD0000601A002002460948EE
:1016D00010B550F821401146204617F0E8FC0146AD
:1016E000FF2804D02046BDE8104017F007BD0020B9
:1016F00010BD0000601A00202DE9FF410C4606468F
:10170000897860780144FF2902D940F25B1104E036
:101710002178814204D940F25F111720FFF708FBBE
:1017200003961EB10025584F15B108E00125FAE7D0
:101730003878022803D021460020FFF7DDFF0DB1E5
:10174000002000E003A800F037F9504D6378D5E998
:101750000002A968009063F31F62CDE90121694688
:10176000002000F053F9D5E90302A37869690090DD
:1017700063F31F62CDE901216946012000F046F9BB
:10178000D5E90602E378296A009063F31F62CDE988
:1017900001216946022000F039F9D5E909022379CF
:1017A000E96A009063F31F62CDE9012169460320D5
:1017B00000F02CF9D5E90C026379A96B009063F372
:1017C0001F62CDE901216946042000F01FF9D5E927
:1017D0000F10A3796A6C63F31F60CDE900100292C9
:1017E000A07918B110F09CFCADF804006946052002
:1017F00000F00CF9E379D5E91301AA6C63F31F60DB
:101800000092CDE901016946062000F0FFF8237A35
:10181000D5E916016A6D63F31F600092CDE90101FD
:101820006946072000F0F2F8D5E91810637AAA6E2D
:1018300063F31F60CDE9001002926946082000F0B2
:10184000E5F8D5E91B10A37A6A6F63F31F60CDE951
:10185000001002926946092000F0D8F8D5E91E1060
:10186000E37AD5F8802063F31F60CDE9001002927F
:1018700069460A2000F0CAF800F00AF8786804B057
:10188000801BBDE8F081000058000020DC1A000039
:1018900010B50E4C2078012813D0032802D04FF445
:1018A000A37105E0D4E90101814204D040F249115D
:1018B0001720FFF73DFAFFF7A9FE04202070002053
:1018C00010BD02202070606810BD0000580000208C
:1018D00010B5044680790E4951F82000A8B14FF6A2
:1018E000F073E179827891420FD24A1CE27100EBE9
:1018F000410252899A42F4D000EB41025289A280FF
:1019000017F0FCFB2060002010BD022010BD00007D
:10191000601A00202DE9F04107464FF6FF7038802D
:10192000124850F82140ECB1A5782079B0FBF5F1D0
:1019300005FB110632464FF6F071204617F0CBFB3F
:101940000246FF280ED0A81B1044B0FBF5F105FBA2
:1019500011002179084481B239802046BDE8F04168
:1019600017F09FBB0020BDE8F0810000601A002046
:101970002DE9F04107460F4850F8215039462846D6
:1019800017F095FB0446FF2812D0D5F80600214633
:101990004FEA3046284617F0B1FB01463846B047BB
:1019A00005EB44014FF6F07048810020BDE8F0815E
:1019B0000320FBE7601A002010B5124AD8B1117855
:1019C000022902D04FF4837106E0032111700168EF
:1019D0004B0704D040F20B111720FFF7A9F9536809
:1019E00051601944916001602C22BDE81040002133
:1019F00005481DF0EEB80120107000209060506086
:101A000010BD000058000020601A00202DE9F041B0
:101A1000304D2E78012E04D0032E02D04FF4907159
:101A200036E08A79082A02D94FF4917130E0CB79F7
:101A3000002B4DD05F006B680A37FC18022A01D9D1
:101A4000134601E04FF002031C44A4F1010401D944
:101A5000134601E04FF00203A3F1010324EA03045B
:101A60008B881344A2F10102A3F1010323EA0203CC
:101A70004FF6FF72934202D340F22D1108E0032E7D
:101A800022D1154EE21B56F8207027B14FF4997100
:101A90001720FFF74DF946F820201380C879907081
:101AA0000120D070087A107108684FF6F076000CAB
:101AB000D08008881081002003E002EB4007401C22
:101AC0007E81CF798742F8D8C87900FB03406860EF
:101AD000BDE8F08158000020601A0020C1B8010064
:101AE00068030800000000003DB30100F80308008F
:101AF000000000003BAC010050010800FF000000A6
:101B0000C3E1010090000800FF0000004121010036
:101B1000A80008000100000019E30100000008000F
:101B2000FF0000001DE3010080000800FF0000002E
:101B3000C3BD01007800080002000000FBBB0100EB
:101B4000F00108000000000019BE0100200108009B
:101B5000FF00000099BE0100000108000000000025
:101B60002DE9FF4F244C064681B020689A469346E3
:101B700050B1017AB14203D9406850F8260038B11B
:101B8000032005B0BDE8F08FA5211820FFF7D0F89D
:101B90001946029817F0EDFA804658460E9917F04C
:101BA000DEFA054608EB0500001D87B22068A14655
:101BB0003946006817F010FA04001AD067802580B3
:101BC0002946201D0E9D07465A460923009517F009
:101BD00079F92088414638440A23029ACDF800A0BA
:101BE00017F070F9D9F80000406840F8264000204E
:101BF000C7E70120C5E700006400002070B5144C61
:101C000023688BB1197A814212D95A6852F8201090
:101C100071B1002542F820504A88186817F034FA4C
:101C2000216800200A7A0BE0C6211820FFF780F80F
:101C3000032070BD4B6853F8203033B9401CC0B24C
:101C40008242F7D8086817F014FA002070BD00002F
:101C5000640000202DE9F0410D46040090464FF04D
:101C6000000606D00027A00705D086211820FFF720
:101C70005FF80127F7E7CDB11146002017F0DDF935
:101C80000C3000EB85068FB90A4F04F10C00AA0056
:101C90003C602572606000EB850020600021606878
:101CA0001CF097FF4146386817F0C7F93046BDE889
:101CB000F08100006400002070B5084D28680028FD
:101CC0000AD0002404E02046FFF798FF641CE4B229
:101CD0002868007AA042F6D870BD00006400002099
:101CE000094910B502460968002049B10B7A9342B0
:101CF00005D9496851F82210002900D0081D10BDEF
:101D0000EC211820FFF714F8640000200A4910B5F0
:101D100002460968002059B10B7A934207D94968F5
:101D200051F82210002902D031F8040B084410BDEC
:101D3000FA211820FEF7FCFF64000020FEB50646DD
:101D40004418C81800210DE05EB100910191029184
:101D5000E51800952560019F67609DF8087027725F
:101D60002C461844521E1204120CEDD1002E11D034
:101D700000910191029108490A6800924A68019213
:101D8000097A8DF8081000992160019961609DF829
:101D900008102172FEBD0000D2EC01002DE9F041D7
:101DA0001C4E456804460022A1B101206070708875
:101DB0008308002004EB400104EB80060A830B84B7
:101DC00000FB035171602118401C0A750428F1D3EF
:101DD000BDE8F0816270002004EB40010A830A84B0
:101DE00004EB80014A602118401C0A750428F3D3D3
:101DF000708817F091FA0746708817F094FA6560BA
:101E000020842918A1606784E560A0842161E784AB
:101E1000DEE70000680000202DE9F04768B10026E9
:101E20001144DFF89C80CFB2002488F8007081074D
:101E300005D04E210920FEF77BFF0126F0E71F2B7E
:101E400004D84FF6FF7101EA830509E05900FF2B22
:101E50000CD903F1FF02B2EB430F00D211468DB251
:101E60004FF6FC71ED1C0D4036B109E07C22B2EB5F
:101E7000430FF4D37C21F2E7C8F80400A8F802501D
:101E800007EB870104EBC10200214FF001090FE0CD
:101E90005EB9D8F8044001EB810300EB020C04F8B2
:101EA000339004EBC303C3F804C0491C2A44C9B2ED
:101EB000B942EDD3D21D22F00700BDE8F087000043
:101EC0006800002070B511480024214602780CE01B
:101ED000456801EB810315F8333023B101EB810133
:101EE00005EBC10403E0491CC9B29142F0D344B1EF
:101EF0000025A57001212046FFF750FF25702046E0
:101F000070BDA9210920FEF713FF00006800002022
:101F1000044810B54088840817F005FA844200D3BD
:101F2000204610BD6800002001484078704700003E
:101F300070000020014840687047000070000020D9
:101F40002DE9F8430C46074616462E2110460D464D
:101F5000224617F000F8804657B1384641463246CF
:101F60002B46009416F0AEFF03484760047046709D
:101F70004046BDE8F8830000700000200248427827
:101F800001784068FFF7DCBF700000202DE9F843BE
:101F90000F4604461646F720052116F0DCFF4FF6E3
:101FA000FC71C01C00EA0105DCB1A00703D095213B
:101FB0001920FEF7BDFE0D48804604608580002490
:101FC0000DE0B8F80400D8F80010F72204FB001068
:101FD00029460523009616F075FF641CA4B2BC4286
:101FE000EFD307FB05F0BDE8F88300007800002080
:101FF0007FB50E4602991D464A0701D0890703D0D6
:102000001F214C20FEF794FE01464FF487720020FA
:1020100017F0F2F8044606FB04F10DB1002000E0D1
:1020200002A817F00AF8002D03D10349029AC1E96A
:10203000002404B070BD000080000020024B014667
:10204000D3E9000217F020B88000002030B50D4918
:1020500001204860821EC1F808230B4988600023D4
:10206000C1F80032C1F80823084C2360251D286000
:102070008860C1F808232360286006490448086086
:1020800030BD000000E0004000F0004000F50040DE
:102090000000F63F08F5014010B5FFF7D7FF17F035
:1020A0001BFA03490148086010BD00000000F63F1C
:1020B00008F5014010B5FFF7C9FF17F00DFA00F061
:1020C00081F803490148086010BD00000000F63F98
:1020D00008F501402DE9F84F824637481CF052FCC4
:1020E000DFF8D4B028B101260BF10100FF21017007
:1020F00000E000264FF48075304C4FF000082F1D93
:1021000001216160C4F80081C4F80481C4F804A509
:102110002160DFF8AC901CE0D9F80000C00618D5AB
:102120000E2017F0E8F9EFF31080009072B603214B
:102130002046C4F80413294617F0EAF930B93946A5
:10214000204617F0E5F908B91CF0B3FC009800B977
:1021500062B62946204617F0DBF928B939462046F1
:1021600017F0D6F90028D7D03946204617F0D0F915
:102170000028C5D10025E6B99BF801008DF80000C4
:10218000009800909DF8000008B1012500E00025AE
:102190000BF1010181F800800321C4F80813C4F891
:1021A0000481C4F800810E2017F0A5F902481CF044
:1021B00000FC2846BDE8F88F1406002000E000402F
:1021C00010ED00E010B506481CF0EFFB18B130210F
:1021D0001D20FEF7ADFD02480021417010BD00003A
:1021E0001406002005498A8E824218BF70470020DD
:1021F00081F832004FF6FF70888670476A1B002016
:102200000648074A818E5288914205D190F83200E3
:1022100000281CBF00207047012070476A1B002067
:102220000806002001494880704700000806002089
:102230000848094A818E5288914209D14FF6FF71B0
:10224000818610F8321F19B10021017001207047FA
:10225000002070476A1B002008060020074901F192
:10226000320091F83220012A04BF00207047012279
:102270000270034800888886104670476A1B002059
:10228000080600200749084B8A8E5B889A4206D1CF
:1022900091F83220002A1EBF016001207047002003
:1022A000704700006A1B00200806002009498A8E3A
:1022B000A2F57F43FF3B03D0002101600846704731
:1022C00091F832200349012A1ABF01600120002041
:1022D000704700006A1B0020014908807047000019
:1022E000080600200549002081F832004FF6FF70F3
:1022F0008886034908804880704700006A1B0020D8
:10230000080600200549002081F832004FF6FF70D2
:102310008886034908804880704700006A1B0020B7
:10232000080600200A4A10B1012807D00EE05078B4
:1023300060B1D2F802000860D08804E0107828B1BB
:10234000906808609089888001207047002070475D
:1023500016060020094A012340B1012818BF704722
:10236000137008689060888890817047537008687F
:10237000C2F802008888D08070470000160600204E
:10238000064910B1012803D006E0487810B903E0EF
:10239000087808B101207047002070471606002019
:1023A0000149087670470000C21200200148807879
:1023B00070470000880000200148C0787047000086
:1023C0008800002070B50D460B4906460B4C0948A5
:1023D0000860207818B1DE212720FEF7A9FC084903
:1023E000002008760121074817F0A2FEC4E90B651A
:1023F00070BD000044320000CC00002088000020A6
:10240000C21200209012002001490120487170473B
:10241000880000202DE9F84FFE4DDDF828C02C780B
:10242000002C6DD1002A1CBF002BBCF1000F67D01F
:10243000C5F81CC0C5E90F014FF00009C5E9052327
:1024400085F8059085F8049085F8029085F801904C
:1024500085F80390DFF8C083A5F80C90A5F80E90DE
:10246000D8F8040000F1A806044610F093FD10F01F
:1024700055F894F9720010F029FE206A11F056F810
:10248000A06911F049F896F8330011F08DF898F82A
:102490000000002839D0042015F084FF616941F65E
:1024A0004C50814228BF962003D2012011F01CF825
:1024B0004D2010F077FCD8F8040090F8E0020028D6
:1024C00018BF10F05FFC94F86F10012010F09EFA16
:1024D000002808BFBDE8F88FD048006810F0E0FB86
:1024E0002088FFF713FC68632088FFF7F9FBA863D7
:1024F00094F87B008DF800009DF8000080BB1DE083
:1025000040F253112720FEF713FC032015F04AFF79
:10251000616941F64C50814228BF962003D20120C8
:1025200010F0E2FF4D2010F03DFC94F86E100020FA
:1025300010F06CFA0028CFD1BDE8F88F606F78B149
:10254000B6F84E00B18A88420AD1B4F87810012258
:102550000844A6F84E0094F87A00616F14F094FBDA
:1025600006F19000DFF8B8A20FC88AE80F00D6F88D
:10257000A000CAF81900D6F8A400CAF81D00D8F8BF
:102580000400012700F1A80290F8C51026291EBFFB
:10259000272992F81EC0BCF1260F0BD04FF008027D
:1025A0004FF00203212918BF22292DD0BCF1240F9E
:1025B00051D080E098F80010002990F86E1012D0E9
:1025C00090F8C60300287AD0082918BF04296FD0D4
:1025D000082818BF04286BD0012918BF012856D03D
:1025E0004FF002016BE090F82203002867D0082921
:1025F00018BF04295CD0082818BF042858D0012926
:1026000018BF012843D0EBE7BCF1240F23D098F882
:102610000010E9B390F86E1090F8760110F0040FF6
:1026200018BF10460CD0082918BF042940D008282C
:1026300018BF04283CD0012918BF012827D0CFE7B4
:1026400010F0010F18BF3846EDD110F0020F18BF7F
:102650001846E8D133E098F80010C9B190F86E1030
:1026600090F876C190F867000CEA000010F0040FB3
:1026700018BF104610D0082918BF042918D0082800
:1026800018BF042814D0012918BF0128A8D100E0E0
:1026900011E04FF0010112E010F0010F18BF3846B1
:1026A000E9D110F0020F18BF1846E4D107E0FFE7A8
:1026B0004FF0080103E090F86E100429F8D0A08FC5
:1026C00011F00C0F18BF4FF4296017F096F8218F06
:1026D000814238BF08464F49887194F86F1004F161
:1026E000300017F0E8FD94F86F1096F823B0B4F8B6
:1026F0004050082938D017F080F800BFBBF1000F18
:1027000004BF001D80B2854238BF2846C5B2DFF83D
:1027100004B18BF8075002F02FF810B12B2D98BFA1
:102720002B252A468BF8085098F8000000B396F83D
:102730002300E8B38AF81870D6E92201CAE9040137
:1027400094F86F100120012908BF002343D002290B
:1027500008BF01233FD0042908BF03233BD0082929
:1027600008BF022337D027E0042117F046F8C5E759
:1027700096F8220058B38AF81870D6E92001CAE901
:102780000401616941F64C5081422CBF00200420B5
:1027900094F86E10012908BF002312D0022908BF47
:1027A00001230ED0042908BF03230AD0082900E022
:1027B00016E008BF022304D040F2C5310620FEF720
:1027C000B7FAFB221649CDF800900FF0ABFD0120BF
:1027D00000F034FC07E01249CDF800900FF0A2FDA4
:1027E000012000F0CDFB0F480068032818BF0B281C
:1027F0001CD0CAF85A90CAF85E90CAF862900A488B
:10280000B18A41802188018096F833100171BDE8BA
:10281000F88F000088000020C4000020CC000020B9
:102820006812002050150040C21200204FF40271BF
:102830004FF02700FEF77CFA2DE9F041204D0646C7
:102840000F461E48696A82B0406891F8018000F125
:10285000A80416F0020F15D0A86A48B36A89D21CE2
:102860001CF03DF9A86A686201AA6946A86B16F0D7
:1028700097FA009816F02EFA386001224146A86BAC
:1028800016F0DFF916F0010F04BF02B0BDE8F081C9
:10289000D4E92202411C42F10000C4E92210207E4A
:1028A00001280CBF00200120207602B0BDE8F08195
:1028B00040F25F412720FEF73BFA0000C4000020F1
:1028C000880000200248C089C0F3802070470000C3
:1028D000880000200448007800281CBF0C207047A6
:1028E000002002490876704788000020C2120020AC
:1028F00038B51A48017800F13C0449B121780078D4
:1029000049B102280ED04FF409712720FEF710FAC2
:1029100000F096FA0BE0012809D04FF40871272047
:10292000FEF706FA6068D0F8F80210F0CFF9606898
:1029300090F87B108DF800109DF80010002918BF4A
:1029400038BD416F002908BF38BD90F87A00BDE856
:1029500038400022114614F097B90000880000208A
:10296000322008700648D0F86620C1F80320D0F85D
:102970006A20C1F80720D0F86E00C1F80B0070473C
:1029800068120020012984BF0120704770B51B4CDC
:102990000546A169884700282CD0207950BB04F156
:1029A0003C000178002908BF012D01D021B31DBBD7
:1029B0001348027812F0100F06D1E06A007810F088
:1029C000100F08BF012001D04FF00000A36A23B907
:1029D000638913B112F0100F0CD000291CBF217BAA
:1029E00011F0020F03D0216AC978022904D0A1890D
:1029F000084301D0012070BD002070BD8800002078
:102A0000980000202DE9F34FDFF8108383468BB048
:102A1000D8F804004FF0000AA8F13C0400F1A80720
:102A20008DF814A0CDF818A020785646D14602287B
:102A300004D040F2E2412720FEF77AF9A07B10F0A3
:102A4000400F07D14020626900219047E08940F0A3
:102A50004000E08197F82300BBF1000F00F0D38025
:102A6000A0B10FF099FD0FF073FD78B9606A41785D
:102A700061B10078397EC0F3C000884206D10120E0
:102A8000607000F0DDF90DB0BDE8F08F606A41784C
:102A90006181002908BFA66203D0A06B16F069FA15
:102AA000A062E08940F48070E081606AF97D00787E
:102AB000C0F38000884208BF4FF0010A47D0D8F821
:102AC000040006A900F1A80590F8BE0000283AD03D
:102AD00002280BD1606B16F08CF800284BD0D5E99A
:102AE0002001401C41F10001C5E92001AE7598F8B4
:102AF000000000281CBFA87C002809D0AE74A28961
:102B0000314642F01002A28162694FF010009047F6
:102B1000687C90B16E74FFF78BFB90B3A28908209C
:102B200042F00802A281626900219047D5E92002A3
:102B3000411C42F10000C5E92010E87D01280EBFCC
:102B4000EE750120E875E08940F48060E081606AFC
:102B5000397E0078C0F3C000884222D101F00CFE1B
:102B6000B8B1616AE0790A7802F00302012A18BF5D
:102B7000022A0BD00DE040F2DD314FF02700FEF7C6
:102B8000D7F84FF47D712720FEF7D2F849788142BB
:102B900003D805A800F098F903E0207940F0100070
:102BA000207197F8220000283FD098F80010D8F83C
:102BB000040000290CBF0122002259490A76D7E9F6
:102BC0002023C1E90423416941F64C52914234BFAC
:102BD0004FF0040C4FF0000C90F86E00012808BF75
:102BE00000231CD0022808BF012318D0042808BFE6
:102BF000032314D0082808BF022310D040F2C531A7
:102C00000620FEF795F8002818BF0FF0BFFCA0784B
:102C1000401CA070E08940F40070E081C1E7FB2215
:102C20003F49604600960FF07DFB0C98002520B9C7
:102C3000A1780120FFF7A6FE18B110F05BFC01257A
:102C400002E0002000F0FAF99DF81400C0B1616ABA
:102C500048780090A06AD0B16289D21C1BF03FFF77
:102C6000A06A606209AA08A9A06B16F099F80898F2
:102C700016F030F881460122A06B009915F0E1FFB3
:102C8000B98A2848BAF1000F17D029B10FE040F2F5
:102C90005F412720FEF74CF898F8001039B1B0F8E2
:102CA0000510002904BFB0F80710002905D0B0F8BE
:102CB000091001F10101A0F80910BBF1000F14BFC8
:102CC000B0F80510B0F8071001F101011ABFA0F823
:102CD0000510A670A0F80710104802F0D5F9069864
:102CE00040B115F0F7FFD8F80410401C0672082216
:102CF00001F0C8FBB9F1000F08D0D8F8041009F1B1
:102D0000080006701022484601F0BCFB002D18BFD9
:102D100000F096F80DB0BDE8F08F0000C400002070
:102D200068120020C21200202DE9F84F424E83465F
:102D3000A6F13C0570688A4600F1A80428780128AD
:102D400004D040F26E412720FDF7F2FF207C0027DF
:102D50004FF0010968B12774AA89394642F004028C
:102D6000AA816A69042090473078002818BF84F847
:102D70001290296A4FF00308087838EA00000DD154
:102D8000A07DA0B9AA89022042F00202AA816A6944
:102D90009047286A007838EA000008D0286A40780E
:102DA00000280EBF84F816900220A07501E084F878
:102DB000168094F8230000282CD031782A7A706885
:102DC00000290CBF0121002181F001031B490B7672
:102DD000D4E9223CC1E9043C90F86F004FF0010CAB
:102DE000012808BF002310D0022808BF01230CD0FF
:102DF000042808BF032308D0082808BF022304D0F2
:102E000040F2C5310620FDF793FF0C49604600975C
:102E10000FF088FA3AEA0B0004D000210846FFF7C9
:102E2000B1FD18B1BDE8F84F00F00AB8BDE8F84FA1
:102E3000002000F0A5B80000C400002068120020A7
:102E400010B50FF06FFC0FF069FB114C00216269A7
:102E5000E08990470F4B187E98B1A3F15A00D0F843
:102E60005A10D0F85E20D0F862C0C0F86610C0F8E2
:102E70006A20C0F86EC00222074903F1190001F070
:102E800065FBE2692179607890470020207010BDD1
:102E900088000020C212002061290000084810B5F7
:102EA0000078022804D040F24E212720FDF740FF91
:102EB00004490120C872BDE81040FFF7C1BF0000FF
:102EC00088000020C212002070B52649264C012639
:102ED000496801F1A805616A0A7802F00302012A33
:102EE00018BF022A0ED0032A23D12E74E28930465D
:102EF00042F40062E281A28942F00102A281626989
:102F0000904716E04978A1B1E28942F40062E2817B
:102F1000A26A002A08BF70BDFB291DD8617900296B
:102F200008BF067005D06269BDE87040202000210E
:102F30001047287E012806BF002028762E76606A7A
:102F40004078002808BF70BDD5E92210491C40F127
:102F50000000C5E9221070BD207940F010002071FA
:102F600070BD0000C40000208800002003480078E5
:102F7000002808BF7047FFF763BF000088000020EB
:102F80002DE9F041DFF8AC800746A8F13C04D8F801
:102F90000450E06A606295F8CB10207A05F1A8062B
:102FA00000291CBF001DC0B22249002F496891F8BA
:102FB0006F1002BFFF2895F86E20914201D010F0EB
:102FC000BBFA96F82300A8B1206B10F08BF898F8A4
:102FD000000000280CBF0120002080F001011648ED
:102FE0000176D6E92212C0E90412216B606A0FF063
:102FF00035FA04E0606A10F075F80FF08FFA3FB907
:1030000095F86F0010F00C0018BF28200FF094FE08
:10301000686941F64C51884295F86E204FF00001E6
:1030200034BF0120002010F0FBF902202070BDE821
:10303000F0810000C4000020681200202DE9F04F4C
:10304000DFF8F4A183B0AAF11C09DAF804504FF0BC
:1030500000088DF80080A9F1200495F8CB10227AA1
:1030600005F1A80600291CBF111DCAB2724900282B
:10307000496891F86E1002BFFF2A95F86F008842E8
:1030800003D04FF0FF0010F057FAB07DDFF8ACB17D
:10309000012750B1012830D0022841D003284FD059
:1030A00040F2FF212720FDF743FEA079ADF8040090
:1030B000A5F854004846FFF7E5F8A0B1A289216AB7
:1030C00042F08002A2816269802090477774D9F82B
:1030D0000000C0781B283CD14FF0010105F1100021
:1030E00010F032FD35E06A4601A9606B15F0C0FEB4
:1030F000206210B196F8611011B1C4F820B028E038
:103100009DF8001031B9A0F8008080F802800121FC
:1031100017F00EF8BDF80410206A16F045FF18E00D
:10312000B5F85400ADF804006A4601A9606B15F0CB
:103130009FFE206268B940F2E9212720FDF7F8FDE3
:103140004846FFF79FF868B3D9F80000C0781B28FD
:10315000C2D0206A4FF008034FF00309017801F054
:10316000F7010170F27D03EAC20241EA020101F0B7
:10317000FB010170327E4FF0040303EA820241EA50
:10318000020101F0EF01017039EA010104BFC078CA
:10319000022815D0606B15F045FE002818BFB84610
:1031A00005D00DE040F2F2212720FDF7C1FD206A95
:1031B000007839EA000003D0FFF722F880F0010818
:1031C000206A017841EA0811017096F8221000295E
:1031D0001CBF4178002913D0206B0FF083FF9AF8B1
:1031E000000000280CBF0121002115480176D6E916
:1031F0002012C0E90412216A206B0FF02FF903E0BE
:103200000FF070FF0FF08AF9686941F64C5188425F
:1032100095F86F204FF0010134BF0120002010F01D
:10322000FFF8E770206A018821828078A0742770F7
:1032300003B0BDE8F08F0000C40000209012002011
:10324000681200209D2E0000052A0000292D000094
:103250006D2F00000246074810B5007838B10648C7
:10326000417821B1801C0EF099FF012010BD002093
:1032700010BD00000C060020A01B002004494A7865
:10328000824286BF084490F8420100207047000047
:10329000A01B002004494A78824286BF084490F867
:1032A0004A01002070470000A01B002004494A7812
:1032B000824286BF01EB0010823000207047000080
:1032C000A01B0020054A01EB410102EB410102680D
:1032D000C1F80A218088A1F80E017047A01B0020C8
:1032E0002DE9F041134C064600256078002898BF70
:1032F000BDE8F081C0B2A84214D904EB05108230B9
:1033000010D0611991F8421161B905EB450104EB48
:10331000410707F58571324616F02FF9B7F80E010F
:10332000A7F80E01681CC5B26078A842E2D8BDE8D3
:10333000F0810000A01B00202DE9F0410E46074659
:1033400015460621304600F003FD1A4C98B161780D
:1033500071B104F2391011F0010F18BF00F8015FCC
:103360006178490804D0457000F8025F491EFAD11F
:103370000120BDE8F0813846314600F04BFA0828BC
:1033800014D063780021002B10D9621892F8022122
:10339000824207D1082909D0601880F83A510120EB
:1033A000BDE8F081491CC9B28B42EED80020BDE8CF
:1033B000F0810000A01B002004494A78824286BFA9
:1033C00001EB0010801C002070470000A01B0020B3
:1033D00008494A78824203D90A1892F842210AB170
:1033E0000020704700EB400001EB400000F58570C5
:1033F00070470000A01B002010B54FF4C5720021DB
:1034000005481BF0E6FB05480021017041704FF4B0
:103410006171418010BD0000A01B00200C0600203F
:1034200001490870704700000C0600200148007830
:10343000704700000C06002070B50C4605460FF0E2
:1034400035F90EF0C3FE0A482A46007868B1094BE8
:10345000597851B1002C0CBF03F18200981C0EF07A
:103460009DFE0EF0DDFE012070BD002070BD00004D
:103470000C060020A01B00200B4B93F801C08445D4
:103480009CBF00207047184490F80201C0EBC000B8
:10349000184490F852310B70D0F853111160B0F805
:1034A0005701908001207047A01B002010B500F04C
:1034B000B1F9082808BF10BD01460B4A002092F858
:1034C00001C0BCF1000F0CD9131893F802318B42E4
:1034D00003D1082818BF10BD03E0401CC0B28445CA
:1034E000F2D8082010BD0000A01B00202DE9F047F5
:1034F000984691460F46064600F08CF92C4C05463E
:10350000082817D062780020002A0ED9211891F8D7
:103510000231AB4205D108281CBF1220BDE8F0875C
:1035200003E0401CC0B28242F0D8082A3DD2082DE8
:1035300003D016E06278082A37D22578681C2070FC
:10354000082D03D343212820FDF7F2FBC5EBC5006E
:1035500020443968C0F85311B988A0F8571180F891
:10356000526166781022701C607004EB0617B81C5C
:10357000494600F097FB07F182001022414600F017
:1035800091FB1021404600F0E3FB3444102184F805
:103590004201484600F0DCFB84F84A0184F80251FD
:1035A000002084F83A01BDE8F0870720BDE8F087E5
:1035B000A01B00204C484178491E4FFA81FCBCF109
:1035C000000FB8BF704770B441780CF0FF04491E7B
:1035D000C9B2417050FA8CF292F802318C423DD05F
:1035E00000EB011500EB0412D5F80260C2F802608E
:1035F000D5F80660C2F80660D5F80A60C2F80A601D
:10360000D5F80E60C2F80E60D5F88260C2F882600C
:10361000D5F88660C2F88660D5F88A60C2F88A60FC
:10362000D5F88E50C2F88E504518021901EB4101B1
:1036300095F8026104EB440400EB410182F8026159
:1036400000EB4404D1F80A61C4F80A61B1F80E1124
:10365000A4F80E1195F83A1182F83A114278002137
:10366000002A0BD9441894F802519D4202D108292E
:103670002BD103E0491CC9B28A42F3D80178491E14
:10368000C9B20170994220D0C1EBC101C3EBC302A2
:1036900001440244D1F85241C2F85241B1F85641B6
:1036A000A2F8564191F8581182F8581144780278DE
:1036B0000021002C09D9451895F8025195420ED1E8
:1036C00008291CBF014481F80231ACF101014FFA15
:1036D00081FCBCF1000FBFF677AF70BC7047491C8E
:1036E000C9B28C42E7D8F0E7A01B002010B500F06B
:1036F00091F8082816D00C4A014600205378002B78
:1037000010D900BF02EB000C9CF802C18C4505D11A
:10371000082807D000F0C4F8012010BD401CC0B23A
:103720008342EFD8002010BDA01B002002460648AF
:1037300010B500EB0110012182300EF02FFDBDE825
:1037400010400EF06DBD0000A01B00200148408815
:10375000704700000C06002038B14AF2B8118842C8
:1037600003D80349488001207047002070470000BB
:103770000C06002070B5012516462C4600F04AF8CC
:10378000082821D0144900234A78002A1CD900BFF8
:1037900001EB030C9CF802C1844518D1082B13D00F
:1037A000002E18BF3370487898420DD901EB0310F2
:1037B00010F1020F08D0C81890F84A4190F83A0169
:1037C00001280CBF0125002545EA040070BD5B1CE3
:1037D000DBB29A42DCD8F7E7A01B002006494A7802
:1037E000824206D9084490F83A01002804BF01201B
:1037F0007047002070470000A01B0020014840785F
:10380000704700000C060020014948707047000016
:103810000C0600202DE9F00F204B0246002093F803
:103820000080B8F1000F35D90F784E788D78CC78BC
:1038300091F804C091F805A0C0EBC001194491F8BB
:10384000529191F853B182EA090987EA0B0BD944E6
:1038500091F854B186EA0B0BD94491F855B185EA39
:103860000B0BD94491F856B184EA0B0BD94491F86B
:1038700057B191F858118CEA0B0BD9448AEA01012F
:1038800011EB090F04BFBDE8F00F7047401CC0B238
:103890008045D1D8BDE8F00F08207047A01B00205C
:1038A00070B447490C184A78521ED3B24B7094F842
:1038B000022198423DD001EB001501EB031C00EB07
:1038C0004000DCF80260C5F80260DCF80660C5F86C
:1038D0000660DCF80A60C5F80A60DCF80E60C5F81E
:1038E0000E60DCF88260C5F88260DCF88660C5F89E
:1038F0008660DCF88A60C5F88A60DCF88EC0C5F89E
:103900008EC001EB030C03EB43039CF8025101EB67
:10391000430384F8025101EB4000D3F80A51C0F888
:103920000A51B3F80E31A0F80E319CF83A0184F830
:103930003A014C780020002C0DD90B1893F802C1E5
:10394000944504D108281CBF70BC704703E0401C9C
:10395000C0B28442F1D80878401EC0B208709042CC
:1039600004BF70BC7047C2EBC203C0EBC000084488
:103970000B44D0F852C1C3F852C1B0F856C1A3F8F5
:1039800056C190F8580183F858014C780B78002004
:10399000002C9CBF70BC704701EB000C9CF802C16E
:1039A0009C4506D108281CBF084480F8022170BC41
:1039B0007047401CC0B28442EED870BC7047000013
:1039C000A01B002070B50446002571B1504A0129A2
:1039D00033D002296BD0032918BF70BD04F1CE018A
:1039E000BDE87040CD3015F0C2BF4FF45A720021CF
:1039F0001BF0EFF8012284F8CD20464AC4F81A21C2
:103A00000722C4F81E2194F81A21FE2122F0040294
:103A100084F81A2184F856117F2184F8C11004F12A
:103A2000A8003D49C4F8B0100022C0F8B850C0E961
:103A30000022202084F8090370BD60693749B2FB79
:103A4000F0F20144B1FBF0F1C4F8F01040F6B831E7
:103A5000A4F8F410E38BA4F8FA50B4F8FEC0521C9A
:103A60000CFB00FCBCFBF0FCA4F8FEC040F2712C87
:103A700003FB0CF300EB03135B1EB3FBF0F3A4F8A2
:103A8000FC30A4F80221264A04F1A80100EB02123E
:103A9000521EB2FBF0F28A644A6C4243B2FBF0F071
:103AA0004864BDE870402631481E15F060BFD4F868
:103AB0003013B4F836C3636904F1A800A4F8FA50CF
:103AC000B4F8FE40B2FBF1F25C43B4FBF1F4A0F8B1
:103AD000564040F271240CFB04FC01EB0C1CACF1D1
:103AE000010CBCFBF1FCA0F854C0521CA0F85A20F9
:103AF000B0F84C20624301EB0212521EB2FBF1F20D
:103B00008264426C5A43B2FBF1F1416470BD000023
:103B1000005A62022F4904C400E0FCFF7FC3C901C0
:103B2000389C1C0070B501260446002571B1584A26
:103B3000012932D002297BD0032918BF70BD04F1BE
:103B4000CE01BDE87040CD3015F011BF4FF47E724C
:103B500000211BF03EF884F8CD604E4AC4F81A21CB
:103B60000722C4F81E2194F81A21FE2122F0040233
:103B700084F81A2184F856117F2184F8C11046492F
:103B800004F1A800C4F8B0100021C0F8B850C0E992
:103B90000011202084F86C0370BDA4F8FE5284F854
:103BA000F35260693D49B2FBF0F20144B1FBF0F120
:103BB000C4F8F01040F6B831A4F8F410E38BA4F880
:103BC000FA50B4F8FEC0521C0CFB00FCBCFBF0FC2D
:103BD000A4F8FEC040F2712C03FB0CF300EB0313BE
:103BE0005B1EB3FBF0F3A4F8FC30A4F802212C4ACE
:103BF00004F1A80100EB0212521EB2FBF0F28A643B
:103C00004A6C4243B2FBF0F048642631481E15F07E
:103C1000AEFE1AF02AFF38B1A0690DF083F8002833
:103C200004BF84F8E06270BD84F8E05270BDFFE725
:103C3000D4F8CC13B4F8D2C3636904F1A800A4F893
:103C4000FA50B4F8FE40B2FBF1F25C43B4FBF1F47D
:103C5000A0F8564040F271240CFB04FC01EB0C1C54
:103C6000ACF1010CBCFBF1FCA0F854C0521CA0F854
:103C70005A20B0F84C20624301EB0212521EB2FBF4
:103C8000F1F28264426C5A43B2FBF1F1416470BDBF
:103C9000005A62022F4904C400E0FCFF7FC3C9013F
:103CA000389C1C00002A08BF70471144401E12F0C7
:103CB000010F03D011F8013D00F8013F520808BF81
:103CC000704700BF11F8013C437011F8023D00F845
:103CD000023F521EF6D1704741F64C5291423DBF11
:103CE0000549A1FB0010400940F2E24128BFB0FBAA
:103CF000F1F080B2704700001F85EB5141F64C5245
:103D0000914209D20849A1FB002149096FF018022C
:103D1000514300EB810105E040F2E241B0FBF1F2DA
:103D200001FB1201401A70471F85EB5141F64C52BE
:103D300091423DBF0549A1FB0010400940F2E2411C
:103D400028BFB0FBF1F0C0B2704700001F85EB51F7
:103D500030B40022A1F1010CBCF1000F12DD431EB2
:103D600011F0010F08BF13F8012F5C785FEA6C0CAB
:103D700008D000BF13F8025F22435C782A43BCF1ED
:103D8000010CF7D1491E5CBF405C0243002A0CBF06
:103D90000120002030BC7047074991F90010084409
:103DA0001428C4BF1420704710F17F0FB4BF6FF008
:103DB0007E0040B27047000024060020024A002125
:103DC00011705170704700002406002008B57F2054
:103DD0008DF8000068460FF095FB002804BF9DF9A0
:103DE000000008BD9DF9001007484078404240B2ED
:103DF00008441428C4BF142008BD10F17F0FB4BFBD
:103E00006FF07E0040B208BD24060020074908B5C7
:103E100009788DF800109DF8001000291CBF0020C3
:103E200008BD03491AF03FFB012008BD260600200B
:103E30002706002010B508A182B0D1E90001CDE924
:103E400000016946064CFF202070601C1AF02BFB15
:103E50000020207002B010BDFFFFFFFF1F00000018
:103E60002606002010B5054CFF2121700146601C7C
:103E70001AF019FB0020207010BD0000260600205B
:103E800070B581EA11418BB2C47A83EA0201002243
:103E900001F0FF0C090A91FAA1F19CFAACFC090EA1
:103EA0004FEA1C6C4CEA012101EB011C521C0CEB8B
:103EB0000301D2B289B2032AEAD381EA0302DFF80E
:103EC00088C000216346E2FB0C3109096FF024032E
:103ED00001FB0321C9B200EBD10301F0070C5D78AF
:103EE000012303FA0CFC15EA0C0F1CBF084670BD39
:103EF00004FB02F1090C491CC9B24FF0000C00BFD1
:103F000000EB0C04A2798A4227BF00226478891A48
:103F1000C9B20AD303FA02F52C421CBF491EC9B22A
:103F200071B1521CD2B2082AF4D30CF1010202F092
:103F3000FF0CBCF1050FE3D39D214620FCF7F8FEF2
:103F400002EBCC00C0B270BD53E4B36E70B5044652
:103F500090F8300008B1252801D9122070BD002A40
:103F600004BF002070BD94F8250010B1012851D085
:103F700048E094F8320094F831102B4B01FB02001A
:103F800000251A462946E0FB032109096FF02402A7
:103F900001FB0200C0B204EBD00284F8320000F052
:103FA000070192F82620012303FA01F10A421EBFFD
:103FB00084F83300284670BD94F83010B0FBF1F25D
:103FC00001FB1200401CC1B25FF0000004EB000CCA
:103FD0009CF82B208A4227BF00229CF826C0891A11
:103FE000C9B20BD303FA02F61CEA060F1CBF491E26
:103FF000C9B249B1521CD2B2082AF3D3401CC0B294
:104000000528E3D31F2070BD02EBC00084F8330005
:10401000284670BDA28A896904F12500FFF730FFA8
:1040200084F83300002070BD53E4B36E417841B191
:10403000C0782B2803D2044A105C884201D10120A9
:104040007047002070470000DBEC010010B5012232
:10405000C1702B293CBF064A525C06D3FF2904D00D
:1040600040F274412A20FCF763FE427010BD00004C
:10407000DBEC01000449897D01F0040108430CBF19
:1040800001200020704700008C1A00200348807D2A
:1040900010F0020F0CBF0120002070478C1A002086
:1040A0000348807D10F0010F0CBF012000207047F5
:1040B0008C1A002010B5017A81B101291CBF0020A3
:1040C00010BDC288036880885FF0010100F00CF821
:1040D000002808BF00F06CF8012010BDC2880368FA
:1040E00080880221F2E700002DE9F04385B0884680
:1040F00099461546064602A915F0D0FA00284CD17B
:104100000398002D00F1A80404BF012084F82400C6
:1041100043D03046FDF7FAFD07000CD0294614F0D5
:1041200054FE010003D021484088854207D905B0DC
:104130000020BDE8F08367212B20FCF7F9FD6A46DB
:10414000384614F03BFE009800260680867094F8EE
:104150002410002918BF4FF00208414615F0E8FF6F
:1041600000982A464946C01C1AF0B9FC2946384630
:1041700014F0E0FDA8B19DF8080060B1039890F834
:10418000F20228B1039880F8F262039817F062F8FF
:104190000398A0F8EA6284F8246005B00120BDE825
:1041A000F0837C212B20FCF7C3FD00008C1A00203B
:1041B000084882B0007A8DF800009DF800000028C1
:1041C0001CBF02B07047022202B00349014800F050
:1041D00059B90000A81A00209BA101002DE9F84F51
:1041E000DFF854A2954F83464FF001080025786808
:1041F0002E46007A8DF80000009800909DF800107F
:10420000102908D19AF8170028B1BAF81800002828
:1042100008BFBDE8F88F28463C6914B3217A8DF8B1
:104220000010009900919DF80020D2B10028F2D131
:10423000B4B3207A8DF800009DF8009004F10800D6
:1042400005210170A9F102000F2880F0E880DFE865
:1042500000F02B3945E67E7093704F4F707070B34D
:10426000D5007C68227A8DF80020009A00929DF893
:104270000030012B08BF0446D8D0EFF3108172B68E
:1042800022687A6001B962B6217A8DF8001000992F
:1042900000919DF80020002A0CBF40463C61C5E714
:1042A000FFE70020BDE8F88F626832B1594620462A
:1042B0009047042060F3070688E040F2C711102001
:1042C000FCF736FD626822B1594620469047064603
:1042D0007CE04FF4E8711020FCF72AFD616811B111
:1042E0002046884772E04FF4ED711020FCF720FD66
:1042F00053480368002B69D060684A4659460090CD
:104300009847042060F307069BF800001D2805D09D
:104310001A285BD19BF80200002857D0009804218E
:104320000089FDF725FB18B340F2EF111020FCF7D0
:10433000FFFC44480368B3B360684A46594698474F
:10434000042060F30706B9F10D0F11D03EE062685A
:1043500032B159462046904709F09EFC28B107E04B
:1043600040F215211020FCF7E3FC06F02DF8D0B147
:1043700004203D61BDE8F88F6068A8B1048820463C
:10438000FDF7C4FCA0B10D218BF80010ABF8034081
:10439000ABF805808BF80280002114F0BEFD0420EC
:1043A0003D61BDE8F88F11E0E3211020FCF7C0FC6F
:1043B000C5211020FCF7BCFC1E208BF80000D4F8AF
:1043C0000900CBF80300042060F30706C6F30720BA
:1043D000012808BF84F8089027D0EFF3108072B648
:1043E000217A8DF800109DF80010052913BF0029CF
:1043F00025723D6165F30706B8B915E012480268F9
:1044000022B1606830B100885946904702203D6172
:10441000BDE8F88F4FF411711020FCF789FC40F2D1
:104420004E211020FCF784FC62B616F0FF0F3FF41B
:10443000DEAEF0B2BDE8F88F8C1A0020BC1A002066
:10444000D8000020D4000020D00000200A4910B578
:1044500008700A48002141618161C16101624162C5
:1044600012221AF0B6FB0648012100F10C0211706D
:10447000011D4160016010BD2C060020A81A00201B
:10448000BC1A002038B5037A8DF800309DF8003052
:1044900023B140F2C6211020FCF74AFCF0B1416084
:1044A00000F108010A70EFF3108372B6DFF844C020
:1044B000C0F800C0ACF104014A6852B1127A8DF81C
:1044C0000020009A00929DF80040012C08BFC1F81E
:1044D00000C00A681060086033B904E040F2792136
:1044E0001020FCF725FC62B603480078BDE8384090
:1044F00013F056BEC01A00202C060020094810B543
:10450000002141618161C1610162416212221AF0A0
:1045100060FB0548012200F10C010A70011D416099
:10452000016010BDA81A0020BC1A002002490148F1
:1045300008607047C1450000D000002002490148D2
:1045400008607047C1450000D000002038B5037AEC
:104550008DF800309DF80030002B1CBF027238BD72
:10456000F0B1416000F108010A70EFF3108372B6F8
:10457000DFF844C0C0F800C0ACF104014A6852B191
:10458000127A8DF80020009A00929DF80040012CCC
:1045900008BFC1F800C00A681060086033B904E0C1
:1045A00040F279211020FCF7C3FB62B60348007883
:1045B000BDE8384013F0F4BDC01A00202C060020DE
:1045C00070B584B00C00054617D0A580002060723D
:1045D0002846FDF785FB064614F0D0FB010011D0FC
:1045E0006A46304614F0EAFBE08080B1FB2813D91C
:1045F0004FF490711020FCF79BFB4FF48871102052
:10460000FCF796FB40F219111020FCF791FB4FF4D8
:104610008F711020FCF78CFB009815F007FD012826
:1046200018BF022805D04FF498714FF01000FCF726
:104630007FFB2072206800B30099E288C91C1AF041
:104640004EFA304614F061FBE0B10021304614F020
:1046500064FCE0B11448C17D002904BF04B070BD02
:10466000018B491E018302A9284615F017F898B15D
:104670004FF4A5711020FCF75BFB40F237111020BE
:10468000FCF756FB4FF49E711020FCF751FB40F2F3
:1046900041111020FCF74CFB0398B0F8DC10491CCA
:1046A000A0F8DC1004B070BD8C1A002030B4A2F861
:1046B0000900B1F808C0A2F80BC08B89A2F80D3030
:1046C0004889A2F80F00CC89A2F81140CD8DA542EF
:1046D00004BF4C8D844206D10C8E9C4202BF8B8D50
:1046E0006345002301D04FF00103D3744885B2F82D
:1046F0001100C885B2F80B008885B2F80D00088655
:1047000030BC0249104615F042BD0000AD47000024
:1047100030B490F86E508C88B1F808C015F00C0FCA
:104720001BD000BFB4F5296F98BF4FF4296490F8EF
:104730006F5015F00C0F17D0BCF5296F98BF4FF4D0
:10474000296C4A88C988A0F84C20A0F85010A0F81D
:104750004E40A0F852C030BC7047002B1CBF1578EB
:1047600015F00C0FDED1E2E7002B1CBF527812F0DF
:104770000C0FE1D1E5E70000014800787047000028
:104780002D060020A2F80900888AA2F80B00C88A2A
:10479000A2F80D00088BA2F80F00488BA2F81100B8
:1047A0000149104615F0F0BCF947000038B5A0F1FA
:1047B0001605C07C0C4600F00100FFF75BFC0021F1
:1047C000002818BF009112D114202070D5F81F00C6
:1047D000C4F80200D5F82300C4F80600B5F8270095
:1047E000608195F829002073024840680090BDF868
:1047F000000038BDA049000070B586B00E460446E2
:10480000FFF744FC002570B3A4F5F5702572048809
:1048100003A9204618F097F918B1FC212C20FCF7C9
:1048200087FAADF80040BDF81200ADF80200BDF8FF
:104830001400ADF80400BDF80E00ADF80600BDF898
:104840001000ADF80800684618F0C4F9002808BF49
:10485000009504D040F205112C20FCF769FABDF850
:10486000000006B070BDFFE72F203070D4F80900BB
:10487000C6F80300D4F80D00C6F80700B4F811001C
:10488000A6F80B00014800680090E8E7A049000086
:1048900070B5B0F838C012F00C0F0CF1040C1FFA10
:1048A0008CFC4FF434751CBF05EB8C1C1FFA8CFC80
:1048B0000FD1012A04BF4FEACC0C0CF1500C06D0EA
:1048C000022A04BF4FEA8C0C0CF12C0C60D11FFAA9
:1048D0008CFC12F00C0F18BF4FF4296406D1B0F80D
:1048E0004E60B0F84A40A64238BF3446644538BFEF
:1048F000A446B0F84040241DA4B213F00C0F1CBF16
:1049000005EB8414A4B20AD1012B04BFE400503497
:1049100004D0022B04BFA4002C3439D1A4B213F06C
:104920000C0F14BF4FF42960B0F84200A04238BF0A
:1049300004461A48007898B113F00C0F18BF4FF4D2
:10494000696012D0844228BF2046044612F00C0F42
:1049500018BF4FF4696012D0844528BF6046844672
:104960000CEB04000844801D70BD012B08BF4FF400
:10497000E470E7D0022B08BFE820E3D008E0012A6A
:1049800008BF4FF4E470E7D0022A08BFE820E3D064
:104990004FF4F1710620FCF7CBF900002D06002042
:1049A000040000000400000070B51A4DA5F10804D1
:1049B00008211848FCF796FA2868002804BF6868A0
:1049C0000028F5D0D5E90001134A81EA000100FB77
:1049D00002F281EAB01080EA41204FEAF1430E4929
:1049E0004FEAF26200FB01F183EA000312EB82025C
:1049F00083EAB01080EA4320226028604FEAF16128
:104A00004FEAF34001EB81016860616008BF002953
:104A1000D8D070BDE4000020BB79379E094A0A480F
:104A2000D2E9001348434B4083EAB11181EA4321A4
:104A300011604FEAF0604FEAF34100EB80005160F3
:104A400070470000DC000020BB79379E094A0A4805
:104A5000D2E9001348434B4083EAB11181EA432174
:104A600011604FEAF0604FEAF34100EB80005160C3
:104A700070470000E4000020BB79379E40F34E01F0
:104A8000484080B220F0AA010D4A21F42A4102EAEE
:104A90005000084420F0CC010A4A21F44C4102EABB
:104AA0009000084420F0F0016FF0F00221F4704112
:104AB00002EA1010084400EB1020C0B2704700005A
:104AC00055D5FFFF33F3FFFFF8B50C46A0F13606CE
:104AD000A0F1DE0130F8020C002500281CBF8DF883
:104AE00001508DF8005035D11C480F88016800290D
:104AF0001CBF304688471A48016800291CBF384649
:104B000088470A202070A570A4F8037096F83F002B
:104B100060713846FDF7E4F814F067F860B1384684
:104B2000FDF760FB00213846FCF722FF01213846E3
:104B3000FCF71EFF20B108E07F216320FCF7F8F8A6
:104B400008480068002818BF80478DF801500420ED
:104B50008DF80000BDF80000F8BD0000EC0000205A
:104B6000F4000020F000002070B5044640680D46B7
:104B7000012390F8C6200021A83014F0C4FD0028BD
:104B800004BF012070BD284615F0D1F902466068C7
:104B9000A0F8C4236068B0F8BC10511A09B247F6F7
:104BA000FE728A42A8BF002909DD00F2C6312846FC
:104BB00015F0B5F961680B2081F8C60007E02821DF
:104BC00080F8E71060680349DE3015F0DDFA002058
:104BD00070BD0000C94A000070B5044640680D462B
:104BE000012390F8C6200021A83014F08CFD002885
:104BF00004BF012070BD606890F87310284615F05E
:104C000099F9002838D06068B5F80D10A0F8C413E1
:104C10006068B0F8BC20891A09B247F6FE728A4271
:104C2000A8BF00292EDD284615F0B1F914F04EFD7D
:104C3000064660683146C0F8CC63287914F086FED9
:104C40006168A1F8C603B5F80500314614F075FE99
:104C50006168C1F8C803284615F09CF96168A1F89D
:104C6000D003284615F099F96168A1F8D20361686C
:104C70000E2081F8C6000DE029462046BDE87040B0
:104C800015F020BC282180F8E71060680249DE306A
:104C900015F07AFA002070BDC94A000070B50446CC
:104CA00040680D46012390F8C6200021A83014F07A
:104CB0002AFD70B9606890F8C620142A09D0012333
:104CC0000521A83014F01FFD00280CBF012008208A
:104CD00070BD03216068D0F860215AB10C222046D3
:104CE00015F00BFC6168302081F8C600204615F0F5
:104CF000B3FB2DE090F80A01002804BF204615F010
:104D0000ABFB606800F54071284615F06FF96068EC
:104D100000F5A471284615F057F960680188A0F8DD
:104D2000DD13606800F2DF31284615F055F9606840
:104D300000F2E731284615F041F960680222054982
:104D400000F57570FFF79EFB6168162081F8C600BC
:104D5000002070BDCBA7010070B50446406890F8F4
:104D6000C5101C291CBF022070BD002580F8095108
:104D7000606880F80451606880F83853606890F883
:104D80000A1181B180F80A51606802220188A0F8F6
:104D9000CA1260680F4980F8C952606800F5307027
:104DA000FFF770FB10E00188A0F8CA1260680222C9
:104DB00080F8C9526168012081F8CC026068064918
:104DC00000F53070FFF75EFB606880F8C55000208A
:104DD00070BD0000B7A7010099A7010070B5027867
:104DE000002A0CBF0125002540680E1D00F1A80413
:104DF0003DB10023A27F1946204614F084FC20B167
:104E000005E0207B10F0010F01D0012070BD31685A
:104E1000124B7068194041F60702C4F87210104036
:104E2000C4F8760094F87520012142F0080284F855
:104E300075200020A4F85E0025B184F860100420DD
:104E4000A07708E094F86000401C84F86000E068F7
:104E500040F00100E060002070BD00002F4904F721
:104E600010B5041D0CF0F0FF044A41F607030240A0
:104E700001EA03002260606010BD00002F4904F7C2
:104E80002DE9F84303780746002B0CBF4FF00108CB
:104E90004FF000087E6801F1040906F1A80406F548
:104EA000E07596F8C5200721204614F02CFC002858
:104EB00004BF0120BDE8F883D9F80400D9F8001038
:104EC000194B41F6070219401040C4F87210C4F89B
:104ED000760094F87510002041F0080184F87510F0
:104EE00084F85C006077B8F1000F1CBF796881F826
:104EF0007B0195F860108DF800109DF8001081B9C5
:104F00003188A5F8621085F86100D9F8000068665C
:104F1000D9F80400A8660222044905F15800FFF7F9
:104F2000B1FA0020BDE8F8832F4904F7BFA90100BA
:104F300070B540680D1D00F1A8040CF085FF41F626
:104F40000702054B114094F872201840024062F3AA
:104F500007002860696070BD2F4904F7416882B07E
:104F600001F5E07091F820228DF800209DF80020D6
:104F7000002A1CBF02B070470988A0F862101A21ED
:104F800080F8611002220249583002B0FFF77ABA65
:104F9000BFA901002DE9F04103780E46002B0CBF9C
:104FA000012700274068082100F1A80490F8C520D7
:104FB000204614F0A8FB78B93FB10023A27F194620
:104FC000204614F0A0FB20B106E0207B10F0020F79
:104FD00002D00120BDE8F08194F863004FF0000595
:104FE00010F0020F1BD1304615F0BCF884F86D00AC
:104FF000B6F80500A4F86E00B6F80700A4F8700033
:1050000094F8630040F0020084F8630010F0010F90
:105010000AD002221B4904F16400FFF797FA94F8C2
:10502000630010F0010F24D18FB10023A27F194635
:10503000204614F068FB30B10120A07784F86000AE
:10504000A4F85E5015E049214020FBF771FEE068AE
:1050500010F0020F03D050214020FBF769FE40F012
:105060000200E06094F86000401C84F86000A4F83E
:105070005E50607F012804BF657784F85C50002093
:10508000BDE8F081B1AA01002DE9F84F4768064656
:1050900007F1A809FEF79AFE054670687F2D00F11A
:1050A000A80480F8C15008BFBDE8F88F94F8330019
:1050B000D6F80480A0764648A1688268C2F580537D
:1050C0006B43514303EB2131A160417900293DD06D
:1050D000716890F9002001F1A80AD1F8B01001F52B
:1050E0000061091349B2914207DA90F9020049427E
:1050F00049B2084400F307000AE090F901208A420F
:1051000024DA90F90300494249B2084400F3070049
:10511000E0B1DAE900016FF00042514071EA0000AD
:1051200014D019F08AFBDAE90023801A71EB03002E
:105130000CD3D6F804A00AF5E07B0DF08FFE8AF8B8
:105140006F0024490BF1A00015F024F894F91B001E
:105150000021281A48BF404298F82D20824210DCD6
:10516000FF2A0ED0207F401CC0B2207798F82E2056
:10517000904202D8E07E7F2803D10020E576207798
:10518000012197F82C00012818BFBDE8F88F0029ED
:1051900008BFBDE8F88F706890F8C8118DF800104E
:1051A0009DF8001000F5E070002918BFBDE8F88FE9
:1051B0003988A0F8091099F81910C17299F81A10D5
:1051C0000173BDE8F84F02220349FFF75BB9000005
:1051D000F8000020DD51000065AB01002DE9F04131
:1051E000A0F51875A0F5DC7482B095F86F0016F084
:1051F00054FE8046A0682E4E00F50060001396F91C
:10520000001040B2884207DA96F90210404240B2DC
:10521000084400F307070DE096F901108142A4BF8E
:1052200002B0BDE8F08196F90310404240B2084454
:1052300000F30707002F04BF02B0BDE8F0816FF054
:105240000042D4E90001514071EA000004BF02B0FD
:10525000BDE8F08119F0F1FAD4E90023801A71EB6E
:1052600003003CBF02B0BDE8F0812888694614F015
:1052700015FA18B185217A20FBF75AFD08F10100D3
:10528000C1B202233A46684616F048FE00281CBF09
:1052900002B0BDE8F08130790649A0FB015619F053
:1052A000CCFA40197141C4E9000102B0BDE8F081B7
:1052B000F800002040420F002DE9F84391F801C0AA
:1052C0000A788C784FEA1C6342EA0C2242EA0442D4
:1052D00043EA1443CC784FEA142C42EA04640A7976
:1052E00043EA0C031A434979012842EA012108BF25
:1052F00041F480310D466A46204600F095F80028BA
:105300001CBF0120BDE8F883DFF8608098F800003A
:1053100098F80110884204BF0020BDE8F8839DF88A
:105320000090484515D9D8F80410A0EB090C01EB02
:10533000C00300220CF0FF0C861A01EBC606521CBB
:1053400056E9027663E80276ACF1010C1CF0FF0C22
:10535000F2D1D8F80410401C01EBC901C1E90045A5
:1053600088F800000120BDE8F88300000401002057
:1053700010B510F0070F03D063214820FBF7D8FCCD
:1053800020B1034A5170506000201070C80010BD59
:105390000401002038B54B780A784FEA136C8C78FA
:1053A00042EA0323CA7843EA04434CEA144C43EA32
:1053B00002634CEA122291F804C0497942EA0C02D5
:1053C00042EA0121012808BF41F4803118466A46AB
:1053D00000F02AF8002808BF38BD0C480178491EA3
:1053E000C9B201709DF800208A420DD24068891A26
:1053F00000EBC200C9B20830491E70E8022311F068
:10540000FF01E0E80423F7D1012038BD04010020AA
:1054100001490020087070470401002001484078CD
:1054200070470000040100202DE9F001294E0023FF
:1054300013703378002B44D05B1EDBB24FF0000CAE
:10544000012BC8BF756810DD0CEB0304640805EB85
:10545000C407D7E90087B8EB00088F4134BFA446E2
:105460002346A3EB0C04012CEEDC766806EBCC059E
:10547000D5E9004580EA040781EA050857EA0807EC
:1054800008BF82F800C020D0041B71EB05043FBFA9
:1054900082F800C00020BDE8F001704706EBC30CA5
:1054A000DCE9004C80EA040581EA0C06354308BFBC
:1054B00013700AD0001B71EB0C0032BF1370581C24
:1054C00010700020BDE8F0017047BDE8F001012038
:1054D00070470000040100202DE9F0410446807C63
:1054E000022816BF032801260026002816BF02281E
:1054F000002701274FF0080536B194F8670004F142
:105500006801FDF7D3FF0546A078C0F34010A0B9AD
:10551000082D03D02846FDF7B1FE70B17FB367B107
:10552000607E002808BFBDE8F081D4F81300C4F8FD
:105530006100B4F81700A4F86500A67684F86070DE
:10554000E576FEF703F92A49A0FB015619F075F933
:1055500040197141C4E91601002084F86E00064626
:10556000E07EFDF7A3FE0546A07E0127002818BFB8
:10557000002D1BD0E07EFDF781FE50B116E0FFE765
:1055800004F161010020FCF7CDFE0028D5D1BDE873
:10559000F08184F86070324604F16101284613F00E
:1055A000ECFFE17E04F16100FDF78CFEA07810F0C5
:1055B000040F1AD0E07EFDF7FFFE050015D0E07E57
:1055C000FDF768FE88B984F86E70324604F16F0109
:1055D000284613F0D2FF04F16F01064CA06814F0C6
:1055E0006DFC0121A06814F070FC0120BDE8F08181
:1055F00040420F000C010020F8B504460D4628304B
:1056000015F0A2FCB4F802C0CCF3001129B1BDE83A
:10561000F8402822614601F0F1BBCCF3400100299B
:1056200014BFB4F85460B4F84C6021791D4A4FF4AB
:105630007A73082932F8112002F2E732B2FBF3F74D
:1056400008BF40230AD0042908BF102306D002292E
:1056500007BF042312220823192200E0142213FB9F
:1056600002F2082908BF402319D0042908BF2E23BD
:1056700015D0002302290CBF1821282119441144F8
:1056800011FB00716FF07F0202EBC0100144CDF8F6
:1056900000C062792B46304600F032FFF8BD4FF46F
:1056A000A871EBE7B26D00002DE9F04F80468DB098
:1056B0000C46C269D8E90501D8E90076D8E903A902
:1056C0000392CDE90101D8E90801CDE9040106A85A
:1056D00015F0B2FCA07A60F31749207860F3070751
:1056E000B4F80100ADF800009DF8000000F00101E1
:1056F000C0F3400241EA4201C0F3800241EA820164
:10570000C0F3C00241EAC201C0F3001241EA021133
:10571000C0F3401241EA4211C0F3801041EA801BFD
:10572000207D6BF31F47012818BF022803D00328F0
:1057300008BF08200ED1617860F3070611F0100F42
:105740000FD1A17D012918BF022908D0032908BF64
:10575000082104D040F2A6210620FBF7E9FA61F304
:105760000F26CAF30741012908D0617A06A815F06F
:105770003EFC207D012102280FD10BE004210828E6
:1057800008BF61F30706C6F30720082808BF61F3C6
:105790000F26EAE7607D401CC1B2A07E401CC2B269
:1057A00006A815F0BAFB380C10F0080F4FF00005F2
:1057B00023D106A815F0C8FB617811F0100F7BD03B
:1057C0002822594601F01AFB40F2712100F2DD2037
:1057D000B0FBF1F000FB01F5D4F8020040F27122B9
:1057E000000A4143D4F80500000A50438D4298BF97
:1057F0000D4602D9854288BF0546A07C60F30F297B
:10580000207E012818BF002060F3070AD8F8440062
:1058100013F095FD8346D8F8440013F03CFE834511
:1058200028BF584698B106A90891390CADF8241044
:105830008DF82C60310A8DF82D100A9508A901F019
:10584000A9F8002802BF45200DB0BDE8F08FC8F8C8
:105850000CA0C8F80070C8E90165DDE90101039AF0
:10586000C8F81090C8F81C20C8E90501DDE904015A
:10587000C8E908010698C8F82800BDF81C00A8F877
:105880002C00E07A002816BF02280020012088F8AA
:105890006700E068C8F86800208AA8F86C00E07D1E
:1058A00098F83E1060F3071188F83E100DB04FF0E5
:1058B0000000BDE8F08FFFE70346F0B220494FF447
:1058C0007A72082831F8101001F2E731B1FBF2F2D8
:1058D00008BF4FF0400C0DD0042808BF4FF0100C4B
:1058E00008D0022807BF4FF0040C12214FF0080C1B
:1058F000192100E014211CFB01F1082808BF4025F4
:105900001BD0042808BF2E2517D002280CBF182052
:1059100028202844084410FB03206FF07F0101EB8E
:10592000C3114518FCF7F4FA390C0091C6F30722AD
:105930000123294600F0E4FD46E74FF4A870E8E7AC
:10594000B26D0000114A10B500211170104CA0601A
:10595000107820B140F21D312D20FBF7E9F91160DC
:1059600051609160D160116151619161D1611162A9
:105970000CF09CFE0CF02AFCE068002818BF10BD5B
:105980004FF448712D20FBF7D3F90000D01A002006
:105990000C01002002490148C8607047E46D000016
:1059A0000C01002002494860C968096808470000E6
:1059B0000C0100200B4910B50878002818BF0C24F2
:1059C00001D0204610BD00240C604C608C60CC607F
:1059D0000C614C618C61CC610C620CF067FE0CF0C8
:1059E000F5FBEEE7D01A0020054910B5097801292A
:1059F0001CBF002010BD00F063FF002010BD0000A0
:105A0000D01A002005490448086006490448086087
:105A10000649054808607047F96B00002001002026
:105A200005740000240100206D6A00001C010020A4
:105A30002DE9F04104468078C0F3C00058B13C2302
:105A4000FF222046E16900F001FC02221E4904F118
:105A50007C00FEF717FDA0784FF0000510F0010F55
:105A600020D0E0693C2607880CF018F9A8B9217805
:105A700084F8B010A4F8B17084F8AF60607B10B9FE
:105A800084F8B35003E094F8400084F8B300022295
:105A90000E4904F1A600FEF7F5FC012084F8790018
:105AA000BDE8F0814FF6FF773C260CF0F7F80028B0
:105AB000F3D1217884F8B010A4F8B17084F8AF6005
:105AC000607B0028DFD1DBE7A5AE010039AE010025
:105AD0002DE9F041734E0F00044627D004F1280051
