:1000000000260020B91800001B9E00008D1800007B
:100010008D1800008D1800008D18000000000000F1
:10002000000000000000000000000000A512000019
:100030008D18000000000000411200008D18000023
:1000400061130000611300006113000061130000E0
:100050006113000037A40000611300006113000069
:1000600061130000611300006113000061130000C0
:1000700061130000611300006113000061130000B0
:1000800061130000611300006113000061130000A0
:1000900061130000F53900006113000061130000D6
:1000A0006113000061130000611300006113000080
:1000B0006113000061130000611300006113000070
:1000C0006113000061130000611300006113000060
:1000D0006113000061130000611300006113000050
:1000E0006113000061130000611300006113000040
:1000F0006113000061130000611300006113000030
:1001000053B94AB9002908BF00281CBF4FF0FF317E
:100110004FF0FF3000F00CB8ADF1080C6DE904CEE3
:1001200000F008F8DDF804E0DDE9022304B07047D0
:10013000704700BF2DE9F04786468C460846089E6A
:10014000154674461946002B40F0C2808542B2FA2B
:1001500082F245D94AB1C2F1200300FA02FC2EFA1C
:1001600003F3954043EA0C0C94404FEA154EA8B2B5
:10017000BCFBFEF8230C0EFB18CC08FB00F943EA8D
:100180000C43994528D9EB1808F1FF3704D299455B
:1001900002D9A8F102072B44A3EB0903A4B2B3FBD5
:1001A000FEFC0EFB1C330CFB00F044EA0344A042AF
:1001B00014D92C190CF1FF3304D2A04202D9ACF1AE
:1001C00002032C44241A43EA07401EB1D440002302
:1001D00034607360BDE8F0874746DDE76346F1E7CA
:1001E00092BB431B01214FEA154EAFB2B3FBFEFC9D
:1001F000200C0EFB1C330CFB07F840EA0343984528
:1002000062D9EB180CF1FF3004D2984502D9ACF159
:1002100002002B44A3EB0803A4B2B3FBFEFC0EFBCD
:100220001C330CFB07F744EA0344A7424ED92C19B0
:100230000CF1FF3304D2A74202D9ACF102032C44E3
:10024000E41B43EA0040C0E7C2F1200320FA03F1B7
:10025000954090402EFA03F303434FEA154EAFB298
:10026000B1FBFEFC0EFB1C10190C0CFB07F841EA5D
:100270000041884504FA02F422D969180CF1FF30D4
:1002800004D2884502D9ACF102002944A1EB08014F
:100290009BB2B1FBFEFC0EFB1C110CFB07F743EA03
:1002A00001439F420ED9EB180CF1FF3104D29F425B
:1002B00002D9ACF102012B44DB1B41EA004192E779
:1002C0006046E3E76146F7E76046A3E76346B7E7C2
:1002D000834206D916B9002108467BE7C6E900E04B
:1002E000F9E7B3FA83F78FB9834201D3724508D88F
:1002F000BEEB020460EB030301209C461EB9002103
:1003000068E73846FAE7C6E9004CF8E7C7F1200C81
:10031000BB4022FA0CF41C432EFA0CF120FA0CF329
:10032000B84001434FEA14490EFA07F5B3FBF9F858
:100330001FFA84FE09FB18300B0C08FB0EFA43EA87
:1003400000439A4502FA07F240D9E31808F1FF305A
:1003500004D29A4502D9A8F102002344A3EB0A0370
:1003600089B2B3FBF9F809FB183308FB0EFE41EA2A
:1003700003418E452CD9611808F1FF3304D28E4514
:1003800002D9A8F10203214443EA0040A0FB0298ED
:10039000A1EB0E014145CE46434602D306D14D4561
:1003A00004D2B9EB020E68EB04030138002EA6D08C
:1003B000B5EB0E0261EB030101FA0CFC22FA07F324
:1003C0004CEA0303F940C6E9003198E74046C5E727
:1003D0004346D9E730B5304891B009F0E2FA03F06E
:1003E0004FF9002806DA2D4809F0DBFA6FF0040017
:1003F00011B030BD2A48002108F034F8002801DA95
:100400002848F1E7284D4FF4806300930FCD05ACE9
:100410000FC426490D9126492B680E9105A923602A
:100420000F91012301A90022CDE9021302A80AA914
:10043000ADF828300B928DF83030049209F05CFF53
:10044000044638B101461B4809F0ABFA002C0BDA20
:100450001948C9E719496A4602A809F014FF044679
:1004600010B101461648EFE70099144807F0B8FDAF
:10047000002801DA1348B7E708F02EF8002801DA5F
:100480001148B1E7114809F08CFA00214FF40040FF
:1004900007F008F9F9E700BFD6AF0000F8AF000099
:1004A000899900000BB0000060AC000067BC000040
:1004B000CDA300002AB0000062B000000C100020A4
:1004C00044B000007AB0000096B00000AFB0000069
:1004D000014B1B68184700BF00000020014B18604B
:1004E000704700BF0000002030B585B004460D46BF
:1004F0001022002168460AF01CFA02238DF802300F
:100500002A46044B01932146684608F0F5FF05B0E2
:1005100030BD00BFD104000080B505460E46174629
:10052000984607F0EBF803460AF00CFADFF818904B
:10053000044649F80030424630463946A84754F848
:10054000090001F039FA00BF0800000038B551B3C6
:1005500002680B1F9B1AD90823F0070313445C8819
:10056000E00708D410491148AF2209F02FFCAF2151
:100570000D4809F024FC104609F020FA084432F82E
:100580003050401B814206D007490848B72209F085
:100590001DFCB721ECE724F001045C80BDE8384085
:1005A000104609F0C8BA38BDECB000000DB100002B
:1005B0002DE9F8434B1E0B4006680F46144611D038
:1005C000C1F1000909EA01094A46042A03F1FF3191
:1005D00028BF042219420CD11F46C4B90025284661
:1005E000BDE8F88304290FD8BDE8F843114609F0A7
:1005F000D3BA2B492B484FF4A27209F0E7FB2848E5
:100600004FF4A27109F0DBFB99460422E5E7B368D9
:10061000B3EBD40FE2D904F10B013944891AC908AC
:10062000304609F021FA80460028D7D009F10405A8
:1006300005EBC0057B1E35441D44B5FBF7F57D4336
:10064000A5EB09052C442B1F07349B1B24F0070442
:10065000A41BB0EBD30F4FEAD3074FEAE40408D250
:1006600001463A46304609F04CFA4146304609F018
:10067000AAF93946304609F0A1F93844844207D234
:100680003046224609F03DFA2146304609F09BF9F2
:1006900006EBC706738843F0010373809FE700BF32
:1006A000ECB000000DB10000B2F5802F2DE9F04153
:1006B0000AD33449344840F2EB1209F087FB40F288
:1006C000EB11304809F07BFB042A08D82D492E484D
:1006D0004FF4F97209F07AFB4FF4F971F1E7043A3B
:1006E000CD1D8E1825F0070526F00706761B172E60
:1006F0004FEAD60708D82349234840F2FB1209F0F5
:1007000065FB40F2FB11DCE7B7FA87F4C4F1200285
:10071000C4F12404A4000734E408631C4FF000086B
:10072000BB420560AF60C5F80C8008D91549164872
:100730004FF4037209F04AFB4FF40371C1E74146DD
:10074000920005F110000AF0F4F8630043F0010391
:100750006B8005EBC4023B1B5900A5F8008051805B
:10076000AA1925F83440A2F80280AB5305EBC70361
:1007700021465A8842F001025A802846BDE8F041DD
:1007800009F021B9ECB000000DB100002DE9F84FDF
:1007900004460846A38B1907164612D4022803F014
:1007A000070162D1204609F03BFA88B101380428DC
:1007B00000F22181DFE810F059001F017E00C40023
:1007C000F10001280CBF43F0100143F02001A18388
:1007D00004F1140005F0FCFC002800F0A98086F369
:1007E0001188BFF36F8FBDE8F88F03F00702501F29
:1007F00001281ED80020062A2768C4E9000014D169
:100800003A4603E0E08B0130E0831268002AF9D118
:1008100023F0070343F00202A283204609F000FA06
:1008200090B342F02002A2832EE023F007039AB295
:10083000F2E7042A33D123F007039AB2A2832046B9
:1008400009F0EEF910B142F02002A283A38B03F06D
:100850000709894540F0D880A18BCA0640F11E8166
:1008600021F01003A38301F00701D4F81880A38BB3
:10087000B8F1000FB9DA0022276823F00703C4E9B2
:10088000002243F00103A383A38B03F007098945EA
:1008900040F0BB80002FDFD00025AA463EE084490F
:1008A000844840F21B1209F091FA40F21B11804873
:1008B00009F085FA41B17E497E484FF4AB7209F0E8
:1008C00085FA4FF4AB71F2E7236843B97849794868
:1008D00040F2571209F07AFA40F25711E7E723691C
:1008E0001D6845B9724973484FF4AD7209F06EFA4C
:1008F0004FF4AD71DBE7A38B23F0070343F006034E
:100900009BB2A3830F4688464FF00609A268002ACF
:100910007DD1002F7ED1002D9ED0BA4643F0080332
:1009200004F1140BA383584605F052FC002873D140
:1009300061496048F02209F049FAF0215E48B7E7C2
:10094000022908D05A495B4840F25D1209F03EFA8C
:1009500040F25D11ABE7E78B47B1554955484FF47D
:10096000AF7209F033FA4FF4AF71A0E723695D6805
:1009700045B94F494F4840F2611209F027FA40F259
:10098000611194E7A38B23F0070343F004039BB2A8
:10099000A383B8464FF00409B8E7012908D04449B9
:1009A00044484FF4B27209F011FA4FF4B2717EE785
:1009B000236843B93E493F4840F2651209F006FA00
:1009C00040F2651173E723699D6845B93849394894
:1009D0004FF4B47209F0FAF94FF4B47167E7A38BDE
:1009E00023F0070343F005039BB20027A383B84617
:1009F0004FF005098AE72E492E4840F26B1209F0A4
:100A0000E5F940F26B1152E7002700257EE74FF031
:100A1000010A83E7924681E786F31188BFF36F8F5F
:100A2000BAF1000F17D14FBB15B124492046A84792
:100A30004FF02003EFF3118683F31288BFF36F8F1B
:100A4000584605F0B7FB08BB1B491A48722209F04B
:100A5000BDF9722172E7A1680029E4D00E6800296F
:100A6000E1D0D1F804A043464A462046D0471EB103
:100A7000336831461E46F2E73346FAE739464346C5
:100A80004A4620463F6809F0F7F8CCE7584605F09B
:100A9000AFFBA38B23F00803A383DDE68B067FF572
:100AA00097AE21F02003A38301F007017AE600BF8F
:100AB00025B100000DB1000047B10000C10A0000DF
:100AC000F8B504460D4600F114064FF02003EFF38D
:100AD000118783F31288BFF36F8F304605F06AFBEE
:100AE00040B90A490A48722209F070F90748722190
:100AF00009F065F9304605F07BFBA5613A462046D2
:100B00000121BDE8F840FFF741BE00BF47B100003A
:100B10000DB100002DE9F04704460F4609F09CF89E
:100B2000051E5CDB04F114094FF02003EFF3118A7A
:100B300083F31288BFF36F8F484605F03BFB804676
:100B400038B932493248722209F040F972212F48EF
:100B50003AE0484605F04CFBE38BA68B4FF6FF725C
:100B6000934206F007063DD0022E0ED10133E383F7
:100B70003546484605F02CFB002839D12349244846
:100B8000F02209F023F9F021E1E7062E13D8DFE87F
:100B900006F0092C1212090409006FF085054FF0C8
:100BA0000008E6E700233B6063687BB9C4E900778F
:100BB0007EB13546F3E7174915484FF4E47209F062
:100BC00005F914484FF4E47109F0F9F81F60676003
:100BD000EEE7524602212046FFF7D8FD354628466B
:100BE000BDE8F0876FF00A05D9E76FF00405D6E796
:100BF0008AF31188BFF36F8FB8F1000FEFD0002395
:100C000032463946204609F037F8E8E747B1000098
:100C10000DB1000025B10000F8B5054600F114063D
:100C20004FF02003EFF3118783F31288BFF36F8F28
:100C3000304605F0BFFA38B91F492048722209F042
:100C4000C5F872211C4823E0304605F0D1FAAC8B80
:100C500004F00704022C10D0012C0CBF6FF0040428
:100C60006FF08504304605F0B3FAF8B9124913481D
:100C7000F02209F0ABF8F021E4E7EB8B53B910490F
:100C80000E4840F2EF1209F0A1F80D4840F2EF11C2
:100C900009F095F8013B9BB2EB83002BE2D13A4679
:100CA00021462846FFF772FD2046F8BD87F31188DC
:100CB000BFF36F8FF8E700BF47B100000DB1000030
:100CC00025B100002DE9F0410E460546002844D02C
:100CD000002942D000F114074FF02003EFF31188F0
:100CE00083F31288BFF36F8F384605F063FA38B983
:100CF0001B491C48722209F069F87221184816E055
:100D0000384605F075FA31462846AC8B08F06DFF81
:100D100078B104F00704231F022B0CD912491148A3
:100D200040F22D2209F052F80F4840F22D2109F02F
:100D300046F86FF07704384605F04AFA30B90849AA
:100D40000848F02209F042F8F021D7E788F311882B
:100D5000BFF36F8F2046BDE8F0816FF01504F9E70F
:100D600047B100000DB1000025B1000008B5426890
:100D7000816002F00302032A034602D02AB1002058
:100D800000E0006800225A6008BD0449044845227A
:100D900009F01CF80148452109F011F874B1000070
:100DA0000DB100002DE9F34180460E46154600279F
:100DB0002A4601A9404608F099FF314604460246FA
:100DC000019809F08EFD2D1B2744264401D0002CEC
:100DD000EED13946404608F0A8FF40B10649074821
:100DE000492208F0F3FF0448492108F0E8FF38469B
:100DF00002B0BDE8F08100BF97B100000DB1000066
:100E00002DE9F34180460D4616460027324601A9DA
:100E1000404608F09FFF04462DB10246019928463E
:100E200009F05FFD2544361B274401D0002CEDD18D
:100E30003946404608F0AEFF40B1064906488E22CA
:100E400008F0C4FF03488E2108F0B9FF384602B00D
:100E5000BDE8F08197B100000DB1000008B504466F
:100E60004FF02002EFF3118382F31288BFF36F8FEC
:100E700002F01EFB204600F049FD034808F091FDFA
:100E800000F006F9FCE700BFBFB1000002F046BE6B
:100E900000F1744000F5A6000B289ABF024B1856CB
:100EA0006FF00D00704700BFEFB10000014808F07F
:100EB0007BB900BF98AC000038B5044618B90F4B99
:100EC0000F485B6898476168B1F5683F10D0B1F58D
:100ED000680F0DD00B4DA9420AD011F4686120684B
:100EE00007D00146084804F0EBFF0023236065604B
:100EF00038BD142209F01DFDF9E700BF5C01002098
:100F0000FBB100002C5F5CA91809002008B520B3D4
:100F10004368B3F5683F10D101220368BFF35B8FCC
:100F200053E8001F002903D143E800200028F7D12F
:100F3000BFF35B8F0DD1002008BD094A93420AD050
:100F400000684FF0FF324FF0FF3305F07BF90028C7
:100F5000F1D00448F0E70448EEE76FF4E040EBE737
:100F60002C5F5CA9E98FFFFFEA8FFFFF08B5D8B1BE
:100F70004368B3F5683F10D100220368BFF35B8F6D
:100F800053E8001F012903D143E800200028F7D1CE
:100F9000BFF35B8F0BD1002008BD074A934208D0F6
:100FA000006805F005FAF6E76FF4E040F4E703485F
:100FB000F2E70348F0E700BF2C5F5CA9E98FFFFF71
:100FC000EA8FFFFF10B5044618B91D4B1D485B683A
:100FD00098476368B3F5683F2FD0B3F5680F2CD0FE
:100FE000194A934219D1236803BB18484FF0FF32C6
:100FF0004FF0FF33214604F00BFF08B923681BB9FB
:101000000F4B13485B68984720681422002109F0B1
:1010100090FC4FF46863636008E0B3F5683F0DD857
:101020003A2B03D040F6BA629342DED1206809F031
:1010300063FB636843F03A03636010BD054AF3E75E
:101040005C010020FBB100002C5F5CA918090020A6
:1010500021B200003A00003A08B50649064840238C
:10106000142209F025FBBDE808400449044808F0B3
:101070000DB900BF1804002018090020A0AC000022
:10108000B4AC0000014910220A60704710ED00E086
:1010900072B6404080F31188BFF36F8FBFF34F8F5C
:1010A00030BF62B6BFF36F8F704700BF72B6494062
:1010B00081F31188BFF34F8F20BF80F3118862B690
:1010C000704700BF37B505460C46C9B18B68009321
:1010D000D1E900230E48452108F086FE636900939C
:1010E000D4E903230B48452108F07EFEE2690A4853
:1010F000452108F079FEA2690848452108F074FEF0
:101100002146284603B0BDE8304004F003BD00BFCF
:101110004EB2000082B20000B6B20000CAB20000B7
:1011200040B2002807DB044A4109012300F01F00F8
:10113000834042F82130704700E100E040B20028CF
:101140000CDB4309064900F01F00203301228240D6
:1011500041F82320BFF34F8FBFF36F8F704700BF5D
:1011600000E100E0054B420900F01F0053F8222087
:10117000012303FA00F01040704700BF00E100E0D7
:101180000131072908B508D90D490E485C2208F03D
:101190001DFE0B485C2108F012FE40B20028ACBFD7
:1011A00000F16040084B4FEA4111B8BF00F00F005A
:1011B000C9B2AABF00F56140195480F8001308BDF8
:1011C000FDB200000DB1000014ED00E030BFFFF7EC
:1011D000FDBF00BF0B4A08B50B4B22F07F029A609F
:1011E000BFF34F8FBFF36F8FD3F8882022F47002C4
:1011F000C3F8882004F02AFD06F088FB00F050FBBD
:1012000004F076FD0000000000ED00E0094A0A4904
:10121000936809689967094958674B6843F0805398
:101220004B60002383F31188BFF36F8F9368986F2F
:10123000704700BF1C0B00207CAE000000ED00E0FA
:1012400015498A684FF030001044EFF3098C80E8AC
:10125000F01F202080F31288BFF36F8F0F4F4FF0E5
:1012600000664A698A603E604FF070041419206875
:101270000B4C2060506F0023536780F3118804B536
:10128000104600F0BBFBBDE8044002F1300090E8DE
:10129000F01F8CF3098870471C0B002004ED00E060
:1012A000380900201EF0040F0CBFEFF30880EFF3A5
:1012B0000980816911F8021C0229FFD001B508F0EC
:1012C000A4FD01BD42F8203C009B42F81C3C0A49A9
:1012D000019B42F8183C029B42F8143C21F00101AA
:1012E0004FF0807342F8043C42F8081C0023203A77
:1012F00002654367704700BF19050000094A0346AD
:10130000906870B113F1160F006E05D0A0F1400285
:101310009A4205D8834203D2814228BF00207047F9
:10132000002070471C0B002008B514460A4A0B4BDE
:101330009060026F1A600D4600F060FB204685F356
:101340000988002163B681F31188BFF36F8F0022F3
:101350000023FFF7E1F800BF1C0B00203809002034
:1013600001B5EFF30580A0F110004FEAC000044979
:10137000014409C99847BDE80140024908470000F7
:1013800050AA0000E5130000114B124A2DE9F0416C
:10139000D518DFF84480013DB5FBF3F55D430F4BF5
:1013A00008EB0304013CB4FBF3F403FB04540E1BF1
:1013B00007460B49304609F094FA7019424600215D
:1013C000083E09F0B6FA3E6704F10800BDE8F08176
:1013D0000100000000000000040000000400000004
:1013E00058AC0000044B99685869884203D00349FF
:1013F0004FF080520A6070471C0B002004ED00E0A3
:101400002DE9F8433D4D804689463D484521174624
:1014100008F0EAFCAB6ADA0626D53A48452108F01E
:10142000E3FC1124AB6A1B0704D53748452108F0BB
:10143000DBFC1224314DAB6A9E0717D5334845219A
:1014400008F0D2FC6E6BAB6A1C0645D530483246BC
:10145000452108F0C9FCB9F1000F03D0AB6A23F0B5
:101460008003AB62132403E01024DBE76FF0150662
:10147000224DAB6AD80704D52648452108F0B4FCB4
:101480001424AB6A990604D52348452108F0ACFC26
:1014900015241A4DAB6ADA0602D4AB6A9B070AD54B
:1014A0006B68180507D541463046FFF727FFB0B1F6
:1014B00080F309880224114B9A6A920642BF5A6A45
:1014C00022F400525A629A6A42F0FF029A620023A2
:1014D0003B702046BDE8F8836FF01506C2E7AB6AA3
:1014E000D906E8D50D490E4840F25D1208F06EFCB1
:1014F0000A4840F25D1108F062FC00BF00ED00E018
:1015000033B300004EB3000086B300009EB300006A
:10151000BBB30000D6B30000FAB300002EB4000045
:101520000DB1000010B5204C2048452108F05CFCAE
:10153000A36A990136D51E48452108F055FC1E20A6
:10154000A36ADA0104D51B48452108F04DFC1F2091
:10155000154CA36A1B0304D51748452108F044FC29
:101560002120A36A590304D51448452108F03CFC06
:1015700022200D4CA36A9A0304D51148452108F096
:1015800033FC2320A36ADB0304D50E48452108F071
:101590002BFC2420044A936A6FEA03436FEA134347
:1015A000936210BD1D20CBE700ED00E068B40000A1
:1015B00085B400009DB40000BCB40000DFB400009E
:1015C00009B5000028B5000070B5284C06460D4648
:1015D0002748452108F008FCA36AD9043BD52548D3
:1015E000452108F001FC1720A36A1A0504D52248FA
:1015F000452108F0F9FB18201C4CA36A9B0511D566
:101600001E48452108F0F0FBA26BA36A180408D518
:101610001B48452108F0E8FB1EB1A36A23F40043F0
:10162000A3621920114CA36A590504D51548452118
:1016300008F0DAFB1A20A36ADA050ED51248452114
:1016400008F0D2FB1B20094A936A43F47F4393625C
:1016500000232B7070BD1620C6E7A36A9B04F2D549
:101660000A48452108F0C0FB1C20ECE700ED00E033
:1016700058B5000073B5000086B3000089B50000BE
:10168000A7B50000C1B50000E1B50000FAB3000045
:10169000F0B56D4B044658688BB0C0F308030025C5
:1016A00085F31188BFF36F8F02F07F46B6F17F4F4D
:1016B00007D102F00C06082E0ED16448452108F02F
:1016C00093FB634963484FF48B6208F07FFB4FF450
:1016D0008B615F4808F073FB16074CBF0C46012571
:1016E000002CEED00026DA1E8DF80760092A00F2E1
:1016F0009980DFE802F0058C9077979797979794F9
:101700005548452108F070FB8DF807604E4EF36A8E
:101710009A0705D55148452108F066FB002329E0CA
:10172000F36A002B02DA4E484521F5E7F36A5B00C5
:1017300064D54C48452108F057FB7369A26943F40E
:1017400080737361BFF34F8FBFF36F8F736932F88C
:10175000022C23F480737361BFF34F8FBFF36F8F3D
:101760004DF602739A4224D122683F48452108F081
:101770003BFB23689DF80720CAB902AE04F120079D
:1017800020686168324603C20834BC421646F7D16D
:10179000099A002D52D0C2F3080121B96FEA5222F2
:1017A0006FEA4222099202A91846FFF78BFC0BB0A0
:1017B000F0BDB36ADBB23BB10DF107020121204657
:1017C000FFF71EFE0346D5E7B36A13F47F4F05D03B
:1017D0000DF107010120FFF7F7FEF3E7B36AB3F558
:1017E000803F02D3FFF79EFEECE71949194840F20B
:1017F0002A3208F0EBFA40F22A316AE71449154818
:1018000040F22E3208F0E2FA40F22E3161E70DF19B
:1018100007020021D3E70DF107010020DBE71348A1
:10182000452179E71249134A10F4F87F08BF0A46A8
:101830001148103B452108F0D7FA6FE722F4FF72F8
:1018400022F00102AEE700BF00ED00E02CB6000080
:101850002EB400000DB100005CB6000078B60000A8
:101860009EB60000B1B60000D5B60000F6B6000086
:10187000FEB5000013B600001FB70000024A53690E
:1018800043F010035361704700ED00E0EFF3088070
:10189000EFF3098101B57246FFF7FAFE01BD00BF03
:1018A000044800232021C2180133302B82F8001392
:1018B000F9D1704700E100E0002080F31488BFF305
:1018C0006F8FFFF7E3FA00200D490860BFF34F8FD9
:1018D0000C4880F3088800F03DF8202080F3118840
:1018E00009484FF40461401880F30988EFF314802D
:1018F0000221084380F31488BFF36F8FFFF76AFC5F
:1019000094ED00E00026002040180020BFF34F8F28
:101910000549064BCA6802F4E0621343CB60BFF38B
:101920004F8F00BFFDE700BF00ED00E00400FA05A7
:101930000749D1F890200023C2F3072218469342AA
:1019400000DB7047C1F89830C1F8A0000133F6E71A
:1019500000ED00E008B572B6002383F31388FFF7AB
:10196000E7FF144B4FF0FF32C3F88020C3F8842008
:10197000C3F88820C3F88C20C3F89020C3F89420C3
:10198000C3F89820C3F89C20C3F88021C3F88421B1
:10199000C3F88821C3F88C21C3F89021C3F894219F
:1019A000C3F89821C3F89C2162B6BFF34F8FBFF3F1
:1019B0006F8F08BD00E100E0084B9B6883420BD1AC
:1019C000EFF3058343B1064B5A6842F080525A60E8
:1019D0005A6A22F400425A6205F096BE1C0B00209F
:1019E00000ED00E0024B034A0348012100F07CB8FF
:1019F0000000042000000020C4AC0000026E054B73
:101A0000403A1A60044A4021C3E9011218460121F4
:101A100000F086B83C09002000000B15F8B5244EF4
:101A200000258D420FDA4468002C3ED09BB104F1B2
:101A3000FF3C14EA0C0F08D01E482A46452108F046
:101A4000D3F96FF015021046F8BD1F2CF4D90768C2
:101A50001CEA070FF0D1202C0768D0F808C05FFA05
:101A600082FE10D9B4F1004F0FD8013CB4FA84F4CF
:101A7000C4F11F046400BEF1070F4CEA040C06D940
:101A80000D484521DBE70824F5E73E24F3E727F07E
:101A90001F04144344F01004C6F89820C6F89C4074
:101AA0004CF00104C6F8A040013201350C30B8E713
:101AB00000ED00E03BB7000063B70000044B0522D7
:101AC000C3F89420BFF34F8FBFF36F8F704700BFF1
:101AD00000ED00E0BFF35F8F024B0022C3F89420BB
:101AE000704700BF00ED00E010B50A4C01232278DA
:101AF000FFF794FF207016300AD10749074840F2DB
:101B00001B1208F063F9044840F21B1108F057F962
:101B100010BD00BF0C1400208EB700000DB10000F6
:101B200008B50F4A00231278FFF778FF10F1160F5F
:101B300004D00C4B002207280BDD08BD0A490B48D6
:101B40004FF49D7208F042F907484FF49D7108F078
:101B500036F9C3F89800C3F8A0200130EBE700BFC6
:101B60000C14002000ED00E08EB700000DB1000065
:101B7000204910B50C68082C0AD91F491F484FF49A
:101B8000A97208F023F94FF4A9711B4808F017F95E
:101B9000FFF7A0FF48681A490022944200F10C00A8
:101BA00012D1184B1C70FFF789FFD1F89030C3F3A6
:101BB0000723082B1BD0104910484FF4DC7208F0A3
:101BC00005F94FF4DC71E0E7C1F8982050F80C3CBF
:101BD00023F01F03134343F01003C1F89C3050F867
:101BE000043C43F00103C1F8A0300132D5E70020E6
:101BF00010BD00BFD0AC00008EB700000DB10000DA
:101C000000ED00E00C14002008B5024B1B6898475B
:101C1000002008BD48090020034B044A186093784F
:101C200043F002039370704748090020240000200D
:101C300008B50649064821F00701C1F1005202F536
:101C40008022FEF731FD002008BD00BF9334002044
:101C5000802C00200E4A0123C2F840354FF080420C
:101C60004FF08051C2F87835D1F83001082808D1FA
:101C7000D1F83411052904D80648415C09B1C2F8ED
:101C800038364FF080430122C3F88025002070478A
:101C900000E00140D4B7000020B1034B800143F0C5
:101CA00001031847704700BF90AC000037B50C46E1
:101CB0000A490B4A411A402300934911054623461D
:101CC000084808F0C9F8011E05DA2846234603B083
:101CD000BDE83040184703B030BD00BF60090020A8
:101CE000C39E0000D8A90000C9B2012908B508D9CF
:101CF000084909487A2208F069F806487A2108F06C
:101D00005EF803690C2201FB0233986C00F00700B7
:101D100008BD00BFDEB700000DB1000070B5C9B24C
:101D2000012903690AD91849184840F25D1208F0E0
:101D30004DF8154840F25D1108F041F84FF02004CD
:101D4000EFF3118584F31288BFF36F8F0C2606FB27
:101D50000134A46C14F0C00408D0A24206D085F36C
:101D60001188BFF36F8F4FF0FF3070BD71430B448C
:101D700001229A6485F31188BFF36F8F43680B4487
:101D80005B6898470020F0E7DEB700000DB1000067
:101D900070B50D460649411A0446491105484022CE
:101DA000FFF7BCFF2B4601462046BDE870401847B0
:101DB00060090020D8A90000002270B50121044666
:101DC0001046FFF7DDF90F4802F046F80E4B984237
:101DD00015D102F063F826690C49304607F062FF1E
:101DE00000280BDB0125B5642469084904F12000B3
:101DF00007F058FF002801DB6565002070BD6FF01B
:101E00000400FBE7451E00000000AD0BF0AC000035
:101E100070B501460C2309484B43C418D4E9105649
:101E2000483300221844226408F003F82DB13246EA
:101E30002B460348BDE87040184770BD600900207C
:101E4000D8A90000012808B506D0042808D090B908
:101E50000E4B9B6C5B0717D1BDE80840FFF7D8BF5E
:101E60000B490C4840F26E2207F0B0FF40F26E21A1
:101E7000074807F0A4FF0649064840F2722207F01F
:101E8000A5FF40F27221F3E708BD00BF6009002002
:101E9000DEB700000DB1000008B54FF02003EFF3EE
:101EA000118183F31288BFF36F8F124A136843F0D6
:101EB00002001060DA0708D481F31188BFF36F8F36
:101EC0000120BDE8084002F00BB84FF08043D3F882
:101ED0000C24D3F80C34DB07EED5074807F0A9FF34
:101EE00081F31188BFF36F8F0020BDE80840FFF732
:101EF0008FBF00BFB8090020A80900201FB500222D
:101F00000123CDE90223094ACDF800D06B46CDF874
:101F100004D007F0CFFF002805DB4FF480420023F8
:101F2000684604F0F9FA05B05DF804FBDB9E00009A
:101F300010B54FF02003EFF3118483F31288BFF341
:101F40006F8F074A136823F00201DB07116002D488
:101F5000012002F01BF884F31188BFF36F8F10BDCE
:101F6000B8090020024BC0B203EB4010704700BF1D
:101F7000600900202DE9F0414449BFF35B8F06461C
:101F8000012251E8003F41E800200028F9D1BFF3C9
:101F90005B8F9BB93E493F484B60CB608A60FEF740
:101FA000B9FD00280ADA3C493C484FF40C7207F0AE
:101FB0000DFF4FF40C71384807F001FF76B3731E24
:101FC000012B59D8012E07D14FF08043D3F81C3490
:101FD00003F00303012B21D008F079FB0546F8B983
:101FE0002F4B1B78E3B14FF080430222C3F8082344
:101FF0000746DFF8B0804FF08044D4F81824D4F8B6
:102000001834D20316D503F00303012B01D0012E9F
:1020100010D15DB387F31188BFF36F8FBDE8F081F6
:102020004FF02003EFF3118783F31288BFF36F8F14
:102030000125DEE7ADB13846FFF738F8D4F818359A
:10204000002BDAD1D4F80421002AD6D0C4F8043108
:10205000D4F804310123C4F81835C8F88031A360DE
:10206000CBE70021212005F01DFBE7E74FF080437F
:102070000222C3F80423D1E70749084840F242226C
:1020800007F0A4FE40F2422195E700BF5C09002062
:102090004C09002080090020DEB700000DB10000CF
:1020A0002318002000E100E008B5074808F0DBFA3B
:1020B00038B10648FFF7B0FD0448FEF70FFA0020DC
:1020C00008BD6FF01200FBE714AA0000D120000049
:1020D0000A2838B5074D044604D1AB680D215B686A
:1020E00028469847AB6803485B68E1B298472046AA
:1020F00038BD00BF14AA000000F1744000F5A6002E
:102100000A289ABF024B33F910006FF00F00704796
:10211000C0AF0000024B0B6001231360704700BF8B
:10212000ACAD00000048704730AD0000054B99424F
:1021300006D14FF0FF324FF0FF33203004F0ECB9FE
:10214000704700BF0000AD0BF7B54C680546174659
:10215000ACB1D4E90043886898B1D0E9006088B197
:1021600083B1984207D10133092B0A780DD916485B
:10217000572107F039FE6FF0150003B0F0BD23467C
:10218000E9E7064601330344EEE78DF8013040F2FB
:1021900001132869ADF8023000238DF804308DF862
:1021A00000208DF8057007F0A4FE214632466846EF
:1021B00003F0DEF90446286907F0A8FE204603B0C4
:1021C000BDE8F040FFF798BF44B8000038B5056996
:1021D00095F840300446FBB9284607F08AFE0022F5
:1021E000002305F1300004F097F9AB6B4BB90B4DB0
:1021F00003F026FAA84209D103F044FA084B002262
:102200001A702069BDE8384007F080BE002140F216
:10221000676005F047FAEBE738BD00BF0000AD0B83
:102220000D140020F8B5066996F840400546D4B96B
:10223000304607F05EFE0D4F06F1300004F028F93D
:102240003B785BB90A496868324603F059F9FFF7F1
:1022500053FFB0FA80F35B0904463B70286907F02E
:1022600055FE2046F8BD0024FBE700BF0D140020FA
:10227000E79E00002DE9F84F15460A1ED0F804909D
:10228000064605DBD9F8283051199942904609D9FC
:102290003B482B46452107F0A7FD6FF0150420466B
:1022A000BDE8F88FC2F30B02002DF6D0C5F30B0387
:1022B0001343F2D1FFF7B6FF044660BB306907F065
:1022C0001FFE2146304607F024FE044600BB30695D
:1022D000DFF8B0A007F00DFED9F828309D421ED1DE
:1022E00008F072F9AB46074630693946FFF71EFF22
:1022F00057453AD1B5EB0B05D844EDD1306907F01D
:1023000005FE0121304607F004FE002C08BF0446FC
:10231000306904F0BDF83046FFF758FFBFE7B5F568
:10232000803F0AD31FFA88F353B94146012003F0D6
:1023300011FA4FF4803B0746D6E7B5F5805F09D325
:10234000C8F30B0030B9414603F004FA4FF4805B48
:102350000746C9E70C480D4F2B464246452107F07A
:1023600043FD0A493069FFF7E1FE09482B46424622
:10237000452107F039FD3846FFF7BEFE0446BDE7AC
:102380006CB800000000AD0BBBB800000400AD0B42
:10239000DEB800002DE9F04143681E6B8AB00546A7
:1023A00007AA0021304607F021FE041E3FDB079BF1
:1023B00032681979186807F02CFE041E37DB0022FA
:1023C00001212920FEF7DCFE6E682A695449304657
:1023D00003F096F8FFF790FE041E28DB0022AB23E3
:1023E00007A92846CDE9072209928DF81C30FFF78E
:1023F000ABFE041E1BDB232008F031F9737F023B88
:10240000012B18D996F81C80A8F10308B8F1010F28
:102410008CBF4FF000084FF00108284607F08EFDF2
:10242000041E0BDA3F482246452107F0DDFC20461A
:102430000AB0BDE8F0814FF00108EEE7E2B2C4F364
:102440008014A04504AE05AF28D0002382F04002DE
:10245000ADF8103007A98DF8102028460122CDE9EB
:102460000623059609938DF81C200897FFF76CFE4C
:10247000041E0CD0DBDA2C492C4A2D48B8F1000F91
:1024800008BF0A462346452107F0AEFCCFE72846A1
:1024900007F054FD041EEEDBE307F8D42846FFF7EF
:1024A00095FE4FF003080023CDE9068308932846E4
:1024B0009F2305968DF81C300997FFF7B3FE02465F
:1024C00028B12846FFF782FE6FF01204AFE707A994
:1024D0002846FFF739FE04462846FFF777FE002C12
:1024E000F2D16D684246314605F12C0008F0C1F981
:1024F000044600289BD095F82E30039395F82D3094
:10250000029395F82C3001939DF8123000939DF8BA
:1025100010209DF811300748452107F065FCD3E7EE
:10252000E79E00000BB9000005B9000001B90000EA
:1025300020B9000036B900002DE9F34705460F46E3
:102540001E4690469AB193B1042B01D99A070ED139
:10255000BB070CD1002F6A6803DB926ABB19934258
:102560000BD93F4833463A46452107F03DFC6FF012
:102570001504204602B0BDE8F0872846FFF752FE5A
:102580000446002864D1286907F0BAFC2146284691
:1025900007F0BFFC0446286907F0ABFC002C45D1CE
:1025A000032E1ED804213A460DEB010008F009F86D
:1025B000044601462869FFF7B9FD2A4B9C4235D1F4
:1025C0003246414601A808F08CF904213A460DEB49
:1025D000010007F0F3FF044601462869FFF7A6FD56
:1025E00024E008F06043B3F1005F02D118F0030F5C
:1025F00032D0DFF870A0042EB14628BF4FF0040996
:102600004A46414601A808F06CF93A46494601A8F5
:1026100007F0D4FF044601462869FFF787FD5445BB
:1026200004D1B6EB0906C8444F44E4D1286907F049
:102630006DFC0121284607F06CFC0646286903F072
:1026400027FF002C14BF20463046FFF755FD0446F7
:102650002846FFF7BBFD8CE73A4631464046B8E7CF
:102660006DB900000000AD0B2DE9F04F814685B03B
:102670000E461C4690467AB1002B00F09B80002944
:10268000426803DB926ACB1893420BD94A4823462F
:102690003246452107F0A8FB6FF01505284605B026
:1026A000BDE8F08FFFF7BEFD054600287ED17542DC
:1026B00005F00305D9F8100007F01BFCA54228BF60
:1026C0002546D8F1000303F0030308F0030758BFC1
:1026D0005F427F4207F00307A74228BF2746631BDC
:1026E000E41B24F0030423F0030AA245C8BFA2465A
:1026F00003F0030BC8BFA3EB040BBAF1000F19D012
:1027000008EB0703721951461846019307F059FF69
:1027100004460146D9F81000FFF708FD274A944205
:102720003CD1BD4206D0019B5246194608EB05003C
:1027300008F0E5F8BDB1C5F10407F21B042102A8B9
:1027400007F03FFF04460146D9F81000FFF7EEFC02
:102750001A4B9C4222D107F108032A460DEB0301D4
:10276000404608F0BEF8BBF1000F16D008217219E0
:1027700052440DEB010007F024FF04460146D9F84E
:102780001000FFF7D3FC0D4B9C4207D10AEB05006C
:102790005A4602A9404408F0A4F8084CD9F81000A1
:1027A00007F0B4FB2046FFF7A7FC05464846FFF7B5
:1027B0000DFD73E71D4671E7BCB900000000AD0BCD
:1027C000024B0B6001231360704700BFBC0900205F
:1027D00000487047C8AD000070B50D462846194640
:1027E00016461C4607F0C5FB40B9084823462A4652
:1027F000452107F0F9FA6FF0150070BD24B12246AB
:102800002946304608F06DF80020F6E720BA0000AF
:1028100010B5012211460648064C07F074FF07F078
:10282000C6FE206007F0BFFE6060002010BD00BF44
:10283000C4090020BC0900204FF08042D2F81015D6
:10284000D2F8103501F01E0123F01F030B4343F0B3
:102850000103C2F81035024B00221A70704700BF06
:102860000E1400204FF08053D3F83031082B20D1C4
:102870004FF08042D2F81015CB071AD5D2F8103598
:1028800001F01E0123F01F030B43C2F81035D2F8EC
:1028900008315BB1D2F8103523F01F030B4343F02E
:1028A0000103C2F810356FF08B007047024B012214
:1028B0001A700020704700BF0E1400202DE9F0416F
:1028C0000F46154607F06FFE29460646384607F0C4
:1028D00050FBB846B0B3B7FBF6F306FB137323B94E
:1028E000B5FBF6F406FB145444B119482B463A469E
:1028F000452107F079FA6FF015041DE0AE421BD8B0
:102900004FF0FF324FF0FF331248134F03F004FE35
:1029100007F049FE0646FFF7A5FF044678B9404692
:1029200002F094FB3B780BB1FFF786FFAD1BB04480
:10293000F1D1084803F0ACFD2046BDE8F0816FF00E
:102940008B04F6E705482B463A464521D1E700BF00
:1029500042BA0000C40900200E14002020BA000072
:102960002DE9F8430E463046194617461C4607F037
:1029700000FB50B9204823463246452107F034FA7F
:102980006FF015042046BDE8F88346EA040515F00B
:10299000030504D01948234632464521EEE7002CB2
:1029A000F0D01748DFF85C904FF0FF324FF0FF3364
:1029B00003F0B2FD24F00304A54205EB060809D19B
:1029C000114AD2F80034DB07FBD500240C4803F091
:1029D0005FFDD7E7FFF746FF50B97959404602F04F
:1029E00069FB99F800300BB1FFF726FF0435E3E7E8
:1029F0006FF08B04EAE700BF20BA000066BA00005F
:102A0000C40900200E14002000E0014010B5036945
:102A100041B91C491C483A2207F0D8F93A21194813
:102A200007F0CDF9486830B9164917483B2207F03E
:102A3000CDF93B21F3E75868F8B1884219D19C6879
:102A400008685860A14200D19860002008602AB14F
:102A50005A680A609A68596002B99960002010E0CB
:102A6000814206D10868206098688142EDD19C605F
:102A7000EBE7044600680028F2D1002AE8D16FF0A5
:102A8000150010BDADBA00000DB1000030B54068B2
:102A9000057B01F01F04B2F5001F85B044EA451420
:102AA00005D1204601F0FAFD002005B030BD00251B
:102AB000B2F5800FCDE9025514D1B3F1007F0CBF00
:102AC000042305238DF808300023194602AA204666
:102AD00001F0C2FB2B4B984250D10121204601F05E
:102AE0006FFDE1E7B3F1C06F23D0B3F1007F14BFF6
:102AF000012302238DF808308368CB40D807E3D444
:102B0000B2F1A07FE0D1620904F01F0313D0012AC3
:102B100004D14FF6FF72DA40D10714D41A491B488A
:102B200040F22F3207F052F9174840F22F3107F0E8
:102B300046F90323DEE74FF0FF32DA40D207EDD546
:102B40004FF0A04200E0124A03F5E07352F8233040
:102B5000DB07B9D40DF107052946204601F0B6FC84
:102B60000C4B984201D00395AEE7284601F022FDB8
:102B7000044B9842F7D06FF00B0096E76FF015000A
:102B800093E700BF0000AD0BE9BA00000DB10000F3
:102B9000000300500400AD0B10B501F0FBFC04462F
:102BA00068B901F0BBFC084B98420AD1074821469E
:102BB00001F086FC224605210620FEF7E1FA0020FE
:102BC00010BD6FF00400FBE70000AD0BD12B00003F
:102BD000420970B5034602D0012A1AD070BD124EC8
:102BE000326951680029F9D003F01F0301250C68F0
:102BF0009D400029F2D08A682A400ED04B6853B914
:102C00000A490B485D2207F0E1F808485D2107F00A
:102C1000D6F8084EE4E7304698471CB123682146B1
:102C20001C46E6E72346FAE700AA0000ADBA00001A
:102C30000DB10000ECA900002DE9FF41D0F804809F
:102C400098F80C3001F01F0545EA43150F46284659
:102C50000DF10701144601F039FC14F4403F06461B
:102C600014D1284601F040FD484B9E426BD19DF89F
:102C7000070001F099FCB04265D0454945486C22F7
:102C800007F0A4F86C21424807F099F80023194690
:102C900002AA2846CDE9023301F0DEFA3B4B984206
:102CA0001DD186420CD19DF8070001F07DFCB04299
:102CB00006D0374937487F2207F088F87F21E2E7BE
:102CC000A60353D540F206332340B3F5837F1AD0D1
:102CD0000DD8062B18D005D8B3B1022B37D06FF022
:102CE000150031E0B3F5807FF9D101230CE040F20B
:102CF000022293422DD0B3F5407F2CD0B3F5007F54
:102D0000EDD1022300E007238DF8083084F48033EE
:102D1000C3F30043E0068DF8093054BFC4F34013F9
:102D2000032321038DF80A3017D5D8F80420012396
:102D3000BB40C2F80835002202A9284601F048FB32
:102D4000124B9842CBD1002004B0BDE8F08104239F
:102D5000DAE70523D8E70323D6E7620341BF01235F
:102D6000D8F80420BB40C2F80C35E4E7E3064FF086
:102D7000000354BFC4F3401403241A4602A9284692
:102D80008DF8084001F068FADAE700BF0000AD0BEB
:102D90001CBB00000DB1000008B5036859090246CC
:102DA00013D0012906D103F01F034FF6FF71D9405C
:102DB000C80712D40A490B4840F22F3207F006F830
:102DC000074840F22F3106F0FAFF4FF0FF31D940AB
:102DD000C907EFD54FF0A04000E00348136008BDDD
:102DE000E9BA00000DB1000000030050F0B54B79C6
:102DF000012B26D0032B21D110258B79032B1DD13C
:102E0000CE790EB1012E19D10A7912B1022A15D14B
:102E10000E220B684468B3F5164F276867D02DD88B
:102E2000B3F5165F66D016D8B3F5966F64D00AD89E
:102E3000B3F5967F63D0B3F5167F63D06FF085004E
:102E400054E00025D9E7B3F5166F5ED0B3F5965F71
:102E5000F4D1384B3CE0B3F5E14F59D007D8B3F586
:102E6000615F57D0B3F5964FE8D1334B30E047F66A
:102E70001224A342E2D14FF4000329E0B3F5613FED
:102E80004AD013D8B3F5963F49D009D84DF6C0249F
:102E9000A34246D0B3F5614FD0D14FF46B0317E096
:102EA000B3F5E13FCAD14FF0EB7311E0B3F5612FF9
:102EB0003AD008D8214CA34239D0B3F5E12FBDD187
:102EC0004FF0E86304E01E4CA342B7D14FF08053AB
:102ED0000469C7F82435436835431B682A43C3F89F
:102EE0006C2503C9231D83E803000020F0BD4FF4C7
:102EF0001D03EDE7134BEBE74FF49E23E8E74FF498
:102F0000A033E5E74FF41C33E2E74FF41D23DFE77E
:102F10000D4BDDE70D4BDBE74FF06C73D8E70C4B47
:102F2000D6E74FF46503D3E74FF07063D0E74FF077
:102F30008063CDE700B0130000A04E0090D00300E6
:102F400040420F000050270000C0750000F03A001A
:102F500000903A012DE9F74380460022012102202A
:102F6000FEF70EF90220FEF7DBF8D8F80470D8F867
:102F700010603C680021C4F80015C6F80080D7F83E
:102F80000C9001AA484607F031F8051E1EDB019B94
:102F9000D9F800201979186807F03BF8051E15DBF1
:102FA000311D4046FFF722FF054678B97B68990737
:102FB0001CD506F1180002F0ADF8204B984209D05C
:102FC0001F48452106F010FF6FF00405284603B0A6
:102FD000BDE8F083307E04F10C0204F5907107F037
:102FE00045FA337E0120984000F0BAFE0823C4F869
:102FF00000353B7A53B9C4F81031D4F810317369F5
:10300000C4F834350123C4F8383523607B689A0747
:103010005CBF4FF48073C4F804337B68DB0644BFA5
:103020004FF48003C4F804333369C4F844350023F3
:10303000C4F848350123A360E360C7E70000AD0B87
:1030400064BB0000F8B5044607690D4607F03FFB76
:10305000B0B92E4B1B789BB16426606807F0C4F8AA
:1030600000BB012007F000FA013EF6D1002121202B
:1030700004F018FBF0E786F31188BFF36F8FF5E7D4
:103080004FF02003EFF3118683F31288BFF36F8FA5
:103090006068314607F0A8F890B986F31188BFF34D
:1030A0006F8FEDE74FF02003EFF3118683F3128863
:1030B000BFF36F8F6068314607F096F80028DAD0CA
:1030C0003B691D70626838691368C3F844050120C4
:1030D000C3F848050020C3F82001D3F82051C3F8F5
:1030E00058015268D3F85801D20608D562681268B0
:1030F0000820C2F800054FF48002C3F8042301221F
:103100009A6081F31188BFF36F8FF8BD23180020F8
:1031100070B40E49D1E90034D01AC31844F1000448
:1031200022F07F46C1E90034A6F50013B3F5400F45
:1031300009D2074B1B681A0A1B069C19054B42F162
:103140000005C3E9004570BC04F020BD4802002022
:10315000F4090020500200200D4B1868010A0006F7
:10316000BFF35F8F0B4BD3F80435181841F1000102
:10317000B3F5801F0AD2084BD3E90023904271EBCC
:10318000030303D210F1807041F10001704700BFCA
:10319000F409002000100140500200202DE9F743FF
:1031A0002F4CD4F8043399070BD5D4F8043143B12C
:1031B0002C4A0023C4F80431D4F8043113680133D5
:1031C0001360D4F80433DA032AD5BFF35B8F264BA0
:1031D00053E8002F22F0010143E800100028F7D146
:1031E000BFF35B8FD30702D4D4F84031C3B10025BD
:1031F000C4F84051D4F84031FFF7AEFF4FF0200340
:10320000EFF3118283F31288BFF36F8F174BD3E96B
:103210000267B042B94106D282F31188BFF36F8FC3
:1032200003B0BDE8F0834FF0FF384FF0FF39C3E93A
:103230000289D3E900101D604FF48033C4F848338D
:10324000C4F84051D4F8403182F31188BFF36F8F36
:103250000029E5D0009032463B4628468847DFE704
:1032600000100140F4090020EC0900203802002081
:103270002DE9F84F4B4DBFF35B8F06460F4655E8DF
:10328000008F28F0010345E80032002AF7D1BFF390
:103290005B8F454C4FF48039C4F80893BFF35F8FC0
:1032A000BFF36F8FFFF758FFB04271EB070308F0D1
:1032B000010840D23D4B301A67EB0101984271F191
:1032C00000014CD23A4BD3E902239F4208BF9642F9
:1032D0003ED04FF0000CC4F84893C4F840C126F02B
:1032E0007F40D4F84031DFF8CCA0834603216FF053
:1032F000020E2BF07F43C4F84035C4F84493D4F851
:103300000425AEEB02035B4423F07F4353451FD9F2
:10331000D4F840315BB1D4F80425131A23F07F436D
:10332000B3F5000F14D9C4F840C1D4F8403101EB13
:10333000020B0131DDE7204BBFF35B8F53E8001F29
:1033400041F0010143E80012002AF7D1BFF35B8F7F
:10335000174B1A4A1A60C3E9026700225A60B8F193
:10336000000F1CD0BFF35B8F55E8003F43F0010313
:1033700045E80032002AF7D1BFF35B8F4FF480336A
:10338000C4F804330C4BBFF35B8F1B68BFF35B8F38
:10339000DB0742BF0A4B4FF40032C3F80021BDE8FF
:1033A000F88F00BFF00900200010014001008000EC
:1033B00038020020FDFF7F00EC09002011310000E1
:1033C00000E100E070B5194C194BC4F80833C4F89B
:1033D0004833184B00254FF0FF304FF0FF31C4F851
:1033E0000855C3E902014FF48033C4F80433124B8B
:1033F00002264FF40032C4F804630121C3F880218F
:1034000011202A46FDF7BCFE1120FDF789FE01239D
:103410000A4AA3600021236009481360FFF728FFD0
:103420003046FEF7A7FD284670BD00BF00100140E2
:1034300003000F003802002000E100E0F009002046
:10344000FFFF7F00431C10B51DD001281DDD104A71
:10345000104B9042D4BF04461C46FFF77DFE0E4A37
:10346000D2E90031C01AB0F5000F0A4A28BF002483
:103470000444944228BF1446E01841F10001BDE81D
:103480001040FFF7F5BE034CE7E70124E5E700BF76
:10349000FEFF7F00FFFF7F004802002008B5FFF716
:1034A0005BFE024B1B68C01A08BD00BF480200202B
:1034B00010B5084C012363601120FDF73FFE064B59
:1034C000C4F80833C4F84833044B4FF40032C3F84F
:1034D000802110BD0010014003000F0000E100E05A
:1034E0002DE9F04112F0FC6FD0E90147066913465F
:1034F0000AD03649364840F2C73206F067FC40F23F
:10350000C731324806F05BFC02F03002302A08D1A5
:103510002E492F4840F2CA3206F058FC40F2CA3118
:10352000EFE72C4A2C4D1A40AA4208D127492848D7
:1035300040F2CE3206F04AFC40F2CE31E1E703F031
:103540000602042A08D12149214840F2D13206F06E
:103550003DFC40F2D131D4E713F4402212D09D0358
:1035600008D41A491A484FF4757206F02FFC4FF42C
:103570007571C6E7B2F5402F14D0184A9A4301D1AD
:1035800083F44023246801258D40254223F48012D2
:1035900011D10E490E484FF4797206F017FC4FF422
:1035A0007971AEE709490A484FF4767206F00EFCCD
:1035B0004FF47671A5E73468DB074CBF2C43AC436E
:1035C00034603B68BDE8F041184700BFA6BB00006F
:1035D0000DB1000002000300020001000100100014
:1035E00010B5012303FA01F1436804691B6819420D
:1035F0000AD10C490C4840F24F6206F0E7FB09483B
:1036000040F24F6106F0DBFB2368194203D022B180
:1036100083681B6903E0002AFAD08368DB68BDE891
:1036200010401847A6BB00000DB100002DE9F04185
:10363000114E07468846002527FA05F212F00102CE
:1036400010D128FA05F3DB070ED531793068FFF782
:10365000C7FF044640B10948452106F0C5FB204696
:10366000BDE8F0810122F0E70135042D06F10806DE
:10367000E2D10024F3E700BF5CAE0000D7BB00003E
:1036800070B50D4C0026E2882068217942F40032A2
:10369000FFF726FF054648B90136042E04F1080459
:1036A000F1D1BDE870400F21FFF7C0BF03484521AD
:1036B00006F09AFB284670BD5CAE0000F2BB00002D
:1036C000032810B50A4607D90B48452106F08CFBA4
:1036D0006FF01504204610BD084B03EBC00153F8F2
:1036E00030000979FFF77CFF04460028F2D0044837
:1036F000452106F079FBEDE711BC00005CAE00004F
:10370000D7BB0000034808B5452106F06DFB00203B
:10371000FEF7FCF845BC000010B504460020FEF79B
:1037200021FC114B186040B910491148392206F0AC
:103730004DFB0E48392106F042FB002201210520F5
:10374000FDF71EFD1B2000220121FDF719FD20467B
:1037500000F072F928B10748452106F045FB0648FC
:1037600010BD0648FCE700BF080A002068BC000046
:103770000DB1000092BC00000900AD0B0000AD0BC4
:1037800030B550B30A292AD84FF49263CB40DB07F7
:1037900025D5144A146D536D926D0470250A240CBE
:1037A00084700429DCB24570C47001D10E4830BD6C
:1037B0001D0A05710A294FEA13454FEA1363457143
:1037C000837105D1130AC271120C03724272EDE7C4
:1037D000882CEBD19923C370E8E70448E7E7044855
:1037E000E5E700BF000400100000AD0B0400AD0BC6
:1037F0000600AD0B10B50368022B02D0042B16D0C7
:1038000010BD15490023CB60144B4B6003238B6024
:10381000134B1868FDF77EF90028F1DA11491248B8
:10382000AB2206F0D3FAAB210E4806F0C8FA0C4BD7
:1038300009491C682046FDF745FA10F1780F02D1BE
:103840002046FDF7E9F90028DADA06490648B322EE
:1038500006F0BCFAB321E7E7F809002031A4000024
:10386000080A002068BC00000DB1000008B50A4B32
:103870001A699B689A420DD003F03CF830F00203BD
:1038800008D006490648332206F0A0FA034833213F
:1038900006F095FA08BD00BFA4000020ECBC0000B3
:1038A0000DB10000F0B587B0074604224748474CE9
:1038B0006946FDF7A5FA0428064611D00346444898
:1038C0000422452106F090FA4248452106F08CFA80
:1038D0000023C4E90233C4E905336360236160E077
:1038E000BDF80020102A08D93B493C48712206F057
:1038F0006DFA7121384806F062FA02A92046FDF7F8
:103900007FFABDF800208242034603D034480222E9
:103910004521D7E7BDF802505DB9324601A92046DE
:10392000FDF76EFA0428034625D02E48324645217D
:10393000C8E72A4601A9204606F00CFA85421AD9A2
:103940000021204606F026FA024678B9284606F0FD
:1039500083FF2A46014601902046FDF751FA854231
:1039600014D9019806F071FF6FF04C021E484521F2
:1039700006F03AFAA8E700241C4B1B6843B9164925
:103980001648882206F022FA8821B3E70124F3E7DB
:10399000019902A89847BDF8021021B93846FFF7EF
:1039A00065FF07B0F0BD1CB1019806F04EFFF5E7CA
:1039B000064806F0EFF903460028EFD0BDF80220D4
:1039C0000B48452106F010FAE8E700BFA4000020EC
:1039D00026BD00000CBE0000ECBC00000DB10000D4
:1039E00054BD00007FBD0000B3BD00000C0A0020E4
:1039F000D9BD0000684620F007018D4601B50A4B8D
:103A00001B7843B109490A48B42206F0DFF9074898
:103A1000B42106F0D4F9074802F06CFFFDF7E2FC90
:103A2000BDE801408546704711140020ECBC000041
:103A30000DB100009400002010B5044658B10022DA
:103A400001211520FDF79CFB1520FDF769FB034BB9
:103A500000201C6010BD6FF01500FBE70C0A002071
:103A6000F0B585B01D469DF828700192002F08BF63
:103A70000023ADF80C10064604221848ADF80E30AD
:103A800003A9FDF78FF90428044609D0144B01223D
:103A90001A70144B4FF40012C3F8002105B0F0BDAA
:103AA000BDF80C200D483146FDF77CF9BDF80C300F
:103AB0008342EBD15FB155B1BDF80E2001990748A3
:103AC000FDF770F9BDF80E40A042DFD1E1E7042216
:103AD0000DEB02010148FDF765F9F5E7A4000020B0
:103AE0001114002000E100E04FF08053D3F83021A2
:103AF000082A06D1D3F83431052B02D8024AD05C0B
:103B000070470020704700BF4EBE0000024AD2F846
:103B10000034002BFBD0704700E0014010B54FF09F
:103B20008053D3F83021082A4ED14FF08042002133
:103B3000C2F80C11C2F81011C2F8381502F5404253
:103B4000D3F80414C2F82015D3F80814C2F82415C9
:103B5000D3F80C14C2F82815D3F81014C2F82C1599
:103B6000D3F81414C2F83015D3F81814C2F8341569
:103B7000D3F81C14C2F84015D3F82014C2F8441529
:103B8000D3F82414C2F84815D3F82814C2F84C15F9
:103B9000D3F82C14C2F85015D3F83014C2F85415C9
:103BA000D3F83414C2F86015D3F83814C2F8641589
:103BB000D3F83C14C2F86815D3F84014C2F86C1559
:103BC000D3F84434C2F87035FFF78EFF18B13A4B82
:103BD0003A4AC3F88C26FFF787FF18B1384BFB220F
:103BE000C3F81825FFF780FF70B14FF080414FF008
:103BF0008053D1F8E42ED3F8583222F00F0203F0AC
:103C00000F031343C1F8E43EFFF76EFF20B12D4BC5
:103C10004FF40072C3F840264FF08053D3F8303190
:103C2000082B1AD14FF08043D3F80024D20744BFA9
:103C30006FF00102C3F800244FF08053D3F8343101
:103C4000052B02D8204AD35C3BB14FF01023D3F8A8
:103C500008224FF08043C3F858254FF01023D3F8C3
:103C60000022002A03DBD3F80432002B22DA1749A2
:103C700001234FF01020C1F804351224FFF746FF4E
:103C8000C0F80042FFF742FFC0F80442FFF73EFFD2
:103C90000023C1F80435FFF739FFBFF34F8F0C49FC
:103CA0000C4BCA6802F4E0621343CB60BFF34F8F42
:103CB00000BFFDE710BD00BF005000404881030079
:103CC00000F000400090024048BE000000E00140CB
:103CD00000ED00E00400FA0530B50468CCB1BFF394
:103CE0005B8FB4FA84F3C3F11F03DBB201229A4065
:103CF00024EA020250E8005FA54204D140E8002C0B
:103D0000BCF1000FF6D1BFF35B8FE6D102480B7018
:103D100030BD0248FCE700BF0000AD0B0200AD0B58
:103D200010B50368CB40DB0714D401238B40026835
:103D3000BFF35B8F43EA020150E8004F944204D185
:103D400040E8001CBCF1000FF6D1BFF35B8FEED151
:103D5000014810BD0148FCE70000AD0B0400AD0BAD
:103D6000014BC3F80405704700F00140F7B54FF070
:103D70008043044650B1012826D033493348D82225
:103D800006F024F83048D82106F019F80222C3F8CA
:103D90000823C3F80401D3F804210122DA6006469F
:103DA00001238DF8073042F210754FF08047E4B1DF
:103DB000012C2ED02649254840F2CB3206F006F8D9
:103DC000234840F2CB31DFE70022C3F80803C3F8F1
:103DD0000021D3F8002158600DF10706E0E783B118
:103DE000012006F041FB013D0BD0D7F8183403F455
:103DF0008033002EF3D0D7F8182402F0030232608B
:103E0000BBB903B0F0BD83B1012006F02DFB013D2D
:103E10000BD0D7F80C3403F48033002EF3D0D7F84E
:103E20000C2402F0010232701BB90A4B00225A71B5
:103E3000E7E79DF80700012803D106F015FB013DD7
:103E4000B5D1012CDDD1F0E754BE00000DB100006A
:103E500091BE0000100A002008B550B90A490B486D
:103E600040F2151205F0B2FF074840F2151105F0B7
:103E7000A6FF074B1A7922B91860012205489A80DB
:103E800008BD0548FCE700BF54BE00000DB10000AE
:103E9000100A00200000AD0B0C00AD0B08B50D4B57
:103EA0001B7953B90C490D484FF4977205F08EFFFA
:103EB00009484FF4977105F082FF0020FDF752F991
:103EC00008B9FDF72DF94FF080430022C3F81825FB
:103ED00008BD00BF100A002054BE00000DB1000054
:103EE00008B5274B1B7953B9264927484FF4B472BC
:103EF00005F06CFF4FF4B471224805F060FF4FF0FD
:103F0000804350B1012832D01E491F484FF4D3726C
:103F100005F05CFF4FF4D371EEE7D3F81814D3F833
:103F20001824C80317D502F00303012B04D013B1E2
:103F30000020FFF71BFF00234FF08042C2F8183526
:103F40000023C2F80431D2F804310223C2F804334A
:103F5000012393600AE0D3F81424D107EBD5D3F8FA
:103F60001C249207E4D40222C3F8042308BD0022D3
:103F7000C3F80021D3F80021C3F804031860F5E763
:103F8000100A002054BE00000DB1000008B5094B16
:103F90001B7953B90849094840F2AD1205F016FFE4
:103FA000054840F2AD1105F00AFFBDE80840FFF7F3
:103FB000DDBE00BF100A002054BE00000DB100009D
:103FC00010B54FF08043D3F800216AB10022C3F846
:103FD0000021D3F800210122C3F80823114B58799E
:103FE00010B95A711B6898474FF08043D3F80421E9
:103FF00072B10022C3F80421D3F80421D3F81824A5
:10400000D3F81824920704D10122C3F818259A6026
:1040100010BD0222C3F80823024BBDE810401B6804
:1040200001201847100A0020034A430900F01F002E
:10403000D35C1844C0B2704743BF000008B5FFF717
:10404000F3FF034B083033F8100000F0010008BD07
:10405000C400002008B5FFF7E7FF034B083033F832
:104060001000C0F3401008BDC400002008B5FFF7E1
:10407000DBFF044B083033F8100010F01C0018BFB1
:10408000012008BDC400002008B5FFF7CDFF034B99
:10409000083033F81000C0F3400008BDC400002011
:1040A00008B5FFF7C1FF034B083033F81000400B91
:1040B00008BD00BFC400002070B50546FFF7B4FF7F
:1040C0000C4C08300E4634F81030DA0508D5C3F32E
:1040D000432304EBC302284654F833305268984710
:1040E000A3682BB1E26831462846BDE87040184706
:1040F00070BD00BFC400002010B5FFF795FF184A3F
:10410000083032F81030D9051DD5C3F3432123F40C
:10411000F85322F8103002F10E04002034F8023F68
:1041200013F4807F03D0C3F3432399420BD00130B3
:104130003028F3D100230B4842F83130FFF7F0FD6F
:10414000094B984200D110BD0849094840F25F125E
:1041500005F03CFE054840F25F1105F030FE00BF5F
:10416000C4000020380100200000AD0BD0BE0000CC
:104170000DB1000008B502680146104606F080F94E
:1041800050B91049104840F22F3205F01FFE40F29E
:104190002F310C4805F013FE02F01F0352090B608B
:1041A0000AD0012A0BD0074907484FF44E7205F098
:1041B0000DFE4FF44E71ECE74FF0A04008BD0348F0
:1041C000FCE700BFE9BA00000DB100000003005099
:1041D000072808B50AD90749074840F2AA2205F07E
:1041E000F5FD044840F2AA2105F0E9FD800000F544
:1041F000807008BD0EBF00000DB100002DE9F04138
:104200000024064625460127A046E0B2FFF7E0FF5E
:10421000A0F58072920807FA02F2164209D000F166
:10422000804303F5C043196819B1C3F800801B68C7
:1042300015430134082CE8D1064BD3F87C2132B168
:104240000022C3F87C21D3F87C3145F00045284694
:10425000BDE8F081006000402DE9F04385B00546DF
:1042600090461E46FFF7E0FE0F460446E1B12846A1
:1042700006F018F930BBCDE900008DF80E008DF87E
:104280000F003B460DF10F020DF10E01284606F01E
:1042900014F94A4A04F1080132F8113023F00203FC
:1042A00043F0010322F81130B8F1000F31D0284655
:1042B00098F80070D8F80490FFF7E6FE20B1B9F145
:1042C000000F1BD03E4826E03C4B04F1080C33F8AD
:1042D0001C1021F02001C904C90C23F81C10B9F1ED
:1042E000000F0BD0032FEDD8D8F8042092F800E08F
:1042F000A7B9344B0EF5A27E43F82E702F4A04F175
:10430000080132F8113023F01C0343EA870322F836
:1043100011304EBB2C4805B0BDE8F0834FEA8E0249
:1043200002F1804202F5C04241EA4E31D2F8100556
:1043300020F00300C2F81005D2F8100520F44F3029
:1043400020F44070C2F81005D2F81085280200F45D
:104350007C5040EA080040EA074041F0200123F881
:104360001C10C2F81005C9E7D6E900762846FFF709
:10437000C3FE002FCED0114DD5E90023974201D1C5
:104380009E4218D011480DF10F01FFF7A5FC0E4B0E
:104390009842C0D19DF80F2045F8327005EBC2035A
:1043A00008345E6035F8143043EA422343F48073E6
:1043B00025F81430AEE70022EEE700BFC40000206D
:1043C0000400AD0B006000400000AD0B3801002080
:1043D000F0B585B004461646FFF726FE054629B31C
:1043E0002046FFF751FE20B92046FFF733FE002894
:1043F0005ED12046FFF73AFE10B14B78012B57D023
:1044000001238DF80F300023CDE900134A1C8B1CCB
:1044100020460DF10F0106F050F8264A05F108017B
:1044200032F8113043F0030322F8113016B9224854
:1044300005B0F0BD2046FFF727FEC8B31D4F96F824
:1044400000C005F10800614637F81050890025F0DA
:10445000200501F18041ED0401F5C041ED0C27F884
:1044600010500023C1F810357278002ADFD0D1F83F
:104470001035B67823F4991323F4F853C1F81035A6
:1044800012042302D1F810E502F4403203F47C5305
:104490001343320543EA0E0302F4801245EA4C3519
:1044A000134345F0200527F81050C1F81035BEE73A
:1044B0000248BDE7C40000200000AD0B0400AD0BB6
:1044C000014BC3E902017047C400002010B5044647
:1044D00051B90D490D4840F2652205F077FC0A48B4
:1044E00040F2652105F06BFCFFF7B4FD50B12046AA
:1044F000FFF79AFD064B083033F8103005485B0B88
:104500000B7010BD0448FCE7D0BE00000DB10000E8
:10451000C40000200000AD0B0400AD0B70B5194DB8
:1045200095F8784064BB6022214605F1100006F042
:1045300000FA2646E0B2FFF74BFEA0F580739B0819
:104540001F2B04BF00F1804000F5C04004F10104BE
:1045500004BF06600368082CECD10B4C0023C4F8A0
:104560007C310620D4F87C31FCF7DAFD4FF00043B3
:10457000C4F804330548012385F878306B6770BDB3
:104580000348FCE7C4000020006000400000AD0BC1
:104590000500AD0B034B93F87800003818BF0120DD
:1045A000704700BFC400002001460148FFF7B8BBB8
:1045B0003401002001460148FFF78EBB3401002082
:1045C00073B504460D46FFF751FD50B92F493048E9
:1045D0004FF4597205F0FAFB4FF459712B4805F06E
:1045E000EEFB2046FFF736FD20B32046FFF74CFDDB
:1045F0000646F8B92046FFF753FD0446FFF7E8FDED
:1046000000F1804303F5C0431E601B6823B29B008A
:1046100003F1804303F5C043D3F8102542F00102B3
:10462000C3F8102525B11B4A0123A340C2F8043367
:1046300002B070BD45B91549154840F2733205F016
:10464000C5FB40F27331C9E72046FFF7EDFC124B82
:10465000083033F81030C3F38203042B12D0052B3B
:1046600012D001A80194FFF785FD019BD0F8101529
:10467000D94001F001010231204602B0BDE870408E
:1046800005F068BF0321F7E70221F5E7D0BE00007F
:104690000DB1000000600040C400002010B50446C9
:1046A000FFF7D8FCC0B12046FFF7EEFCA0B92046CA
:1046B000FFF7F6FC0B4A01238340C2F8083303B22C
:1046C0009B0003F1804303F5C043D3F8102522F08B
:1046D0000302C3F8102510BD20460021BDE810409C
:1046E00005F038BF0060004013B50446FFF7A6FC94
:1046F00060B32046FFF7D2FF2046FFF7ABFC40B186
:104700002046FFF7CDFC124B00F5A270002243F8C3
:1047100020202046FFF7F0FC2046FFF785FC0D4BDC
:1047200001940830002223F8102001A8FFF722FD91
:10473000019B00EB8300084BD0F80027134043F0A7
:104740000203C0F80037054802B010BD0448FBE77B
:1047500000600040C4000020F0F8FCFF0000AD0B3A
:104760000400AD0B2DE9F04F654BD3F80403C0B244
:1047700087B040F00040FFF741FD051E80F2A380A6
:104780004FF0A043D3F820250492C3F82025D3F896
:1047900020280592C3F820280DF110084FF00009D9
:1047A000584B09EB030B51E09BF8004091FAA1F143
:1047B000B1FA81F141EA44142046FFF735FC524B2F
:1047C0000394083033F81070C808012301F0070182
:1047D00003FA01F118F8003023EA0103BA0808F8D7
:1047E000003003A80192FFF7C5FC039B019A03F573
:1047F000E073C7F3820650F82330C3F3014A53072E
:1048000037462FD531462046FFF756FC03A80394C0
:10481000FFF7B0FC039B03F5E0735FFA8AFA50F8E8
:104820002330C3F301439A4507D10021204605F008
:1048300091FE5146204605F08DFE03A80394FFF734
:1048400099FC039A01239340C0F82035D8F8001052
:104850000029A9D108F10408B9F1000F1DD14FF0CA
:1048600001099DE7BAF1020F0CD10321204605F0A2
:1048700071FE06F00503012BDFD139462046FFF714
:104880001BFCDAE70221204605F064FE032EF4D07B
:10489000BAF1030FD1D1022EEEE74FF00040FFF73F
:1048A000ADFC4FF0A0421949D2F820350493C2F86C
:1048B0002035D1F8202505921343C1F820257FF437
:1048C0006BAF25F00045012415B907B0BDE8F08FA6
:1048D00095FAA5F3B3FA83F304FA03F29B0003F10C
:1048E000804303F5C04325EA0205D3F81005D3F849
:1048F0001015C0F30520C1F30141FFF7DDFBE3E72D
:104900000060004053BF0000C400002000030050BE
:10491000A0F58072920801239340084A13420BD0FD
:1049200000F1804000F5A04002682AB10022026038
:1049300002680A681A430A60704700BFFE04080054
:1049400070B5044686B050B9274928484FF4E07244
:1049500005F03CFA24484FF4E07105F030FA244D9C
:104960002E7B002E3DD107C885E80700214A03238E
:10497000C2F80C35D2F8A03523F01F0343F004032E
:10498000C2F8A0351C4B2022C3F880210520FCF77B
:10499000C7FB1A4A247A07CA03AB83E80700194603
:1049A000174A18488DF8124000F08EFF164B9842B7
:1049B00004460BD14FF47A71124805F009FE012329
:1049C000024600930F48314605F02CFE01232B735D
:1049D0004FF480524FF49063C5E90423204606B09B
:1049E00070BD0A4CFAE700BF61BF00000DB10000C6
:1049F000180A00200050004000E100E074AC000004
:104A0000194B0000400100200000AD0B0500AD0B6C
:104A1000044B0122C3F804249A60034AC3F8042318
:104A2000704700BF0050004086000800034BD3F8D9
:104A30003C0410F0030018BF0120704700500040F4
:104A400070B5204A86B0137A8DF8070023BB9DF815
:104A50000730032B05D1FFF7E9FF0130C0B28DF815
:104A600007009DF80730012BDCB217D0022C13D1C0
:104A7000154D6B7B03F0FF0173B91248917201264B
:104A8000168100F0A9FF0F4800F066FF6B686E7397
:104A900002940BB102A8984706B070BD0A4B5A7B2E
:104AA000002AF9D0094A4FF48F619460C2F80813C4
:104AB00000215973042102914FF48051C2F8081566
:104AC0005B68E6E740010020180A00200050004023
:104AD00010B50E4B0E4C1A783AB100221A702272A1
:104AE000BDE810400320FFF7ABBF627A6AB1A27A3B
:104AF0005AB10849012220460A601A7000F06CFF82
:104B00002046BDE8104000F027BF10BD1214002061
:104B10004001002000500040B0F5A07F08B508D14A
:104B200004480123837200F037FFBDE80840FFF717
:104B3000CFBF08BD4001002008B550B91249134845
:104B40004FF4077205F042F90F484FF4077105F072
:104B500036F9416801F06043B3F1005F11D102887A
:104B60000B4B0C48C3F81015C2F30802C3F8142508
:104B7000094A126802F48C62C3F804230122DA6144
:104B800008BD0648FCE700BF61BF00000DB1000092
:104B9000005000400000AD0B180A00200A00AD0BC9
:104BA00070B550B92C492D484FF40D7205F00EF92F
:104BB0004FF40D71284805F002F9436843B92649BE
:104BC000264840F2352205F001F940F23521F1E79F
:104BD0000268002A3BD003F06043B3F1005F38D194
:104BE0004FF02003EFF3118483F31288BFF36F8F2C
:104BF0001B4BD3F80C211AB1D3F80423120724D489
:104C000001251D6102884668C3F81065C2F30802D9
:104C1000C3F8142502681348D200C2F30B0292B203
:104C2000C3F81C25C3F80C150F490A69C2F3130217
:104C3000C3F808250A6802F01802C3F80423DD60EF
:104C400084F31188BFF36F8F70BD0848F8E70848F8
:104C5000FAE70848F8E700BF61BF00000DB10000A7
:104C6000005000400000AD0B180A00200B00AD0BF7
:104C70000600AD0B0A00AD0B012318B9044A5372AC
:104C8000FFF726BF00F1804000F5A04003607047A9
:104C900040010020292813D10D4BD3F8202412F015
:104CA000010F4FF0010214BF9A625A62084B4FF491
:104CB0008052C3F808254FF48F62C3F80823704769
:104CC00000F1804000F5A04001230360EEE700BF43
:104CD0000050004008B550B93449354840F2D92257
:104CE00005F074F8314840F2D92105F068F80378EE
:104CF000032B0DD8DFE803F0020E1D2A43682D4A6E
:104D0000934228BF13462C4A516999424CD81361EB
:104D10002A4808BD4368274A934228BF1346264ABB
:104D20001169994240D35361254A9BB2C2F80435B8
:104D3000EEE70179032937D8214AD2F8A43523F0C8
:104D4000600343EA4113C2F8A435E1E7027A4368FD
:104D5000042A27D00A2A23D15A781978120242EA63
:104D6000014299780A4316490333C1F898258021F6
:104D70005A781878120242EA0042987802431048A2
:104D80000333C0F894251B680D4A1BBAC2F890354E
:104D9000D2F8A03523F0C0030B43C2F8A035B7E723
:104DA0004021E5E70021EEE70648B2E761BF0000D9
:104DB0000DB10000FFFF0F00180A00200000AD0B2E
:104DC000005000400400AD0B034AD2F89C3523F09C
:104DD0000103C2F89C35704700500040034AD2F8E6
:104DE0009C3543F00103C2F89C35704700500040E9
:104DF00030B585B0002369464FF480700093FFF70B
:104E000087FD4FF48270FFF783FD4FF48470FFF746
:104E10007FFD4FF48670FFF77BFD4FF48870FFF73E
:104E200077FD4FF48A70FFF773FD4FF48C70FFF736
:104E30006FFD4FF48E70FFF76BFD4FF49470FFF72A
:104E400067FD4FF49670FFF763FD4FF49870FFF71E
:104E50005FFD4FF49C70FFF75BFD4FF4A470FFF70C
:104E600057FD4FF4A670FFF753FD4FF4A870FFF7FE
:104E70004FFD009C14F040051EBF6C4BD3F810256D
:104E8000D3F82435A30704F0040200F1BA802AB154
:104E9000664BD3F80433580700F1C480A2060FD53F
:104EA000624BD3F804339B060AD50023CDE90133C6
:104EB0000393202300935E4B5B680BB168469847D1
:104EC00035B35A4AD2F804335D0621D54023002178
:104ED000CDE90031D2F810350393D2F82435C3F36D
:104EE0000B03103BC3F3CC03600502930BD5D2F840
:104EF00004335B0507D5D2F80C3403F00D0301939E
:104F00000D23C2F80C344A4B5B680BB168469847D6
:104F100025032BD5454BD3F80423100326D50022B7
:104F2000C3F81821D3F81811C3F82821D3F8281191
:104F30003F48C3F80C21D3F80C11C3F81021D3F863
:104F400010110169C1F31301C3F808150D21C3F84D
:104F50000C140121C3F804144FF400230093436898
:104F60000392CDE901220BB16846984721061BD573
:104F70002E4BD3F80423120616D5D3F804140022BE
:104F8000CDE901220392CD074FF08002009207D5B0
:104F90000122C3F80424264B5B680BB1684698478E
:104FA000224B0122C3F80424200713D51F4BD3F84A
:104FB000042311070ED51E4A52685AB108210091E8
:104FC000D3F810150291D3F81C35C3F3C80301932D
:104FD00068469047E20612D5144AD2F80433DB063D
:104FE0000DD50023CDE9013303931023009318233B
:104FF000C2F808330E4B5B680BB16846984705B0A2
:1050000030BD0A4BD3F8041389077FF540AF5AB17E
:10501000D3F8043313F0040F0CBF02200320FFF772
:105020000FFD3BE70120FAE70220F8E700500040BF
:10503000180A0020044AD2F80034DB07FBD50160CF
:10504000BFF35F8F704700BF00E0014008B54FF02D
:1050500080531A6959694A43904207D21A69B0FBD2
:10506000F2F302FB130363B10D4818E00D490E483B
:1050700040F2071204F0AAFE0A4840F2071104F0B9
:105080009EFE0A4B0222C3F80425C3F80805D3F894
:105090000024D207FBD500220548C3F8042508BD2B
:1050A0000A00AD0BA7BF00000DB1000000E00140F9
:1050B0000000AD0BF8B50D460121044605F059FA84
:1050C00050B91149114840F2951204F07FFE40F2A8
:1050D00095110D4804F073FE14F0030708D00A4937
:1050E0000A484FF4CB7204F071FE4FF4CB71F0E735
:1050F000074E0123C6F8043529462046FFF79AFFDC
:10510000C6F80475F8BD00BFA7BF00000DB10000D0
:1051100000E0014001460148FEF7DEBD4C010020E1
:1051200070B5414D95F8304044B94049404871222E
:1051300004F04CFE71213D4804F041FE30B93B497A
:105140003B48722204F042FE7221F4E700F0604610
:10515000B6F1005F63D1860761D1012C01D09C427A
:105160005FD12C6804BB022B324B0BBFC3F8102558
:10517000C3F80425C3F81405C3F808050BBFC3F82A
:105180001815C3F80C15082204220021C3F80011D9
:1051900002F1804303F5243301221A60254AD2F834
:1051A0000031002BFBD00DE0AE68224C66B1022B23
:1051B000E8606961EA612BD1C4F81025C4F81405D0
:1051C000C4F818151C4870BD022B85F830300CBF90
:1051D000082304232961AA61A86003F180430BBF5F
:1051E000C4F81025C4F80425C4F81405C4F808054B
:1051F0000CBFC4F81815C4F80C150E49002203F5AD
:105200002433C1F800210122C1F804231A60D9E730
:10521000C4F80425C4F80805C4F80C15D2E70748FB
:10522000D1E70748CFE700BF300A0020ECBF0000FD
:105230000DB10000009002400000AD0B0A00AD0B64
:105240000B00AD0B38B5074D4CF25034D5F800319A
:1052500033B90A2005F008F9013CF7D1024838BDFE
:105260000248FCE7009002400700AD0B0000AD0BC8
:10527000084B9A685A621A699A629A69DA62DA681D
:105280009A6032B15A691A61DA699A610022DA6069
:1052900070477047300A002008B543090CD0012B35
:1052A0001ED01449144840F22F3204F08FFD1148EB
:1052B00040F22F3104F083FD4FF0FF33C340DA0793
:1052C000EFD54FF0A04202EB80020C4BD2F8000762
:1052D000034043EA012343F00203C2F8003708BD4C
:1052E00000F01F004FF6FF73C340DB07D9D5044A17
:1052F000E9E700BFE9BA00000DB10000F0F8FCFFDB
:105300000003005010B50E4B0238D3F83C26D3F8FA
:105310003836072813D8DFE800F0110F0D0B0A0804
:105320000604100EC871100C8871100A48710A71B9
:105330001A0ECA701A0C8A701A0A4A700B7010BDC5
:1053400000900240023807281FD8DFE800F0292724
:10535000251123211F04CB791B068A7943EA0243D6
:105360004A7943EA02230A7913430E4AC2F83C36CB
:10537000CB781B068A7843EA02434A7843EA022341
:105380000A781343074AC2F8383670470023E4E727
:105390000023E5E70023E6E70023EBE70023ECE743
:1053A0000023EDE70090024070B590F825300446E8
:1053B0001BB190F82620002A59D16068FF2800F020
:1053C0009380A268FF2A00F08F80E268FF2A00F035
:1053D0008B802269FF2A00F08780D3B90321FFF771
:1053E0005BFFA0680321FFF757FFE0680321FFF789
:1053F00053FF20690321FFF74FFF6069FF2802D0A8
:105400000321FFF749FFA069FF2802D00321FFF71E
:1054100043FF94F8263053BB6268344BFF2A08BF21
:105420004FF0FF32C3F82425A268FF2A08BF4FF0CF
:10543000FF32C3F82825E268FF2A08BF4FF0FF3289
:10544000C3F830252269FF2A08BF4FF0FF32C3F8A6
:1054500034256269FF2A08BF4FF0FF32C3F83825B0
:10546000A269FF2A08BF4FF0FF32C3F83C25204E47
:1054700094F825301D4D86F831300023C5F80031F1
:1054800001232B60FFF7DEFE1A4B98422BD02368D6
:10549000C5F84035A37F617F227F9B0143EAC103AA
:1054A0001343E27F43EAC213C5F84435D5F800261A
:1054B00094F8203022F07F4222F0FF02134394F848
:1054C000212043EA026394F8222043EA426394F8DD
:1054D000232043EA0273C5F80036336813B129204C
:1054E000FBF71EFE044870BD0448FCE70090024034
:1054F000300A00200700AD0B0000AD0B0400AD0B1F
:10550000F8B550B9144915484FF4A67204F05EFC82
:1055100011484FF4A67104F052FC114C94F830700D
:10552000BFB9104D0126C4E90012C5F80863FFF7A2
:105530003BFF0D4B98420DD1C4E9027784F83060EF
:10554000C5F80065C5F800712E60BDE8F840FFF7AA
:1055500079BE0648F8BD00BFECBF00000DB10000E9
:10556000300A0020009002400000AD0B0500AD0B9A
:105570002DE9F04115462B4A92F83020044652B9E5
:1055800029492A484FF4C77204F020FC4FF4C77130
:10559000254804F014FC012A41D111B14078FFF7ED
:1055A000D1FE234EDFF88C8001230027C6F8083394
:1055B000C6F800713360FFF745FE404502D11D4833
:1055C000BDE8F081C6F80071A37862781B0343EA56
:1055D000022322781343E27843EA4233227943EAF2
:1055E0008233627943EAC233C6F83436FFF72AFEC3
:1055F00040450BD12379002BE1D10B490B4840F2F8
:10560000B91204F0E3FB40F2B911C1E7C6F800712A
:105610001DB160782946FFF775FE0748D0E70748B7
:10562000CEE700BF300A0020ECBF00000DB1000043
:10563000009002400700AD0B0000AD0B0B00AD0B5E
:105640001FB50D4A02920DF107020023114602A870
:105650008DF80730ADF80C30FFF78AFF074B984202
:1056600006D19DF8073013F0010F054B18BF1846FF
:1056700005B05DF804FB00BF050200010000AD0BA2
:105680000B00AD0B2DE9F8432D4E96F8303053B991
:105690002C492D484FF4177204F098FB29484FF419
:1056A000177104F08CFB2920FBF748FD274BD3F83A
:1056B000342602F44032B2F5803F04BF244AC3F8D6
:1056C00034264FF080510122C3F808231A61D1F823
:1056D0003011082908BF5A651C4B0022C3F8002569
:1056E000C3F8002196F831202ABBD3F82405D3F85B
:1056F0002895D3F83085D3F83475D3F83855D3F8D6
:105700003C45C0B204F057FF5FFA89F004F053FF44
:105710005FFA88F004F04FFFEDB2F8B204F04BFFEF
:10572000FF2DE4B202D0284604F045FFFF2C02D042
:10573000204604F040FF002386F83030BDE8F883AF
:10574000300A0020ECBF00000DB1000000900240C4
:105750000001030010B51A4A92F8303053B91949C4
:10576000194840F2862204F031FB164840F28621A7
:1057700004F025FB8C071ED114680CB1012B1CD141
:10578000042382F83030114BC3F81C150021C3F8F4
:105790002005C3F800110121D960106840B9D3F881
:1057A00000110029FBD0012382F83030084810BDD9
:1057B000C3F80413FAE70748F9E70748F7E700BF1B
:1057C000300A0020ECBF00000DB100000090024044
:1057D0000000AD0B0A00AD0B0B00AD0B10B5174B65
:1057E000D3F80021E2B10022154CC3F8002194F84F
:1057F0003020032A15D0042A15D0022A04D101230F
:1058000084F82030FFF734FDA36813B9012384F82E
:105810003030D4E9003100209847002384F820304C
:1058200010BD0223ECE7032284F82020D3F81C25C6
:105830006262D3F8203584F82830E5E70090024012
:10584000300A002070B51D4A0C68B2FBF4F304FB6B
:1058500013258DBB94422FD85C1E1C402CD1B3F570
:10586000007F29D802684D79D2F80465097926F0BD
:10587000030601F003013143C2F80415D2F80815FC
:1058800093FAA3F321F0030105F00305B3FA83F3C0
:105890002943C2F80815C2F810350068402300F506
:1058A0008072D450D1580433582BFAD140F30730CA
:1058B000FBF736FC024870BD0248FCE70024F40008
:1058C0000000AD0B0400AD0BF8B505791C4C0C23A2
:1058D0006B43E618377A87BBE25061B38B68194A8D
:1058E0007360036893420FD002F5805293420BD04D
:1058F00002F58052934207D002F58032934203D0E2
:1059000002F58052934202D14B79032B08D90E49FC
:105910000E488E2204F05AFA0B488E2104F04FFAFA
:10592000FFF790FF0C2303FB0544094BC21A5342B7
:1059300053412372F8BD0648F4E70648FAE700BF72
:10594000640A00200080004028C000000DB1000063
:105950000000AD0B0500AD0B10B50C4B02790C210E
:1059600001FB0232127A012A08D009490948C222F1
:1059700004F02CFA0648C22104F021FA04682260DF
:10598000027901FB023302221A7210BD640A002060
:1059900028C000000DB1000010B50C4B02790C219D
:1059A00001FB0232127A42B909490A48CA2204F0BC
:1059B0000DFA0748CA2104F002FA046801222261A4
:1059C000007901FB00331A7210BD00BF640A002089
:1059D00028C000000DB1000008B50A4B02790C2167
:1059E00001FB02331B7A43B907490848E62204F059
:1059F000EDF90548E62104F0E2F903680122DA60D6
:105A000008BD00BF640A002028C000000DB10000DE
:105A10002DE9F041154A00254023284601249958D4
:105A200029B198509958990804FA01F10D430433AB
:105A3000582BF4D10E4B0F4FD3F80463402406F4D7
:105A40007C164FF00108A30808FA03F31E4208D0A1
:105A50002B4206D03B6823B104F58070796880B290
:105A600098470434582CEED1BDE8F08100B10140D4
:105A700000B00140640A002008B5144BA8220021A0
:105A8000184604F056FF0322026111494261114A8F
:105A90008161C2614FF480620262002282624262CE
:105AA000C26201660C4941661021816603460267A5
:105AB000C2664267BFF35F8F084911F8010D985421
:105AC0000132102AF9D1BFF35F8F08BD700A0020A0
:105AD00070C00000231400201314002089C00000AF
