:100000000030002001210000C7A20000D520000020
:10001000D5200000D5200000D52000000000000001
:10002000000000000000000000000000ED1A0000C9
:10003000D520000000000000891A0000D520000033
:10004000A91B0000A91B0000A91B0000A91B0000A0
:10005000A91B00007DA90000A91B0000A91B00002E
:10006000A91B0000A91B0000A91B0000A91B000080
:10007000A91B0000A91B0000A91B0000A91B000070
:10008000A91B0000A91B0000A91B0000A91B000060
:10009000A91B0000B5420000A91B0000A91B00001D
:1000A000A91B0000A91B0000A91B0000A91B000040
:1000B000A91B0000A91B0000A91B0000A91B000030
:1000C000A91B0000A91B0000A91B0000A91B000020
:1000D000A91B0000A91B0000A91B0000A91B000010
:1000E000A91B0000A91B0000A91B0000A91B000000
:1000F000A91B0000A91B0000A91B0000A91B0000F0
:1001000053B94AB9002908BF00281CBF4FF0FF317E
:100110004FF0FF3000F00CB8ADF1080C6DE904CEE3
:1001200000F008F8DDF804E0DDE9022304B07047D0
:10013000704700BF2DE9F04786468C460846089E6A
:10014000154674461946002B40F0C2808542B2FA2B
:1001500082F245D94AB1C2F1200300FA02FC2EFA1C
:1001600003F3954043EA0C0C94404FEA154EA8B2B5
:10017000BCFBFEF8230C0EFB18CC08FB00F943EA8D
:100180000C43994528D9EB1808F1FF3704D299455B
:1001900002D9A8F102072B44A3EB0903A4B2B3FBD5
:1001A000FEFC0EFB1C330CFB00F044EA0344A042AF
:1001B00014D92C190CF1FF3304D2A04202D9ACF1AE
:1001C00002032C44241A43EA07401EB1D440002302
:1001D00034607360BDE8F0874746DDE76346F1E7CA
:1001E00092BB431B01214FEA154EAFB2B3FBFEFC9D
:1001F000200C0EFB1C330CFB07F840EA0343984528
:1002000062D9EB180CF1FF3004D2984502D9ACF159
:1002100002002B44A3EB0803A4B2B3FBFEFC0EFBCD
:100220001C330CFB07F744EA0344A7424ED92C19B0
:100230000CF1FF3304D2A74202D9ACF102032C44E3
:10024000E41B43EA0040C0E7C2F1200320FA03F1B7
:10025000954090402EFA03F303434FEA154EAFB298
:10026000B1FBFEFC0EFB1C10190C0CFB07F841EA5D
:100270000041884504FA02F422D969180CF1FF30D4
:1002800004D2884502D9ACF102002944A1EB08014F
:100290009BB2B1FBFEFC0EFB1C110CFB07F743EA03
:1002A00001439F420ED9EB180CF1FF3104D29F425B
:1002B00002D9ACF102012B44DB1B41EA004192E779
:1002C0006046E3E76146F7E76046A3E76346B7E7C2
:1002D000834206D916B9002108467BE7C6E900E04B
:1002E000F9E7B3FA83F78FB9834201D3724508D88F
:1002F000BEEB020460EB030301209C461EB9002103
:1003000068E73846FAE7C6E9004CF8E7C7F1200C81
:10031000BB4022FA0CF41C432EFA0CF120FA0CF329
:10032000B84001434FEA14490EFA07F5B3FBF9F858
:100330001FFA84FE09FB18300B0C08FB0EFA43EA87
:1003400000439A4502FA07F240D9E31808F1FF305A
:1003500004D29A4502D9A8F102002344A3EB0A0370
:1003600089B2B3FBF9F809FB183308FB0EFE41EA2A
:1003700003418E452CD9611808F1FF3304D28E4514
:1003800002D9A8F10203214443EA0040A0FB0298ED
:10039000A1EB0E014145CE46434602D306D14D4561
:1003A00004D2B9EB020E68EB04030138002EA6D08C
:1003B000B5EB0E0261EB030101FA0CFC22FA07F324
:1003C0004CEA0303F940C6E9003198E74046C5E727
:1003D0004346D9E7034611F8012B03F8012B002A05
:1003E000F9D17047034613F8012B002AFBD1181AE4
:1003F00001387047012908B502D0022905D008BD8F
:10040000BDE8084000200AF0C3B904490448FFF7DA
:10041000E1FFBDE8084000200AF0BDB92AB50000A0
:10042000E801002070B51A4E1A4A1B4B92B04FF4E7
:1004300080610446304609F02FF8184B08930025D8
:10044000022330468DF824308DF81C500A96FFF7B1
:10045000C9FF0123ADF830308DF83830104B0F93C1
:10046000104B109307AB119301AB0B9004930CA9A5
:10047000032304A8CDE905350D950AF0C8F9002835
:1004800004DB0949224604A80AF088F912B070BDBD
:100490000C12002033B50000E80100202CB600004B
:1004A000E6C30000E3A800000C1A002030B587B0B6
:1004B00041484FF48064009409F064FA03F010FDA1
:1004C000002805DA3D4809F05DFA012000F0E2FD60
:1004D00000F094F8002801DA3948F4E73948214659
:1004E00000F0DCF8002801DA3748ECE73748002153
:1004F00008F068FB002801DA3548E4E76846FFF7B2
:1005000091FF002801DA3348DDE70099324808F00E
:1005100085FB002801DA3148D5E708F01DFC0028EA
:1005200001DA2F48CFE72F482F4C2B4D09F02AFA3C
:100530004FF40040002107F00BFD2368B3F57A7FEC
:1005400005DA2A4A0133236013680133136008F087
:1005500013FC2368264A142101A808F09DFF4FF4DC
:10056000806201A923480AF03AFC4FF48063684690
:100570000093FFF757FF00280BDA164809F002FA3C
:100580004FF48061284600F04DF8002809DA1A4837
:1005900099E70099284608F041FB0028F0DA0F4857
:1005A000ECE708484FF4806100F078F800289BDB06
:1005B00008F0D2FBBCE700BF36B5000058B500001C
:1005C0006BB500000C16002084B50000F503000098
:1005D0009CB50000BBB500000C1A0020D3B500008C
:1005E000E8B5000001B600004408002040080020E3
:1005F00019B60000E80100201DB600000648074BB0
:1006000010B5836200F092FD041E02DA044809F07E
:10061000B9F9204610BD00BF00000020E8AF00007F
:100620002EB6000002460B460148012100F018BF1B
:10063000000000207FB50B6803AE023B05460C4668
:10064000039308490096831C0E22012003F094FCBA
:1006500030B93146284609F014FE08B9039B2360DF
:1006600004B070BDCFB6000037B5019101A90546B1
:10067000FFF7E0FF041E05DA064809F083F920467B
:1006800003B030BD01992846FFF7CCFF041EF6DA0F
:100690000148F2E746B6000066B6000070B50B46AA
:1006A000024605460E460A48012109F0D6FD041E01
:1006B00008DC084809F066F931462846BDE8704074
:1006C000FFF7D2BF044809F05DF9204670BD00BFB6
:1006D000000000209BB6000082B6000010B5094C57
:1006E0000A44914200D110BD11F8013B5840030962
:1006F0000001E35CC0B2434018091B01205CDBB27F
:100700005840EEE7DDB60000014B1B68184700BFFC
:1007100030000020014B1860704700BF30000020FF
:1007200030B585B004460D461022002168460AF017
:10073000CEFB02238DF802302A46044B019321465A
:10074000684608F0D5FE05B030BD00BF09070000BF
:1007500080B505460E461746984607F025FC034629
:100760000AF0C6FBDFF81890044649F8003042460C
:1007700030463946A84754F8090001F041FD00BF52
:100780000800000038B551B302680B1F9B1AD90846
:1007900023F0070313445C88E00708D4104911488C
:1007A000AF2209F004FBAF210D4809F0F9FA104619
:1007B00009F0F5F8084432F83050401B814206D069
:1007C00007490848B72209F0F2FAB721ECE724F00C
:1007D00001045C80BDE83840104609F09DB938BD81
:1007E000FEB600001FB700002DE9F8434B1E0B407A
:1007F00006680F46144611D0C1F1000909EA010943
:100800004A46042A03F1FF3128BF042219420CD1C1
:100810001F46C4B900252846BDE8F88304290FD82F
:10082000BDE8F843114609F0A8B92B492B484FF40D
:10083000A27209F0BCFA28484FF4A27109F0B0FA8C
:1008400099460422E5E7B368B3EBD40FE2D904F18B
:100850000B013944891AC908304609F0F6F8804678
:100860000028D7D009F1040505EBC0057B1E3544EF
:100870001D44B5FBF7F57D43A5EB09052C442B1F63
:1008800007349B1B24F00704A41BB0EBD30F4FEAE3
:10089000D3074FEAE40408D201463A46304609F04D
:1008A00021F94146304609F07FF83946304609F0D3
:1008B00076F83844844207D23046224609F012F9CD
:1008C0002146304609F070F806EBC706738843F0FE
:1008D000010373809FE700BFFEB600001FB7000052
:1008E000B2F5802F2DE9F0410AD33449344840F263
:1008F000EB1209F05CFA40F2EB11304809F050FAC3
:10090000042A08D82D492E484FF4F97209F04FFAFD
:100910004FF4F971F1E7043ACD1D8E1825F0070563
:1009200026F00706761B172E4FEAD60708D823496C
:10093000234840F2FB1209F03AFA40F2FB11DCE7DF
:10094000B7FA87F4C4F12002C4F12404A4000734E8
:10095000E408631C4FF00008BB420560AF60C5F8B7
:100960000C8008D9154916484FF4037209F01FFA94
:100970004FF40371C1E74146920005F110000AF0FF
:10098000A6FA630043F001036B8005EBC4023B1B36
:100990005900A5F800805180AA1925F83440A2F822
:1009A0000280AB5305EBC70321465A8842F001028F
:1009B0005A802846BDE8F04108F0F6BFFEB60000B8
:1009C0001FB700002DE9F84F04460846A38B19070E
:1009D000164612D4022803F0070162D1204609F01E
:1009E00010F988B10138042800F22181DFE810F005
:1009F00059001F017E00C400F10001280CBF43F024
:100A0000100143F02001A18304F1140006F036F830
:100A1000002800F0A98086F31188BFF36F8FBDE82E
:100A2000F88F03F00702501F01281ED80020062A65
:100A30002768C4E9000014D13A4603E0E08B013096
:100A4000E0831268002AF9D123F0070343F0020281
:100A5000A283204609F0D5F890B342F02002A28389
:100A60002EE023F007039AB2F2E7042A33D123F0F1
:100A700007039AB2A283204609F0C3F810B142F0EE
:100A80002002A283A38B03F00709894540F0D88098
:100A9000A18BCA0640F11E8121F01003A38301F04F
:100AA0000701D4F81880A38BB8F1000FB9DA00223F
:100AB000276823F00703C4E9002243F00103A3835E
:100AC000A38B03F00709894540F0BB80002FDFD0DE
:100AD0000025AA463EE08449844840F21B1209F0F2
:100AE00066F940F21B11804809F05AF941B17E497C
:100AF0007E484FF4AB7209F05AF94FF4AB71F2E74C
:100B0000236843B97849794840F2571209F04FF900
:100B100040F25711E7E723691D6845B972497348E8
:100B20004FF4AD7209F043F94FF4AD71DBE7A38BDD
:100B300023F0070343F006039BB2A3830F468846C6
:100B40004FF00609A268002A7DD1002F7ED1002D2A
:100B50009ED0BA4643F0080304F1140BA383584611
:100B600005F08CFF002873D161496048F02209F03C
:100B70001EF9F0215E48B7E7022908D05A495B48C0
:100B800040F25D1209F013F940F25D11ABE7E78B1B
:100B900047B1554955484FF4AF7209F008F94FF481
:100BA000AF71A0E723695D6845B94F494F4840F2EE
:100BB000611209F0FCF840F2611194E7A38B23F075
:100BC000070343F004039BB2A383B8464FF0040924
:100BD000B8E7012908D0444944484FF4B27209F0FB
:100BE000E6F84FF4B2717EE7236843B93E493F48C7
:100BF00040F2651209F0DBF840F2651173E72369F2
:100C00009D6845B9384939484FF4B47209F0CFF8B6
:100C10004FF4B47167E7A38B23F0070343F0050398
:100C20009BB20027A383B8464FF005098AE72E49F7
:100C30002E4840F26B1209F0BAF840F26B1152E7FD
:100C4000002700257EE74FF0010A83E7924681E7FF
:100C500086F31188BFF36F8FBAF1000F17D14FBB26
:100C600015B124492046A8474FF02003EFF3118621
:100C700083F31288BFF36F8F584605F0F1FE08BB6F
:100C80001B491A48722209F092F8722172E7A16892
:100C90000029E4D00E680029E1D0D1F804A0434631
:100CA0004A462046D0471EB1336831461E46F2E719
:100CB0003346FAE7394643464A4620463F6808F03D
:100CC000CCFFCCE7584605F0E9FEA38B23F00803E0
:100CD000A383DDE68B067FF597AE21F02003A38387
:100CE00001F007017AE600BF37B700001FB7000028
:100CF00059B70000F90C0000F8B504460D4600F1A4
:100D000014064FF02003EFF3118783F31288BFF32B
:100D10006F8F304605F0A4FE40B90A490A48722296
:100D200009F045F80748722109F03AF8304605F015
:100D3000B5FEA5613A4620460121BDE8F840FFF71F
:100D400041BE00BF59B700001FB700002DE9F047B2
:100D500004460F4608F071FF051E5CDB04F1140920
:100D60004FF02003EFF3118A83F31288BFF36F8FE4
:100D7000484605F075FE804638B93249324872223D
:100D800009F015F872212F483AE0484605F086FE32
:100D9000E38BA68B4FF6FF72934206F007063DD019
:100DA000022E0ED10133E3833546484605F066FE38
:100DB000002839D123492448F02208F0F8FFF02117
:100DC000E1E7062E13D8DFE806F0092C1212090419
:100DD00009006FF085054FF00008E6E700233B604F
:100DE00063687BB9C4E900777EB13546F3E71749FC
:100DF00015484FF4E47208F0DAFF14484FF4E47138
:100E000008F0CEFF1F606760EEE7524602212046E1
:100E1000FFF7D8FD35462846BDE8F0876FF00A0594
:100E2000D9E76FF00405D6E78AF31188BFF36F8F17
:100E3000B8F1000FEFD0002332463946204608F0C3
:100E40000CFFE8E759B700001FB7000037B70000F4
:100E5000F8B5054600F114064FF02003EFF31187B3
:100E600083F31288BFF36F8F304605F0F9FD38B970
:100E70001F492048722208F09AFF72211C4823E083
:100E8000304605F00BFEAC8B04F00704022C10D0AA
:100E9000012C0CBF6FF004046FF08504304605F0A0
:100EA000EDFDF8B912491348F02208F080FFF02157
:100EB000E4E7EB8B53B910490E4840F2EF1208F00B
:100EC00076FF0D4840F2EF1108F06AFF013B9BB23C
:100ED000EB83002BE2D13A4621462846FFF772FD0C
:100EE0002046F8BD87F31188BFF36F8FF8E700BF86
:100EF00059B700001FB7000037B700002DE9F041D7
:100F00000E460546002844D0002942D000F11407BF
:100F10004FF02003EFF3118883F31288BFF36F8F34
:100F2000384605F09DFD38B91B491C48722208F06F
:100F30003EFF7221184816E0384605F0AFFD3146F5
:100F40002846AC8B08F042FE78B104F00704231F5A
:100F5000022B0CD91249114840F22D2208F027FF2C
:100F60000F4840F22D2108F01BFF6FF07704384640
:100F700005F084FD30B908490848F02208F017FF51
:100F8000F021D7E788F31188BFF36F8F2046BDE8C3
:100F9000F0816FF01504F9E759B700001FB70000A2
:100FA00037B7000008B54268816002F00302032AE7
:100FB000034602D02AB1002000E0006800225A60F7
:100FC00008BD04490448452208F0F1FE01484521C6
:100FD00008F0E6FE86B700001FB700002DE9F341D8
:100FE00080460E46154600272A4601A9404608F0CD
:100FF0006EFE314604460246019809F040FF2D1B63
:101000002744264401D0002CEED13946404608F052
:101010007DFE40B106490748492208F0C8FE044851
:10102000492108F0BDFE384602B0BDE8F08100BF9E
:10103000A9B700001FB700002DE9F34180460D4617
:1010400016460027324601A9404608F074FE0446C1
:101050002DB102460199284609F011FF2544361B9F
:10106000274401D0002CEDD13946404608F083FEDC
:1010700040B1064906488E2208F099FE03488E21A9
:1010800008F08EFE384602B0BDE8F081A9B7000036
:101090001FB7000008B504464FF02002EFF311839C
:1010A00082F31288BFF36F8F02F032FE204601F008
:1010B00051F8034808F066FC00F00EFCFCE700BFA6
:1010C000D1B7000003F08AB92DE9F7430F46064671
:1010D0000821C06ADFF8509008F004FF3C68241A29
:1010E00080463C6004EA0905AC4203D8002003B006
:1010F000BDE8F08308236A462146304608F065FEC5
:101100000028F4D16946304608F0F6FE40B1BDF83B
:101110000230BDF804203C6005EA090513441D4473
:10112000A4EB0804E0E700BF0000FFFF2DE9F04753
:10113000044688B000F11407384609F080FDA06A23
:101140008368DB689847E06248B9AC48452109F0FC
:101150008BF86FF01505284608B0BDE8F087A06A47
:101160008368DB6898470368013B1F2B02D9A448BA
:101170004521ECE7A06A216805AA09F092F910B1AF
:10118000A0484521E3E7A5892DB1069BB5FBF3F205
:1011900003FB125515B19C484521D8E7E389012B83
:1011A00002D89A484521D2E7E36A009593F8049063
:1011B0004FF0FF334FF0FF32384605F099FCE06AFC
:1011C000082108F08FFEA8460646E3891FFA85FA33
:1011D000534508D8E389434523D1384605F03EFD01
:1011E0006FF02C05B7E7A1892B04891B13FA81F155
:1011F0004A4608232046009108F035FE78B169463A
:10120000204608F0F0FD08F10108009908234A463D
:1012100020461FFA88F808F026FE0028DAD00135AB
:10122000D3E753450BD1009908234A46891B204632
:1012300008F019FE18B96946204608F0D4FD694641
:101240002046FFF741FF054618B1384605F006FD78
:1012500081E7009B63604FEA13484FEA0848C4F8EF
:101260000880D4E9011399420FD3082301AA20462C
:1012700008F0ABFD05460028E7D101AB13F8012BC0
:1012800091453CD10135082DF8D163681B0C1B0436
:1012900069462046009308F0A6FDA38900994A46B6
:1012A000204608F0E0FD051ECFDB636869D006EB41
:1012B00003084FF6FF79A389CDF800801FFA88F262
:1012C0009B1B9A4237D35248492108F0CDFF6168F1
:1012D000204608F0EDFD05460028B6D163684D4A6A
:1012E000A18913400B44A3EB460363601340A36042
:1012F000204608F0E5FE0546002D5ED0A5E701A9D1
:10130000204608F0F9FD626810B9921B6260A8E7F8
:10131000BDF80850BDF80610E06AC4F808802944FA
:1013200008F0E0FD40449042A060EED1002DECD0EA
:101330006FF01C057AE0082303AA4146204608F016
:1013400044FD0546002880D103A9204608F0D4FDBD
:1013500038B1BDF80C304B4503D1BDF81030002B2F
:101360006AD0B044A7E75B1A4A46204608F07BFDE6
:10137000051EFFF66AAF08D0E26AA368126813443C
:10138000A360D4E901318B42EDD86168A38901EBF8
:1013900046029A42B0D1DFF87C80A26801EA0803D5
:1013A0009A42A9D0204608F083FD054600287FF424
:1013B0004CAF636803EA0803A360A389A288A3EB88
:1013C00046039A422ED0384605F048FC0123E289B4
:1013D000114823744921A38908F046FF62680F4829
:1013E00093B24921120C08F03FFFA2680C4893B257
:1013F0004921120C08F038FF0025ACE613B80000B4
:101400003AB800005CB8000079B8000092B800005B
:1014100003B900000000FFFFBAB80000D6B8000012
:10142000EDB80000204608F034FE0546384605F0C9
:1014300015FC002DCAD08EE60848492108F014FF9B
:1014400063681B0C1B0469462046009308F0CBFC24
:101450000099204608F02CFD4DE700BF2FB9000091
:101460002DE9F04F1D46037C89B00446894690461D
:101470004BB96448452108F0F7FE6FF00C06304682
:1014800009B0BDE8F08FC26A0821104608F02AFDB5
:1014900029468246104608F025FDA389A3EB8A035E
:1014A0009D42074600F2AB801DB1B8F1000F00F07D
:1014B000A6806368039304AA03A92046DDF80CB054
:1014C00008F052FD06460028D9D1BDF810304B4532
:1014D00005D06268039B9A42EDD1E5B9CFE704A934
:1014E000204608F009FD0028F3D0BDF81200BDF831
:1014F000143075B19D420ED14FEA1B4109040144DD
:101500002B464246204608F07BFC002803DC0646BA
:10151000B5E7002BB3D0002F3ED104F114030193A3
:101520004FF0FF324FF0FF3304F1140005F0E0FA02
:10153000DFF8D4B0E3899E425ED0D4E90123F918E4
:101540008A422CD3ADF81A3006A8FF238DF81E303E
:10155000ADF81890ADF81C5008F07CFCA1682B4643
:101560004246204608F04AFD29468246E06A08F0D5
:10157000B9FCA2680244A260BAF1000F07D106A923
:10158000204608F075FD002814BF8246AA4601983F
:1015900005F064FB564672E75744BFB2BDE7E06A08
:1015A000082108F09FFC4FF6FF73ADF818300021BA
:1015B0008DF81E30A389ADF81C10111802EA0B0239
:1015C0001A44101A606006A8ADF81A1008F042FC20
:1015D00006A9204608F04CFD211D204608F003FC1A
:1015E000636803EA0B03A360204608F069FD8246A6
:1015F0000028CCD101369DE76FF01B0AC7E76FF0DA
:1016000015063CE7FAB700000000FFFF2DE9FF4791
:101610001E46037CBDF8309004460F46904643B901
:101620002C48452108F020FE6FF00C0004B0BDE806
:10163000F087C06A082108F055FCA389A3EB40039A
:101640009E4243D8D4F804A0CDF804A00025A945B3
:101650005146DDF804A009D2636853451ED1BDF898
:101660000830BB421AD06FF00100DFE702AA01A9DF
:10167000204608F079FC0028D8D1BDF80830BB42DC
:1016800006D102A9204608F037FC08B10135ADB2F9
:101690006268019B9A42DAD15146E0E7BDF80C300E
:1016A000002BE0D0A945DED8BDF80A00090CB342F2
:1016B0004FEA014128BF334601444246204608F024
:1016C00084FB0028B2D1BDF80C00AFE76FF0150025
:1016D000ACE700BFFAB7000000F1744000F5A600C7
:1016E0000B289ABF024B18566FF00D00704700BFD1
:1016F00050B90000014807F027BD00BF38B2000014
:1017000038B5044618B90F4B0F485B6898476168B5
:10171000B1F5683F10D0B1F5680F0DD00B4DA9425F
:101720000AD011F46861206807D00146084805F026
:101730001DF800232360656038BD142209F0C7FB43
:10174000F9E700BF880100205CB900002C5F5CA9AC
:10175000480D002008B520B34368B3F5683F10D1A9
:1017600001220368BFF35B8F53E8001F002903D1F8
:1017700043E800200028F7D1BFF35B8F0DD1002094
:1017800008BD094A93420AD000684FF0FF324FF07B
:10179000FF3305F0ADF90028F1D00448F0E7044824
:1017A000EEE76FF4E040EBE72C5F5CA9E98FFFFF09
:1017B000EA8FFFFF08B5D8B14368B3F5683F10D191
:1017C00000220368BFF35B8F53E8001F012903D198
:1017D00043E800200028F7D1BFF35B8F0BD1002036
:1017E00008BD074A934208D0006805F037FAF6E7CB
:1017F0006FF4E040F4E70348F2E70348F0E700BF86
:101800002C5F5CA9E98FFFFFEA8FFFFF10B504464C
:1018100018B91D4B1D485B6898476368B3F5683F6E
:101820002FD0B3F5680F2CD0194A934219D12368F1
:1018300003BB18484FF0FF324FF0FF33214604F04E
:101840003DFF08B923681BB90F4B13485B689847E5
:1018500020681422002109F03AFB4FF468636360AA
:1018600008E0B3F5683F0DD83A2B03D040F6BA62D2
:101870009342DED1206809F0E2F9636843F03A034D
:10188000636010BD054AF3E7880100205CB90000E1
:101890002C5F5CA9480D002082B900003A00003A94
:1018A00008B5064906484023142209F0A4F9BDE80A
:1018B00008400449044807F0B9BC00BF48080020AC
:1018C000480D002040B2000054B20000014910222F
:1018D0000A60704710ED00E072B6404080F3118856
:1018E000BFF36F8FBFF34F8F30BF62B6BFF36F8F01
:1018F000704700BF72B6494081F31188BFF34F8F24
:1019000020BF80F3118862B6704700BF37B5054627
:101910000C46C9B18B680093D1E900230E484521DC
:1019200008F0A2FC63690093D4E903230B48452126
:1019300008F09AFCE2690A48452108F095FCA26982
:101940000848452108F090FC2146284603B0BDE830
:10195000304004F035BD00BFAFB90000E3B900006E
:1019600017BA00002BBA000040B2002807DB044A77
:101970004109012300F01F00834042F821307047E5
:1019800000E100E040B200280CDB4309064900F00A
:101990001F0020330122824041F82320BFF34F8FE4
:1019A000BFF36F8F704700BF00E100E0054B4209B5
:1019B00000F01F0053F82220012303FA00F010402A
:1019C000704700BF00E100E00131072908B508D9E0
:1019D0000D490E485C2208F0EAF90B485C2108F03A
:1019E000DFF940B20028ACBF00F16040084B4FEA7D
:1019F0004111B8BF00F00F00C9B2AABF00F56140A5
:101A0000195480F8001308BD5EBA00001FB700002B
:101A100014ED00E030BFFFF7FDBF00BF0B4A08B573
:101A20000B4B22F07F029A60BFF34F8FBFF36F8F93
:101A3000D3F8882022F47002C3F8882004F05CFDFB
:101A400006F0BAFB00F050FB04F0A8FD0000000017
:101A500000ED00E0094A0A49936809689967094955
:101A600058674B6843F080534B60002383F3118821
:101A7000BFF36F8F9368986F704700BF4C0F0020C3
:101A80001CB4000000ED00E015498A684FF03000FA
:101A90001044EFF3098C80E8F01F202080F31288B7
:101AA000BFF36F8F0F4F4FF000664A698A603E6048
:101AB0004FF07004141920680B4C2060506F002305
:101AC000536780F3118804B5104600F0BBFBBDE8F6
:101AD000044002F1300090E8F01F8CF30988704751
:101AE0004C0F002004ED00E0680D00201EF0040FF4
:101AF0000CBFEFF30880EFF30980816911F8021C35
:101B00000229FFD001B508F0D6FB01BD42F8203C08
:101B1000009B42F81C3C0A49019B42F8183C029B7E
:101B200042F8143C21F001014FF0807342F8043C6C
:101B300042F8081C0023203A02654367704700BF43
:101B400051070000094A0346906870B113F1160F5F
:101B5000006E05D0A0F140029A4205D8834203D21C
:101B6000814228BF00207047002070474C0F0020A2
:101B700008B514460A4A0B4B9060026F1A600D4676
:101B800000F060FB204685F30988002163B681F3ED
:101B90001188BFF36F8F00220023FEF7D9FD00BF2D
:101BA0004C0F0020680D002001B5EFF30580A0F177
:101BB00010004FEAC0000449014409C99847BDE834
:101BC0000140024908470000FCAF00002D1C000046
:101BD000114B124A2DE9F041D518DFF84480013D40
:101BE000B5FBF3F55D430F4B08EB0304013CB4FB7D
:101BF000F3F403FB04540E1B07460B49304609F06F
:101C00003EF9701942460021083E09F060F93E672E
:101C100004F10800BDE8F0810100000000000000B0
:101C2000040000000400000004B20000044B9968A6
:101C30005869884203D003494FF080520A607047C8
:101C40004C0F002004ED00E02DE9F8433D4D8046A7
:101C500089463D484521174608F006FBAB6ADA067F
:101C600026D53A48452108F0FFFA1124AB6A1B0734
:101C700004D53748452108F0F7FA1224314DAB6AF4
:101C80009E0717D53348452108F0EEFA6E6BAB6A14
:101C90001C0645D530483246452108F0E5FAB9F131
:101CA000000F03D0AB6A23F08003AB62132403E080
:101CB0001024DBE76FF01506224DAB6AD80704D578
:101CC0002648452108F0D0FA1424AB6A990604D5B9
:101CD0002348452108F0C8FA15241A4DAB6ADA06E4
:101CE00002D4AB6A9B070AD56B68180507D5414635
:101CF0003046FFF727FFB0B180F309880224114B6B
:101D00009A6A920642BF5A6A22F400525A629A6A4A
:101D100042F0FF029A6200233B702046BDE8F88340
:101D20006FF01506C2E7AB6AD906E8D50D490E4833
:101D300040F25D1208F03BF80A4840F25D1108F0ED
:101D40002FF800BF00ED00E094BA0000AFBA000029
:101D5000E7BA0000FFBA00001CBB000037BB000060
:101D60005BBB00008FBB00001FB7000010B5204C0C
:101D70002048452108F078FAA36A990136D51E4813
:101D8000452108F071FA1E20A36ADA0104D51B4828
:101D9000452108F069FA1F20154CA36A1B0304D5DE
:101DA0001748452108F060FA2120A36A590304D599
:101DB0001448452108F058FA22200D4CA36A9A03D2
:101DC00004D51148452108F04FFA2320A36ADB030C
:101DD00004D50E48452108F047FA2420044A936AA6
:101DE0006FEA03436FEA1343936210BD1D20CBE7F4
:101DF00000ED00E0C9BB0000E6BB0000FEBB000038
:101E00001DBC000040BC00006ABC000089BC000092
:101E100070B5284C06460D462748452108F024FA9F
:101E2000A36AD9043BD52548452108F01DFA17209F
:101E3000A36A1A0504D52248452108F015FA18208E
:101E40001C4CA36A9B0511D51E48452108F00CFACD
:101E5000A26BA36A180408D51B48452108F004FAB0
:101E60001EB1A36A23F40043A3621920114CA36A94
:101E7000590504D51548452108F0F6F91A20A36A3A
:101E8000DA050ED51248452108F0EEF91B20094A63
:101E9000936A43F47F43936200232B7070BD162036
:101EA000C6E7A36A9B04F2D50A48452108F0DCF98D
:101EB0001C20ECE700ED00E0B9BC0000D4BC000041
:101EC000E7BA0000EABC000008BD000022BD000027
:101ED00042BD00005BBB0000F0B56D4B0446586886
:101EE0008BB0C0F30803002585F31188BFF36F8F13
:101EF00002F07F46B6F17F4F07D102F00C06082EA4
:101F00000ED16448452108F0AFF9634963484FF4A6
:101F10008B6207F04CFF4FF48B615F4807F040FF86
:101F200016074CBF0C460125002CEED00026DA1E09
:101F30008DF80760092A00F29980DFE802F0058C2D
:101F400090779797979797945548452108F08CF983
:101F50008DF807604E4EF36A9A0705D55148452122
:101F600008F082F9002329E0F36A002B02DA4E48D8
:101F70004521F5E7F36A5B0064D54C48452108F03C
:101F800073F97369A26943F480737361BFF34F8F70
:101F9000BFF36F8F736932F8022C23F4807373617F
:101FA000BFF34F8FBFF36F8F4DF602739A4224D168
:101FB00022683F48452108F057F923689DF807201B
:101FC000CAB902AE04F1200720686168324603C234
:101FD0000834BC421646F7D1099A002D52D0C2F3FC
:101FE000080121B96FEA52226FEA4222099202A93E
:101FF0001846FFF78BFC0BB0F0BDB36ADBB23BB108
:102000000DF1070201212046FFF71EFE0346D5E72A
:10201000B36A13F47F4F05D00DF107010120FFF7DC
:10202000F7FEF3E7B36AB3F5803F02D3FFF79EFEF6
:10203000ECE71949194840F22A3207F0B8FE40F29D
:102040002A316AE71449154840F22E3207F0AFFEF4
:1020500040F22E3161E70DF107020021D3E70DF1C7
:1020600007010020DBE71348452179E71249134AAD
:1020700010F4F87F08BF0A461148103B452108F0CC
:10208000F3F86FE722F4FF7222F00102AEE700BF1F
:1020900000ED00E08DBD00008FBB00001FB7000009
:1020A000BDBD0000D9BD0000FFBD000012BE000094
:1020B00036BE000057BE00005FBD000074BD0000CA
:1020C00080BE0000024A536943F010035361704719
:1020D00000ED00E0EFF30880EFF3098101B57246EF
:1020E000FFF7FAFE01BD00BF044800232021C218FB
:1020F0000133302B82F80013F9D1704700E100E082
:10210000002080F31488BFF36F8FFEF7DBFF002001
:102110000D490860BFF34F8F0C4880F3088800F02A
:102120003DF8202080F3118809484FF404614018DD
:1021300080F30988EFF314800221084380F31488A8
:10214000BFF36F8FFFF76AFC94ED00E000300020D2
:1021500040220020BFF34F8F0549064BCA6802F4A6
:10216000E0621343CB60BFF34F8F00BFFDE700BFBA
:1021700000ED00E00400FA050749D1F890200023A3
:10218000C2F307221846934200DB7047C1F898302B
:10219000C1F8A0000133F6E700ED00E008B572B623
:1021A000002383F31388FFF7E7FF144B4FF0FF3250
:1021B000C3F88020C3F88420C3F88820C3F88C209B
:1021C000C3F89020C3F89420C3F89820C3F89C204B
:1021D000C3F88021C3F88421C3F88821C3F88C2177
:1021E000C3F89021C3F89421C3F89821C3F89C2127
:1021F00062B6BFF34F8FBFF36F8F08BD00E100E001
:10220000084B9B6883420BD1EFF3058343B1064B28
:102210005A6842F080525A605A6A22F400425A6266
:1022200005F0C8BE4C0F002000ED00E0024B034A51
:102230000348012100F07CB80000042000000020C9
:1022400064B20000026E054B403A1A60044A402115
:10225000C3E901121846012100F086B86C0D002078
:1022600000000B15F8B5244E00258D420FDA4468A6
:10227000002C3ED09BB104F1FF3C14EA0C0F08D0B7
:102280001E482A46452107F0EFFF6FF01502104661
:10229000F8BD1F2CF4D907681CEA070FF0D1202CD9
:1022A0000768D0F808C05FFA82FE10D9B4F1004F79
:1022B0000FD8013CB4FA84F4C4F11F046400BEF1E9
:1022C000070F4CEA040C06D90D484521DBE708242A
:1022D000F5E73E24F3E727F01F04144344F010040D
:1022E000C6F89820C6F89C404CF00104C6F8A040FF
:1022F000013201350C30B8E700ED00E09CBE000073
:10230000C4BE0000044B0522C3F89420BFF34F8FD6
:10231000BFF36F8F704700BF00ED00E0BFF35F8F2A
:10232000024B0022C3F89420704700BF00ED00E08C
:1023300010B50A4C01232278FFF794FF2070163065
:102340000AD10749074840F21B1207F030FD044844
:1023500040F21B1107F024FD10BD00BF0C1E002031
:10236000EFBE00001FB7000008B50F4A0023127827
:10237000FFF778FF10F1160F04D00C4B002207284E
:102380000BDD08BD0A490B484FF49D7207F00FFDA5
:1023900007484FF49D7107F003FDC3F89800C3F898
:1023A000A0200130EBE700BF0C1E002000ED00E094
:1023B000EFBE00001FB70000204910B50C68082CC4
:1023C0000AD91F491F484FF4A97207F0F0FC4FF4D7
:1023D000A9711B4807F0E4FCFFF7A0FF48681A4901
:1023E0000022944200F10C0012D1184B1C70FFF730
:1023F00089FFD1F89030C3F30723082B1BD0104975
:1024000010484FF4DC7207F0D2FC4FF4DC71E0E7C7
:10241000C1F8982050F80C3C23F01F03134343F0FD
:102420001003C1F89C3050F8043C43F00103C1F89C
:10243000A0300132D5E7002010BD00BF70B200000F
:10244000EFBE00001FB7000000ED00E00C1E0020F2
:1024500008B5024B1B689847002008BD780D002086
:10246000034B044A1860937843F00203937070475B
:10247000780D00205400002008B5044807F082FAC7
:10248000404080F311884FF0020002DF26BF0000B9
:1024900008B50649064821F00701C1F1005202F5CE
:1024A0008022FEF71DFA002008BD00BF933E0020E9
:1024B000803600200E4A0123C2F840354FF080429A
:1024C0004FF08051C2F87835D1F83001082808D192
:1024D000D1F83411052904D80648415C09B1C2F885
:1024E00038364FF080430122C3F880250020704722
:1024F00000E0014053BF000020B1034B800143F0D6
:1025000001031847704700BF30B2000037B50C46D2
:102510000A490B4A411A40230093491105462346B4
:10252000084807F0EFFE011E05DA2846234603B0EF
:10253000BDE83040184703B030BD00BF900D00200B
:102540006FA3000084AF0000C9B2012908B508D903
:10255000084909487A2207F02AFC06487A2107F040
:102560001FFC03690C2201FB0233986C00F007008A
:1025700008BD00BF5DBF00001FB7000070B5C9B245
:10258000012903690AD91849184840F25D1207F079
:102590000EFC154840F25D1107F002FC4FF02004DC
:1025A000EFF3118584F31288BFF36F8F0C2606FBBF
:1025B0000134A46C14F0C00408D0A24206D085F304
:1025C0001188BFF36F8F4FF0FF3070BD71430B4424
:1025D00001229A6485F31188BFF36F8F43680B441F
:1025E0005B6898470020F0E75DBF00001FB7000060
:1025F00070B50D460649411A044649110548402266
:10260000FFF7BCFF2B4601462046BDE87040184747
:10261000900D002084AF0000002270B50121044617
:102620001046FFF7D1F90F4802F076F80E4B9842AA
:1026300015D102F093F826690C49304607F023FBC8
:1026400000280BDB0125B5642469084904F120004A
:1026500007F019FB002801DB6565002070BD6FF0F5
:102660000400FBE7A52600000000AD0B90B20000BF
:1026700070B501460C2309484B43C418D4E91056E1
:10268000483300221844226407F029FE2DB1324657
:102690002B460348BDE87040184770BD900D0020E0
:1026A00084AF0000012808B506D0042808D090B9EE
:1026B0000E4B9B6C5B0717D1BDE80840FFF7D8BFF6
:1026C0000B490C4840F26E2207F071FB40F26E217C
:1026D000074807F065FB0649064840F2722207F0FA
:1026E00066FB40F27221F3E708BD00BF900D0020A9
:1026F0005DBF00001FB7000008B54FF02003EFF3E7
:10270000118183F31288BFF36F8F124A136843F06D
:1027100002001060DA0708D481F31188BFF36F8FCD
:102720000120BDE8084002F03BB84FF08043D3F8E9
:102730000C24D3F80C34DB07EED5074807F0CFFDA7
:1027400081F31188BFF36F8F0020BDE80840FFF7C9
:102750008FBF00BFE80D0020D80D00201FB500225C
:102760000123CDE90223094ACDF800D06B46CDF80C
:1027700004D007F0F5FD002805DB4FF4804200236C
:10278000684604F01FFB05B05DF804FB87A300005A
:1027900010B54FF02003EFF3118483F31288BFF3D9
:1027A0006F8F074A136823F00201DB07116002D420
:1027B000012002F04BF884F31188BFF36F8F10BD36
:1027C000E80D0020024BC0B203EB4010704700BF81
:1027D000900D00202DE9F0414449BFF35B8F064680
:1027E000012251E8003F41E800200028F9D1BFF361
:1027F0005B8F9BB93E493F484B60CB608A60FEF7D8
:10280000A5FA00280ADA3C493C484FF40C7207F05C
:10281000CEFA4FF40C71384807F0C2FA76B3731E43
:10282000012B59D8012E07D14FF08043D3F81C3427
:1028300003F00303012B21D008F0ECF90546F8B9A9
:102840002F4B1B78E3B14FF080430222C3F80823DB
:102850000746DFF8B0804FF08044D4F81824D4F84D
:102860001834D20316D503F00303012B01D0012E37
:1028700010D15DB387F31188BFF36F8FBDE8F0818E
:102880004FF02003EFF3118783F31288BFF36F8FAC
:102890000125DEE7ADB13846FFF72CF8D4F818353E
:1028A000002BDAD1D4F80421002AD6D0C4F80431A0
:1028B000D4F804310123C4F81835C8F88031A36076
:1028C000CBE70021212005F043FBE7E74FF08043F1
:1028D0000222C3F80423D1E70749084840F2422204
:1028E00007F065FA40F2422195E700BF8C0D002009
:1028F0007C0D0020B00D00205DBF00001FB7000060
:102900002322002000E100E008B5074808F04EF956
:1029100038B10648FFF7A4FD0448FDF7FBFE002090
:1029200008BD6FF01200FBE7C0AF000031290000C6
:102930000A2838B5074D044604D1AB680D215B6801
:1029400028469847AB6803485B68E1B29847204641
:1029500038BD00BFC0AF000000F1744000F5A60014
:102960000A289ABF024B33F910006FF00F0070472E
:1029700014B50000024B0B6001231360704700BFC9
:102980004CB3000000487047D0B20000054B99429C
:1029900006D14FF0FF324FF0FF33203004F012BA6F
:1029A000704700BF0000AD0BF7B54C6805461746F1
:1029B000ACB1D4E90043886898B1D0E9006088B12F
:1029C00083B1984207D10133092B0A780DD91648F3
:1029D000572107F049FC6FF0150003B0F0BD234606
:1029E000E9E7064601330344EEE78DF8013040F293
:1029F00001132869ADF8023000238DF804308DF8FA
:102A000000208DF8057007F0CAFC21463246684662
:102A100003F004FA0446286907F0CEFC204603B010
:102A2000BDE8F040FFF798BFC3BF000038B50569A7
:102A300095F840300446FBB9284607F0B0FC002268
:102A4000002305F1300004F0BDF9AB6B4BB90B4D21
:102A500003F04CFAA84209D103F06AFA084B0022AD
:102A60001A702069BDE8384007F0A6BC002140F28A
:102A7000676005F06DFAEBE738BD00BF0000AD0BF5
:102A80000D1E0020F8B5066996F840400546D4B9F9
:102A9000304607F084FC0D4F06F1300004F04EF98B
:102AA0003B785BB90A496868324603F07FF9FFF763
:102AB00053FFB0FA80F35B0904463B70286907F0C6
:102AC0007BFC2046F8BD0024FBE700BF0D1E002064
:102AD00093A300002DE9F84F15460A1ED0F8049084
:102AE000064605DBD9F8283051199942904609D994
:102AF0003B482B46452107F0B7FB6FF015042046F5
:102B0000BDE8F88FC2F30B02002DF6D0C5F30B031E
:102B10001343F2D1FFF7B6FF044660BB306907F0FC
:102B200045FC2146304607F04AFC044600BB3069AC
:102B3000DFF8B0A007F033FCD9F828309D421ED151
:102B400007F0E5FFAB46074630693946FFF71EFF41
:102B500057453AD1B5EB0B05D844EDD1306907F0B4
:102B60002BFC0121304607F02AFC002C08BF04464C
:102B7000306904F0E3F83046FFF758FFBFE7B5F5DA
:102B8000803F0AD31FFA88F353B94146012003F06E
:102B900037FA4FF4803B0746D6E7B5F5805F09D397
:102BA000C8F30B0030B9414603F02AFA4FF4805BBA
:102BB0000746C9E70C480D4F2B464246452107F012
:102BC00053FB0A493069FFF7E1FE09482B464246AC
:102BD000452107F049FB3846FFF7BEFE0446BDE736
:102BE000EBBF00000000AD0B3AC000000400AD0BCD
:102BF0005DC000002DE9F04143681E6B8AB00546B8
:102C000007AA0021304607F07CFC041E3FDB079B2F
:102C100032681979186807F087FC041E37DB002238
:102C200001212920FEF7D0FE6E682A6954493046FA
:102C300003F0BCF8FFF790FE041E28DB0022AB2354
:102C400007A92846CDE9072209928DF81C30FFF725
:102C5000ABFE041E1BDB232007F0A4FF737F023BA7
:102C6000012B18D996F81C80A8F10308B8F1010FC0
:102C70008CBF4FF000084FF00108284607F0B4FB66
:102C8000041E0BDA3F482246452107F0EDFA2046A4
:102C90000AB0BDE8F0814FF00108EEE7E2B2C4F3FC
:102CA0008014A04504AE05AF28D0002382F0400276
:102CB000ADF8103007A98DF8102028460122CDE983
:102CC0000623059609938DF81C200897FFF76CFEE4
:102CD000041E0CD0DBDA2C492C4A2D48B8F1000F29
:102CE00008BF0A462346452107F0BEFACFE728462B
:102CF00007F07AFB041EEEDBE307F8D42846FFF763
:102D000095FE4FF003080023CDE90683089328467B
:102D10009F2305968DF81C300997FFF7B3FE0246F6
:102D200028B12846FFF782FE6FF01204AFE707A92B
:102D30002846FFF739FE04462846FFF777FE002CA9
:102D4000F2D16D684246314605F12C0008F05FF87B
:102D5000044600289BD095F82E30039395F82D302B
:102D6000029395F82C3001939DF8123000939DF852
:102D700010209DF811300748452107F075FAD3E778
:102D800093A300008AC0000084C0000080C000003F
:102D90009FC00000B5C000002DE9F34705460F466F
:102DA0001E4690469AB193B1042B01D99A070ED1D1
:102DB000BB070CD1002F6A6803DB926ABB199342F0
:102DC0000BD93F4833463A46452107F04DFA6FF09C
:102DD0001504204602B0BDE8F0872846FFF752FEF2
:102DE0000446002864D1286907F0E0FA2146284605
:102DF00007F0E5FA0446286907F0D1FA002C45D11E
:102E0000032E1ED804213A460DEB010007F07CFE8C
:102E1000044601462869FFF7B9FD2A4B9C4235D18B
:102E20003246414601A808F02AF804213A460DEB43
:102E3000010007F066FE044601462869FFF7A6FD7B
:102E400024E008F06043B3F1005F02D118F0030FF3
:102E500032D0DFF870A0042EB14628BF4FF004092D
:102E60004A46414601A808F00AF83A46494601A8F0
:102E700007F047FE044601462869FFF787FD5445E1
:102E800004D1B6EB0906C8444F44E4D1286907F0E1
:102E900093FA0121284607F092FA0646286903F0C2
:102EA0004DFF002C14BF20463046FFF755FD044669
:102EB0002846FFF7BBFD8CE73A4631464046B8E767
:102EC000ECC000000000AD0B2DE9F04F814685B04D
:102ED0000E461C4690467AB1002B00F09B800029DC
:102EE000426803DB926ACB1893420BD94A482346C7
:102EF0003246452107F0B8F96FF01505284605B0B0
:102F0000BDE8F08FFFF7BEFD054600287ED1754273
:102F100005F00305D9F8100007F041FAA54228BFD3
:102F20002546D8F1000303F0030308F0030758BF58
:102F30005F427F4207F00307A74228BF2746631B73
:102F4000E41B24F0030423F0030AA245C8BFA246F1
:102F500003F0030BC8BFA3EB040BBAF1000F19D0A9
:102F600008EB0703721951461846019307F0CCFD90
:102F700004460146D9F81000FFF708FD274A94429D
:102F80003CD1BD4206D0019B5246194608EB0500D4
:102F900007F083FFBDB1C5F10407F21B042102A8AD
:102FA00007F0B2FD04460146D9F81000FFF7EEFC29
:102FB0001A4B9C4222D107F108032A460DEB03016C
:102FC000404607F05CFFBBF1000F16D008217219D4
:102FD00052440DEB010007F097FD04460146D9F875
:102FE0001000FFF7D3FC0D4B9C4207D10AEB050004
:102FF0005A4602A9404407F042FF084CD9F8100095
:1030000007F0DAF92046FFF7A7FC05464846FFF728
:103010000DFD73E71D4671E73BC100000000AD0BDD
:10302000024B0B6001231360704700BFEC0D0020C2
:103030000048704768B3000070B50D462846194631
:1030400016461C4607F0EBF940B9084823462A46C5
:10305000452107F009F96FF0150070BD24B1224633
:103060002946304607F00BFF0020F6E79FC100001D
:1030700010B5012211460648064C07F0E7FD07F09F
:1030800039FD206007F032FD6060002010BD00BFF8
:10309000F40D0020EC0D00204FF08042D2F8101506
:1030A000D2F8103501F01E0123F01F030B4343F04B
:1030B0000103C2F81035024B00221A70704700BF9E
:1030C0000E1E00204FF08053D3F83031082B20D152
:1030D0004FF08042D2F81015CB071AD5D2F8103530
:1030E00001F01E0123F01F030B43C2F81035D2F884
:1030F00008315BB1D2F8103523F01F030B4343F0C6
:103100000103C2F810356FF08B007047024B0122AB
:103110001A700020704700BF0E1E00202DE9F041FC
:103120000F46154607F0E2FC29460646384607F0EA
:1031300076F9B846B0B3B7FBF6F306FB137323B9C1
:10314000B5FBF6F406FB145444B119482B463A4635
:10315000452107F089F86FF015041DE0AE421BD839
:103160004FF0FF324FF0FF331248134F03F02AFEA7
:1031700007F0BCFC0646FFF7A5FF044678B94046B9
:1031800002F0BAFB3B780BB1FFF786FFAD1BB044F2
:10319000F1D1084803F0D2FD2046BDE8F0816FF080
:1031A0008B04F6E705482B463A464521D1E700BF98
:1031B000C1C10000F40D00200E1E00209FC10000C0
:1031C0002DE9F8430E463046194617461C4607F0CF
:1031D00026F950B9204823463246452107F044F8E5
:1031E0006FF015042046BDE8F88346EA040515F0A3
:1031F000030504D01948234632464521EEE7002C4A
:10320000F0D01748DFF85C904FF0FF324FF0FF33FB
:1032100003F0D8FD24F00304A54205EB060809D10C
:10322000114AD2F80034DB07FBD500240C4803F028
:1032300085FDD7E7FFF746FF50B97959404602F0C0
:103240008FFB99F800300BB1FFF726FF0435E3E759
:103250006FF08B04EAE700BF9FC10000E5C10000EA
:10326000F40D00200E1E002000E0014010B503699F
:1032700041B91C491C483A2206F099FD3A211948E7
:1032800006F08EFD486830B9164917483B2206F013
:103290008EFD3B21F3E75868F8B1884219D19C684C
:1032A00008685860A14200D19860002008602AB1E7
:1032B0005A680A609A68596002B99960002010E063
:1032C000814206D10868206098688142EDD19C60F7
:1032D000EBE7044600680028F2D1002AE8D16FF03D
:1032E000150010BD2CC200001FB7000030B54068AB
:1032F000057B01F01F04B2F5001F85B044EA4514B8
:1033000005D1204601F02AFE002005B030BD002581
:10331000B2F5800FCDE9025514D1B3F1007F0CBF97
:10332000042305238DF808300023194602AA2046FD
:1033300001F0F2FB2B4B984250D10121204601F0C5
:103340009FFDE1E7B3F1C06F23D0B3F1007F14BF5D
:10335000012302238DF808308368CB40D807E3D4DB
:10336000B2F1A07FE0D1620904F01F0313D0012A5B
:1033700004D14FF6FF72DA40D10714D41A491B4822
:1033800040F22F3206F013FD174840F22F3106F0BD
:1033900007FD0323DEE74FF0FF32DA40D207EDD519
:1033A0004FF0A04200E0124A03F5E07352F82330D8
:1033B000DB07B9D40DF107052946204601F0E6FCEC
:1033C0000C4B984201D00395AEE7284601F052FD20
:1033D000044B9842F7D06FF00B0096E76FF01500A2
:1033E00093E700BF0000AD0B68C200001FB70000EC
:1033F000000300500400AD0B10B501F02BFD044696
:1034000068B901F0EBFC084B98420AD10748214605
:1034100001F0B6FC224605210620FEF7D5FA002071
:1034200010BD6FF00400FBE70000AD0B313400006D
:10343000420970B5034602D0012A1AD070BD124E5F
:10344000326951680029F9D003F01F0301250C6887
:103450009D400029F2D08A682A400ED04B6853B9AB
:103460000A490B485D2206F0A2FC08485D2106F0DF
:1034700097FC084EE4E7304698471CB12368214684
:103480001C46E6E72346FAE7ACAF00002CC200007A
:103490001FB7000098AF00002DE9FF41D0F804806D
:1034A00098F80C3001F01F0545EA43150F462846F1
:1034B0000DF10701144601F069FC14F4403F064683
:1034C00014D1284601F070FD484B9E426BD19DF807
:1034D000070001F0C9FCB04265D0454945486C225F
:1034E00006F065FC6C21424806F05AFC00231946A0
:1034F00002AA2846CDE9023301F00EFB3B4B98426D
:103500001DD186420CD19DF8070001F0ADFCB04200
:1035100006D0374937487F2206F049FC7F21E2E791
:10352000A60353D540F206332340B3F5837F1AD068
:103530000DD8062B18D005D8B3B1022B37D06FF0B9
:10354000150031E0B3F5807FF9D101230CE040F2A2
:10355000022293422DD0B3F5407F2CD0B3F5007FEB
:10356000EDD1022300E007238DF8083084F4803386
:10357000C3F30043E0068DF8093054BFC4F3401391
:10358000032321038DF80A3017D5D8F8042001232E
:10359000BB40C2F80835002202A9284601F078FB9A
:1035A000124B9842CBD1002004B0BDE8F081042337
:1035B000DAE70523D8E70323D6E7620341BF0123F7
:1035C000D8F80420BB40C2F80C35E4E7E3064FF01E
:1035D000000354BFC4F3401403241A4602A928462A
:1035E0008DF8084001F098FADAE700BF0000AD0B53
:1035F0009BC200001FB7000008B5036859090246C6
:1036000013D0012906D103F01F034FF6FF71D940F3
:10361000C80712D40A490B4840F22F3206F0C7FB04
:10362000074840F22F3106F0BBFB4FF0FF31D94085
:10363000C907EFD54FF0A04000E00348136008BD74
:1036400068C200001FB7000000030050F0B54B79BE
:10365000012B26D0032B21D110258B79032B1DD1D3
:10366000CE790EB1012E19D10A7912B1022A15D1E3
:103670000E220B684468B3F5164F276867D02DD823
:10368000B3F5165F66D016D8B3F5966F64D00AD836
:10369000B3F5967F63D0B3F5167F63D06FF08500E6
:1036A00054E00025D9E7B3F5166F5ED0B3F5965F09
:1036B000F4D1384B3CE0B3F5E14F59D007D8B3F51E
:1036C000615F57D0B3F5964FE8D1334B30E047F602
:1036D0001224A342E2D14FF4000329E0B3F5613F85
:1036E0004AD013D8B3F5963F49D009D84DF6C02437
:1036F000A34246D0B3F5614FD0D14FF46B0317E02E
:10370000B3F5E13FCAD14FF0EB7311E0B3F5612F90
:103710003AD008D8214CA34239D0B3F5E12FBDD11E
:103720004FF0E86304E01E4CA342B7D14FF0805342
:103730000469C7F82435436835431B682A43C3F836
:103740006C2503C9231D83E803000020F0BD4FF45E
:103750001D03EDE7134BEBE74FF49E23E8E74FF42F
:10376000A033E5E74FF41C33E2E74FF41D23DFE716
:103770000D4BDDE70D4BDBE74FF06C73D8E70C4BDF
:10378000D6E74FF46503D3E74FF07063D0E74FF00F
:103790008063CDE700B0130000A04E0090D003007E
:1037A00040420F000050270000C0750000F03A00B2
:1037B00000903A012DE9F7438046002201210220C2
:1037C000FEF702F90220FEF7CFF8D8F80470D8F817
:1037D00010603C680021C4F80015C6F80080D7F8D6
:1037E0000C9001AA484606F08CFE051E1EDB019BCC
:1037F000D9F800201979186806F096FE051E15DB29
:10380000311D4046FFF722FF054678B97B689907CE
:103810001CD506F1180002F0D3F8204B984209D0CD
:103820001F48452106F020FD6FF00405284603B02F
:10383000BDE8F083307E04F10C0204F5907107F0CE
:10384000B8F8337E0120984000F0EAFE0823C4F85F
:1038500000353B7A53B9C4F81031D4F8103173698C
:10386000C4F834350123C4F8383523607B689A07DF
:103870005CBF4FF48073C4F804337B68DB0644BF3D
:103880004FF48003C4F804333369C4F8443500238B
:10389000C4F848350123A360E360C7E70000AD0B1F
:1038A000E3C20000F8B5044607690D4607F0B2F917
:1038B000B0B92E4B1B789BB16426606806F01FFFE1
:1038C00000BB012007F073F8013EF6D10021212052
:1038D00004F03EFBF0E786F31188BFF36F8FF5E746
:1038E0004FF02003EFF3118683F31288BFF36F8F3D
:1038F0006068314606F003FF90B986F31188BFF384
:103900006F8FEDE74FF02003EFF3118683F31288FA
:10391000BFF36F8F6068314606F0F1FE0028DAD001
:103920003B691D70626838691368C3F8440501205B
:10393000C3F848050020C3F82001D3F82051C3F88C
:1039400058015268D3F85801D20608D56268126847
:103950000820C2F800054FF48002C3F804230122B6
:103960009A6081F31188BFF36F8FF8BD2322002086
:1039700070B40E49D1E90034D01AC31844F10004E0
:1039800022F07F46C1E90034A6F50013B3F5400FDD
:1039900009D2074B1B681A0A1B069C19054B42F1FA
:1039A0000005C3E9004570BC04F046BD7006002068
:1039B000240E0020780600200D4B1868010A00062E
:1039C000BFF35F8F0B4BD3F80435181841F100019A
:1039D000B3F5801F0AD2084BD3E90023904271EB64
:1039E000030303D210F1807041F10001704700BF62
:1039F000240E002000100140780600202DE9F74336
:103A00002F4CD4F8043399070BD5D4F8043143B1C3
:103A10002C4A0023C4F80431D4F80431136801336C
:103A20001360D4F80433DA032AD5BFF35B8F264B37
:103A300053E8002F22F0010143E800100028F7D1DD
:103A4000BFF35B8FD30702D4D4F84031C3B1002554
:103A5000C4F84051D4F84031FFF7AEFF4FF02003D7
:103A6000EFF3118283F31288BFF36F8F174BD3E903
:103A70000267B042B94106D282F31188BFF36F8F5B
:103A800003B0BDE8F0834FF0FF384FF0FF39C3E9D2
:103A90000289D3E900101D604FF48033C4F8483325
:103AA000C4F84051D4F8403182F31188BFF36F8FCE
:103AB0000029E5D0009032463B4628468847DFE79C
:103AC00000100140240E00201C0E00206006002083
:103AD0002DE9F84F4B4DBFF35B8F06460F4655E877
:103AE000008F28F0010345E80032002AF7D1BFF328
:103AF0005B8F454C4FF48039C4F80893BFF35F8F58
:103B0000BFF36F8FFFF758FFB04271EB070308F068
:103B1000010840D23D4B301A67EB0101984271F128
:103B200000014CD23A4BD3E902239F4208BF964290
:103B30003ED04FF0000CC4F84893C4F840C126F0C2
:103B40007F40D4F84031DFF8CCA0834603216FF0EA
:103B5000020E2BF07F43C4F84035C4F84493D4F8E8
:103B60000425AEEB02035B4423F07F4353451FD98A
:103B7000D4F840315BB1D4F80425131A23F07F4305
:103B8000B3F5000F14D9C4F840C1D4F8403101EBAB
:103B9000020B0131DDE7204BBFF35B8F53E8001FC1
:103BA00041F0010143E80012002AF7D1BFF35B8F17
:103BB000174B1A4A1A60C3E9026700225A60B8F12B
:103BC000000F1CD0BFF35B8F55E8003F43F00103AB
:103BD00045E80032002AF7D1BFF35B8F4FF4803302
:103BE000C4F804330C4BBFF35B8F1B68BFF35B8FD0
:103BF000DB0742BF0A4B4FF40032C3F80021BDE897
:103C0000F88F00BF200E002000100140010080004E
:103C100060060020FDFF7F001C0E002071390000AF
:103C200000E100E070B5194C194BC4F80833C4F832
:103C30004833184B00254FF0FF304FF0FF31C4F8E8
:103C40000855C3E902014FF48033C4F80433124B22
:103C500002264FF40032C4F804630121C3F8802126
:103C600011202A46FDF7B0FE1120FDF77DFE01234D
:103C70000A4AA3600021236009481360FFF728FF68
:103C80003046FEF7A7FD284670BD00BF001001407A
:103C900003000F006006002000E100E0200E00207D
:103CA000FFFF7F00431C10B51DD001281DDD104A09
:103CB000104B9042D4BF04461C46FFF77DFE0E4ACF
:103CC000D2E90031C01AB0F5000F0A4A28BF00241B
:103CD0000444944228BF1446E01841F10001BDE8B5
:103CE0001040FFF7F5BE034CE7E70124E5E700BF0E
:103CF000FEFF7F00FFFF7F007006002008B5FFF782
:103D00005BFE024B1B68C01A08BD00BF7006002096
:103D100010B5084C012363601120FDF733FE064BFC
:103D2000C4F80833C4F84833044B4FF40032C3F8E6
:103D3000802110BD0010014003000F0000E100E0F1
:103D40002DE9F04112F0FC6FD0E9014706691346F6
:103D50000AD03649364840F2C73206F028F840F219
:103D6000C731324806F01CF802F03002302A08D180
:103D70002E492F4840F2CA3206F019F840F2CA31F3
:103D8000EFE72C4A2C4D1A40AA4208D1274928486F
:103D900040F2CE3206F00BF840F2CE31E1E703F00C
:103DA0000602042A08D12149214840F2D13205F007
:103DB000FEFF40F2D131D4E713F4402212D09D032C
:103DC00008D41A491A484FF4757205F0F0FF4FF401
:103DD0007571C6E7B2F5402F14D0184A9A4301D145
:103DE00083F44023246801258D40254223F480126A
:103DF00011D10E490E484FF4797205F0D8FF4FF4F7
:103E00007971AEE709490A484FF4767205F0CFFFA1
:103E10004FF47671A5E73468DB074CBF2C43AC4305
:103E200034603B68BDE8F041184700BF25C300007F
:103E30001FB7000002000300020001000100100093
:103E400010B5012303FA01F1436804691B681942A4
:103E50000AD10C490C4840F24F6205F0A8FF09480E
:103E600040F24F6105F09CFF2368194203D022B154
:103E700083681B6903E0002AFAD08368DB68BDE829
:103E80001040184725C300001FB700002DE9F0417E
:103E9000114E07468846002527FA05F212F0010266
:103EA00010D128FA05F3DB070ED531793068FFF71A
:103EB000C7FF044640B10948452106F0D5F9204620
:103EC000BDE8F0810122F0E70135042D06F1080676
:103ED000E2D10024F3E700BFFCB3000056C30000AA
:103EE00070B50D4C0026E2882068217942F400323A
:103EF000FFF726FF054648B90136042E04F10804F1
:103F0000F1D1BDE870400F21FFF7C0BF0348452144
:103F100006F0AAF9284670BDFCB3000071C300008A
:103F2000032810B50A4607D90B48452106F09CF92D
:103F30006FF01504204610BD084B03EBC00153F889
:103F400030000979FFF77CFF04460028F2D00448CE
:103F5000452106F089F9EDE790C30000FCB30000AD
:103F600056C30000034808B5452106F07DF900203E
:103F7000FEF7F0F8C4C3000030B58FB01D4601ABAA
:103F80000C46029300210123CDE90331ADF8203026
:103F90008DF828300E4B0B930E4B8DF814000991C1
:103FA0000C9308A905AB02A80694ADF81C200D934C
:103FB00006F02DFC002805DB34B1129A294602A830
:103FC00006F0ECFB0FB030BD6FF01500FAE700BF54
:103FD000E7C3000047A9000010B504460020FEF723
:103FE000F1FB114B186040B910491148392205F016
:103FF000DEFE0E48392105F0D3FE00220121052006
:10400000FDF7E2FC1B2000220121FDF7DDFC20462C
:1040100000F072F928B10748452106F025F9064855
:1040200010BD0648FCE700BF380E0020E8C30000C2
:104030001FB7000012C400000900AD0B0000AD0B5B
:1040400030B550B30A292AD84FF49263CB40DB072E
:1040500025D5144A146D536D926D0470250A240CF5
:1040600084700429DCB24570C47001D10E4830BDA3
:104070001D0A05710A294FEA13454FEA136345717A
:10408000837105D1130AC271120C03724272EDE7FB
:10409000882CEBD19923C370E8E70448E7E704488C
:1040A000E5E700BF000400100000AD0B0400AD0BFD
:1040B0000600AD0B10B50368022B02D0042B16D0FE
:1040C00010BD15490023CB60144B4B6003238B605C
:1040D000134B1868FCF73AFE0028F1DA1149124830
:1040E000AB2205F064FEAB210E4805F059FE0C4BE7
:1040F00009491C682046FCF701FF10F1780F02D136
:104100002046FCF7A5FE0028DADA06490648B32265
:1041100005F04DFEB321E7E7280E002077A9000047
:10412000380E0020E8C300001FB7000008B50A4B96
:104130001A699B689A420DD003F032F830F00203FE
:1041400008D006490648332205F031FE03483321E2
:1041500005F026FE08BD00BFD40000206CC400009E
:104160001FB70000F0B587B0074604224748474C08
:104170006946FCF761FF0428064611D0034644480F
:104180000422452106F070F84248452106F06CF8FB
:104190000023C4E90233C4E905336360236160E0AE
:1041A000BDF80020102A08D93B493C48712205F08F
:1041B000FEFD7121384805F0F3FD02A92046FCF709
:1041C0003BFFBDF800208242034603D03448022260
:1041D0004521D7E7BDF802505DB9324601A9204616
:1041E000FCF72AFF0428034625D02E4832464521F5
:1041F000C8E72A4601A9204605F09DFD85421AD947
:104200000021204605F0B7FD024678B9284606F0A1
:10421000C6FD2A46014601902046FCF70DFF854267
:1042200014D9019806F0B4FD6FF04C021E484521E8
:1042300006F01AF8A8E700241C4B1B6843B916497E
:104240001648882205F0B3FD8821B3E70124F3E77F
:10425000019902A89847BDF8021021B93846FFF726
:1042600065FF07B0F0BD1CB1019806F091FDF5E7C0
:10427000064805F080FD03460028EFD0BDF8022077
:104280000B48452105F0F0FFE8E700BFD40000200F
:10429000A6C400008CC500006CC400001FB700005D
:1042A000D4C40000FFC4000033C500003C0E002051
:1042B00059C50000684620F007018D4601B50A4B3C
:1042C0001B7843B109490A48B42205F070FD07483C
:1042D000B42105F065FD074802F062FFFDF7A6FC7A
:1042E000BDE8014085467047111E00206CC40000E7
:1042F0001FB70000C400002010B5044658B10022CA
:1043000001211520FDF760FB1520FDF72DFB034B68
:1043100000201C6010BD6FF01500FBE73C0E002074
:10432000F0B585B01D469DF828700192002F08BF9A
:104330000023ADF80C10064604221848ADF80E30E4
:1043400003A9FCF74BFE0428044609D0144B0122B4
:104350001A70144B4FF40012C3F8002105B0F0BDE1
:10436000BDF80C200D483146FCF738FEBDF80C3086
:104370008342EBD15FB155B1BDF80E2001990748DA
:10438000FCF72CFEBDF80E40A042DFD1E1E704228D
:104390000DEB02010148FCF721FEF5E7D4000020F7
:1043A000111E002000E100E04FF08053D3F83021CF
:1043B000082A06D1D3F83431052B02D8024AD05C42
:1043C00070470020704700BFCEC50000024AD2F8F7
:1043D0000034002BFBD0704700E0014010B54FF0D7
:1043E0008053D3F83021082A4ED14FF0804200216B
:1043F000C2F80C11C2F81011C2F8381502F540428B
:10440000D3F80414C2F82015D3F80814C2F8241500
:10441000D3F80C14C2F82815D3F81014C2F82C15D0
:10442000D3F81414C2F83015D3F81814C2F83415A0
:10443000D3F81C14C2F84015D3F82014C2F8441560
:10444000D3F82414C2F84815D3F82814C2F84C1530
:10445000D3F82C14C2F85015D3F83014C2F8541500
:10446000D3F83414C2F86015D3F83814C2F86415C0
:10447000D3F83C14C2F86815D3F84014C2F86C1590
:10448000D3F84434C2F87035FFF78EFF18B13A4BB9
:104490003A4AC3F88C26FFF787FF18B1384BFB2246
:1044A000C3F81825FFF780FF70B14FF080414FF03F
:1044B0008053D1F8E42ED3F8583222F00F0203F0E3
:1044C0000F031343C1F8E43EFFF76EFF20B12D4BFD
:1044D0004FF40072C3F840264FF08053D3F83031C8
:1044E000082B1AD14FF08043D3F80024D20744BFE1
:1044F0006FF00102C3F800244FF08053D3F8343139
:10450000052B02D8204AD35C3BB14FF01023D3F8DF
:1045100008224FF08043C3F858254FF01023D3F8FA
:104520000022002A03DBD3F80432002B22DA1749D9
:1045300001234FF01020C1F804351224FFF746FF85
:10454000C0F80042FFF742FFC0F80442FFF73EFF09
:104550000023C1F80435FFF739FFBFF34F8F0C4933
:104560000C4BCA6802F4E0621343CB60BFF34F8F79
:1045700000BFFDE710BD00BF0050004048810300B0
:1045800000F0004000900240C8C5000000E001407B
:1045900000ED00E00400FA0530B50468CCB1BFF3CB
:1045A0005B8FB4FA84F3C3F11F03DBB201229A409C
:1045B00024EA020250E8005FA54204D140E8002C42
:1045C000BCF1000FF6D1BFF35B8FE6D102480B7050
:1045D00030BD0248FCE700BF0000AD0B0200AD0B90
:1045E00010B50368CB40DB0714D401238B4002686D
:1045F000BFF35B8F43EA020150E8004F944204D1BD
:1046000040E8001CBCF1000FF6D1BFF35B8FEED188
:10461000014810BD0148FCE70000AD0B0400AD0BE4
:10462000014BC3F80405704700F00140F7B54FF0A7
:104630008043044650B1012826D033493348D8225C
:1046400005F0B5FB3048D82105F0AAFB0222C3F8DB
:104650000823C3F80401D3F804210122DA600646D6
:1046600001238DF8073042F210754FF08047E4B116
:10467000012C2ED02649254840F2CB3205F097FB7D
:10468000234840F2CB31DFE70022C3F80803C3F828
:104690000021D3F8002158600DF10706E0E783B14F
:1046A000012006F084F9013D0BD0D7F8183403F44B
:1046B0008033002EF3D0D7F8182402F003023260C2
:1046C000BBB903B0F0BD83B1012006F070F9013D24
:1046D0000BD0D7F80C3403F48033002EF3D0D7F886
:1046E0000C2402F0010232701BB90A4B00225A71ED
:1046F000E7E79DF80700012803D106F058F9013DCE
:10470000B5D1012CDDD1F0E7D4C500001FB7000002
:1047100011C60000400E002008B550B90A490B48E8
:1047200040F2151205F043FB074840F2151105F061
:1047300037FB074B1A7922B91860012205489A8085
:1047400008BD0548FCE700BFD4C500001FB7000046
:10475000400E00200000AD0B0C00AD0B08B50D4B5A
:104760001B7953B90C490D484FF4977205F01FFBA4
:1047700009484FF4977105F013FB0020FDF716F977
:1047800008B9FDF7F1F84FF080430022C3F818256F
:1047900008BD00BF400E0020D4C500001FB70000B8
:1047A00008B5274B1B7953B9264927484FF4B472F3
:1047B00005F0FDFA4FF4B471224805F0F1FA4FF01C
:1047C000804350B1012832D01E491F484FF4D372A4
:1047D00005F0EDFA4FF4D371EEE7D3F81814D3F8DF
:1047E0001824C80317D502F00303012B04D013B11A
:1047F0000020FFF71BFF00234FF08042C2F818355E
:104800000023C2F80431D2F804310223C2F8043381
:10481000012393600AE0D3F81424D107EBD5D3F831
:104820001C249207E4D40222C3F8042308BD00220A
:10483000C3F80021D3F80021C3F804031860F5E79A
:10484000400E0020D4C500001FB7000008B5094B7A
:104850001B7953B90849094840F2AD1205F0A7FA8F
:10486000054840F2AD1105F09BFABDE80840FFF79E
:10487000DDBE00BF400E0020D4C500001FB7000001
:1048800010B54FF08043D3F800216AB10022C3F87D
:104890000021D3F800210122C3F80823114B5879D5
:1048A00010B95A711B6898474FF08043D3F8042120
:1048B00072B10022C3F80421D3F80421D3F81824DC
:1048C000D3F81824920704D10122C3F818259A605E
:1048D00010BD0222C3F80823024BBDE810401B683C
:1048E00001201847400E0020034A430900F01F0032
:1048F000D35C1844C0B27047C3C6000008B5FFF7C8
:10490000F3FF034B083033F8100000F0010008BD3E
:10491000F400002008B5FFF7E7FF034B083033F839
:104920001000C0F3401008BDF400002008B5FFF7E8
:10493000DBFF044B083033F8100010F01C0018BFE8
:10494000012008BDF400002008B5FFF7CDFF034BA0
:10495000083033F81000C0F3400008BDF400002018
:1049600008B5FFF7C1FF034B083033F81000400BC8
:1049700008BD00BFF400002070B50546FFF7B4FF86
:104980000C4C08300E4634F81030DA0508D5C3F365
:10499000432304EBC302284654F833305268984747
:1049A000A3682BB1E26831462846BDE8704018473D
:1049B00070BD00BFF400002010B5FFF795FF184A46
:1049C000083032F81030D9051DD5C3F3432123F444
:1049D000F85322F8103002F10E04002034F8023FA0
:1049E00013F4807F03D0C3F3432399420BD00130EB
:1049F0003028F3D100230B4842F83130FFF7F0FDA7
:104A0000094B984200D110BD0849094840F25F1295
:104A100005F0CDF9054840F25F1105F0C1F900BF7E
:104A2000F4000020680100200000AD0B50C600001B
:104A30001FB7000008B502680146104605F0C3FF25
:104A400050B91049104840F22F3205F0B0F940F249
:104A50002F310C4805F0A4F902F01F0352090B6036
:104A60000AD0012A0BD0074907484FF44E7205F0CF
:104A70009EF94FF44E71ECE74FF0A04008BD03489B
:104A8000FCE700BF68C200001FB700000003005031
:104A9000072808B50AD90749074840F2AA2205F0B5
:104AA00086F9044840F2AA2105F07AF9800000F561
:104AB000807008BD8EC600001FB700002DE9F041D0
:104AC0000024064625460127A046E0B2FFF7E0FF96
:104AD000A0F58072920807FA02F2164209D000F19E
:104AE000804303F5C043196819B1C3F800801B68FF
:104AF00015430134082CE8D1064BD3F87C2132B1A0
:104B00000022C3F87C21D3F87C3145F000452846CB
:104B1000BDE8F081006000402DE9F04385B0054616
:104B200090461E46FFF7E0FE0F460446E1B12846D8
:104B300005F05BFF30BBCDE900008DF80E008DF86D
:104B40000F003B460DF10F020DF10E01284605F056
:104B500057FF4A4A04F1080132F8113023F00203EA
:104B600043F0010322F81130B8F1000F31D028468C
:104B700098F80070D8F80490FFF7E6FE20B1B9F17C
:104B8000000F1BD03E4826E03C4B04F1080C33F8E4
:104B90001C1021F02001C904C90C23F81C10B9F124
:104BA000000F0BD0032FEDD8D8F8042092F800E0C6
:104BB000A7B9344B0EF5A27E43F82E702F4A04F1AC
:104BC000080132F8113023F01C0343EA870322F86E
:104BD00011304EBB2C4805B0BDE8F0834FEA8E0281
:104BE00002F1804202F5C04241EA4E31D2F810058E
:104BF00020F00300C2F81005D2F8100520F44F3061
:104C000020F44070C2F81005D2F81085280200F494
:104C10007C5040EA080040EA074041F0200123F8B8
:104C20001C10C2F81005C9E7D6E900762846FFF740
:104C3000C3FE002FCED0114DD5E90023974201D1FC
:104C40009E4218D011480DF10F01FFF7A5FC0E4B45
:104C50009842C0D19DF80F2045F8327005EBC20391
:104C600008345E6035F8143043EA422343F480731D
:104C700025F81430AEE70022EEE700BFF400002074
:104C80000400AD0B006000400000AD0B6801002087
:104C9000F0B585B004461646FFF726FE054629B353
:104CA0002046FFF751FE20B92046FFF733FE0028CB
:104CB0005ED12046FFF73AFE10B14B78012B57D05A
:104CC00001238DF80F300023CDE900134A1C8B1C03
:104CD00020460DF10F0105F093FE264A05F108016B
:104CE00032F8113043F0030322F8113016B922488C
:104CF00005B0F0BD2046FFF727FEC8B31D4F96F85C
:104D000000C005F10800614637F81050890025F011
:104D1000200501F18041ED0401F5C041ED0C27F8BB
:104D200010500023C1F810357278002ADFD0D1F876
:104D30001035B67823F4991323F4F853C1F81035DD
:104D400012042302D1F810E502F4403203F47C533C
:104D50001343320543EA0E0302F4801245EA4C3550
:104D6000134345F0200527F81050C1F81035BEE771
:104D70000248BDE7F40000200000AD0B0400AD0BBD
:104D8000014BC3E902017047F400002010B504464E
:104D900051B90D490D4840F2652205F008F80A485E
:104DA00040F2652104F0FCFFFFF7B4FD50B120464E
:104DB000FFF79AFD064B083033F8103005485B0BBF
:104DC0000B7010BD0448FCE750C600001FB7000080
:104DD000F40000200000AD0B0400AD0B70B5194DC0
:104DE00095F8784064BB6022214605F1100006F07A
:104DF0006EF82646E0B2FFF74BFEA0F580739B08E5
:104E00001F2B04BF00F1804000F5C04004F10104F5
:104E100004BF06600368082CECD10B4C0023C4F8D7
:104E20007C310620D4F87C31FCF79EFD4FF0004326
:104E3000C4F804330548012385F878306B6770BDEA
:104E40000348FCE7F4000020006000400000AD0BC8
:104E50000500AD0B034B93F87800003818BF012014
:104E6000704700BFF400002001460148FFF7B8BBBF
:104E70006401002001460148FFF78EBB6401002059
:104E800073B504460D46FFF751FD50B92F49304820
:104E90004FF4597204F08BFF4FF459712B4804F012
:104EA0007FFF2046FFF736FD20B32046FFF74CFD7D
:104EB0000646F8B92046FFF753FD0446FFF7E8FD24
:104EC00000F1804303F5C0431E601B6823B29B00C2
:104ED00003F1804303F5C043D3F8102542F00102EB
:104EE000C3F8102525B11B4A0123A340C2F804339F
:104EF00002B070BD45B91549154840F2733204F04F
:104F000056FF40F27331C9E72046FFF7EDFC124B24
:104F1000083033F81030C3F38203042B12D0052B72
:104F200012D001A80194FFF785FD019BD0F8101560
:104F3000D94001F001010231204602B0BDE87040C5
:104F400005F0ABBD0321F7E70221F5E750C60000ED
:104F50001FB7000000600040F400002010B50446B8
:104F6000FFF7D8FCC0B12046FFF7EEFCA0B9204601
:104F7000FFF7F6FC0B4A01238340C2F8083303B263
:104F80009B0003F1804303F5C043D3F8102522F0C2
:104F90000302C3F8102510BD20460021BDE81040D3
:104FA00005F07BBD0060004013B50446FFF7A6FC8A
:104FB00060B32046FFF7D2FF2046FFF7ABFC40B1BD
:104FC0002046FFF7CDFC124B00F5A270002243F8FB
:104FD00020202046FFF7F0FC2046FFF785FC0D4B14
:104FE00001940830002223F8102001A8FFF722FDC9
:104FF000019B00EB8300084BD0F80027134043F0DF
:105000000203C0F80037054802B010BD0448FBE7B2
:1050100000600040F4000020F0F8FCFF0000AD0B41
:105020000400AD0B2DE9F04F654BD3F80403C0B27B
:1050300087B040F00040FFF741FD051E80F2A380DD
:105040004FF0A043D3F820250492C3F82025D3F8CD
:1050500020280592C3F820280DF110084FF0000910
:10506000584B09EB030B51E09BF8004091FAA1F17A
:10507000B1FA81F141EA44142046FFF735FC524B66
:105080000394083033F81070C808012301F00701B9
:1050900003FA01F118F8003023EA0103BA0808F80E
:1050A000003003A80192FFF7C5FC039B019A03F5AA
:1050B000E073C7F3820650F82330C3F3014A530765
:1050C00037462FD531462046FFF756FC03A80394F8
:1050D000FFF7B0FC039B03F5E0735FFA8AFA50F820
:1050E0002330C3F301439A4507D10021204605F040
:1050F000D4FC5146204605F0D0FC03A80394FFF7EA
:1051000099FC039A01239340C0F82035D8F8001089
:105110000029A9D108F10408B9F1000F1DD14FF001
:1051200001099DE7BAF1020F0CD10321204605F0D9
:10513000B4FC06F00503012BDFD139462046FFF70A
:105140001BFCDAE70221204605F0A7FC032EF4D071
:10515000BAF1030FD1D1022EEEE74FF00040FFF776
:10516000ADFC4FF0A0421949D2F820350493C2F8A3
:105170002035D1F8202505921343C1F820257FF46E
:105180006BAF25F00045012415B907B0BDE8F08FDD
:1051900095FAA5F3B3FA83F304FA03F29B0003F143
:1051A000804303F5C04325EA0205D3F81005D3F880
:1051B0001015C0F30520C1F30141FFF7DDFBE3E764
:1051C00000600040D3C60000F4000020000300503F
:1051D000A0F58072920801239340084A13420BD035
:1051E00000F1804000F5A04002682AB10022026070
:1051F00002680A681A430A60704700BFFE0408008C
:1052000070B5044686B050B9274928484FF4E0727B
:1052100004F0CDFD24484FF4E07104F0C1FD244DAD
:105220002E7B002E3DD107C885E80700214A0323C5
:10523000C2F80C35D2F8A03523F01F0343F0040365
:10524000C2F8A0351C4B2022C3F880210520FCF7B2
:105250008BFB1A4A247A07CA03AB83E80700194676
:10526000174A18488DF8124000F084FF164B9842F8
:1052700004460BD14FF47A71124805F04CFC01231F
:10528000024600930F48314605F06FFC01232B7353
:105290004FF480524FF49063C5E90423204606B0D2
:1052A00070BD0A4CFAE700BFE1C600001FB700005E
:1052B000480E00200050004000E100E010B2000065
:1052C000ED530000700100200000AD0B0500AD0B98
:1052D000044B0122C3F804249A60034AC3F8042350
:1052E000704700BF0050004086000800034B4FF09D
:1052F000FF32C3F8082301225A6070470050004073
:10530000034BD3F83C0410F0030018BF0120704792
:105310000050004070B5204A86B0137A8DF807001F
:1053200023BB9DF80730032B05D1FFF7E9FF0130C0
:10533000C0B28DF807009DF80730012BDCB217D002
:10534000022C13D1154D6B7B03F0FF0173B912488A
:1053500091720126168100F095FF0F4800F052FF70
:105360006B686E7302940BB102A8984706B070BDCB
:105370000A4B5A7B002AF9D0094A4FF48F61946096
:10538000C2F8081300215973042102914FF480518F
:10539000C2F808155B68E6E770010020480E00209F
:1053A0000050004010B50E4B0E4C1A783AB1002256
:1053B0001A702272BDE810400320FFF7ABBF627A7B
:1053C0006AB1A27A5AB10849012220460A601A70CD
:1053D00000F058FF2046BDE8104000F013BF10BD9C
:1053E000121E00207001002000500040B0F5A07F88
:1053F00008B508D104480123837200F023FFBDE8FB
:105400000840FFF7CFBF08BD7001002008B550B9B4
:10541000124913484FF4077204F0C9FC0F484FF4C7
:10542000077104F0BDFC416801F06043B3F1005F17
:1054300011D102880B4B0C48C3F81015C2F30802B7
:10544000C3F81425094A126802F48C62C3F80423D5
:105450000122DA6108BD0648FCE700BFE1C6000092
:105460001FB70000005000400000AD0B480E0020A8
:105470000A00AD0B70B550B92C492D484FF40D7290
:1054800004F095FC4FF40D71284804F089FC436842
:1054900043B92649264840F2352204F088FC40F200
:1054A0003521F1E70268002A3BD003F06043B3F1F5
:1054B000005F38D14FF02003EFF3118483F312889B
:1054C000BFF36F8F1B4BD3F80C211AB1D3F8042311
:1054D000120724D401251D6102884668C3F81065AF
:1054E000C2F30802C3F8142502681348D200C2F3BD
:1054F0000B0292B2C3F81C25C3F80C150F490A69B8
:10550000C2F31302C3F808250A6802F01802C3F8B0
:105510000423DD6084F31188BFF36F8F70BD0848EA
:10552000F8E70848FAE70848F8E700BFE1C60000D6
:105530001FB70000005000400000AD0B480E0020D7
:105540000B00AD0B0600AD0B0A00AD0B012318B923
:10555000044A5372FFF726BF00F1804000F5A040D7
:105560000360704770010020292813D10D4BD3F838
:10557000202412F0010F4FF0010214BF9A625A6208
:10558000084B4FF48052C3F808254FF48F62C3F8DC
:105590000823704700F1804000F5A040012303601C
:1055A000EEE700BF0050004008B550B93449354817
:1055B00040F2D92204F0FBFB314840F2D92104F03B
:1055C000EFFB0378032B0DD8DFE803F0020E1D2A52
:1055D00043682D4A934228BF13462C4A5169994289
:1055E0004CD813612A4808BD4368274A934228BF14
:1055F0001346264A1169994240D35361254A9BB20A
:10560000C2F80435EEE70179032937D8214AD2F8E8
:10561000A43523F0600343EA4113C2F8A435E1E75F
:10562000027A4368042A27D00A2A23D15A781978A3
:10563000120242EA014299780A4316490333C1F83B
:10564000982580215A781878120242EA0042987808
:10565000024310480333C0F894251B680D4A1BBA57
:10566000C2F89035D2F8A03523F0C0030B43C2F83E
:10567000A035B7E74021E5E70021EEE70648B2E7AD
:10568000E1C600001FB70000FFFF0F00480E00201A
:105690000000AD0B005000400400AD0B30B585B0EC
:1056A000002369464FF480700093FFF791FD4FF49B
:1056B0008270FFF78DFD4FF48470FFF789FD4FF482
:1056C0008670FFF785FD4FF48870FFF781FD4FF47A
:1056D0008A70FFF77DFD4FF48C70FFF779FD4FF472
:1056E0008E70FFF775FD4FF49470FFF771FD4FF466
:1056F0009670FFF76DFD4FF49870FFF769FD4FF45A
:105700009C70FFF765FD4FF4A470FFF761FD4FF447
:10571000A670FFF75DFD4FF4A870FFF759FD009CE0
:1057200014F040051EBF6C4BD3F81025D3F8243578
:10573000A30704F0040200F1BA802AB1664BD3F843
:105740000433580700F1C480A2060FD5624BD3F88A
:1057500004339B060AD50023CDE9013303932023AC
:1057600000935E4B5B680BB16846984735B35A4A65
:10577000D2F804335D0621D540230021CDE9003164
:10578000D2F810350393D2F82435C3F30B03103B42
:10579000C3F3CC03600502930BD5D2F804335B0549
:1057A00007D5D2F80C3403F00D0301930D23C2F892
:1057B0000C344A4B5B680BB16846984725032BD5E0
:1057C000454BD3F80423100326D50022C3F8182133
:1057D000D3F81811C3F82821D3F828113F48C3F88B
:1057E0000C21D3F80C11C3F81021D3F81011016962
:1057F000C1F31301C3F808150D21C3F80C140121DE
:10580000C3F804144FF40023009343680392CDE9D6
:1058100001220BB16846984721061BD52E4BD3F8C1
:105820000423120616D5D3F804140022CDE9012270
:105830000392CD074FF08002009207D50122C3F8F2
:105840000424264B5B680BB168469847224B012223
:10585000C3F80424200713D51F4BD3F804231107E2
:105860000ED51E4A52685AB108210091D3F810157E
:105870000291D3F81C35C3F3C803019368469047DF
:10588000E20612D5144AD2F80433DB060DD5002304
:10589000CDE901330393102300931823C2F8083392
:1058A0000E4B5B680BB16846984705B030BD0A4B9C
:1058B000D3F8041389077FF540AF5AB1D3F8043306
:1058C00013F0040F0CBF02200320FFF723FD3BE77A
:1058D0000120FAE70220F8E700500040480E0020BF
:1058E000044AD2F80034DB07FBD50160BFF35F8FB9
:1058F000704700BF00E0014008B54FF080531A69BF
:1059000059694A43904207D21A69B0FBF2F302FB8D
:10591000130363B10D4818E00D490E4840F2071219
:1059200004F045FA0A4840F2071104F039FA0A4B2C
:105930000222C3F80425C3F80805D3F80024D207CF
:10594000FBD500220548C3F8042508BD0A00AD0BAD
:1059500027C700001FB7000000E001400000AD0BAA
:10596000F8B50D460121044605F0A6F850B91149D5
:10597000114840F2951204F01AFA40F295110D48C0
:1059800004F00EFA14F0030708D00A490A484FF44D
:10599000CB7204F00CFA4FF4CB71F0E7074E012301
:1059A000C6F8043529462046FFF79AFFC6F8047565
:1059B000F8BD00BF27C700001FB7000000E001408E
:1059C00001460148FEF7E8BD7C01002070B5414D5D
:1059D00095F8304044B940494048712204F0E7F955
:1059E00071213D4804F0DCF930B93B493B48722253
:1059F00004F0DDF97221F4E700F06046B6F1005FD3
:105A000063D1860761D1012C01D09C425FD12C6803
:105A100004BB022B324B0BBFC3F81025C3F804257F
:105A2000C3F81405C3F808050BBFC3F81815C3F86D
:105A30000C15082204220021C3F8001102F1804352
:105A400003F5243301221A60254AD2F80031002BD5
:105A5000FBD00DE0AE68224C66B1022BE8606961B4
:105A6000EA612BD1C4F81025C4F81405C4F8181540
:105A70001C4870BD022B85F830300CBF082304236E
:105A80002961AA61A86003F180430BBFC4F8102507
:105A9000C4F80425C4F81405C4F808050CBFC4F8FC
:105AA0001815C4F80C150E49002203F52433C1F86B
:105AB00000210122C1F804231A60D9E7C4F80425A3
:105AC000C4F80805C4F80C15D2E70748D1E7074821
:105AD000CFE700BF600E00206CC700001FB70000BA
